{
  "contractName": "Agreement",
  "abi": [
    {
      "constant": true,
      "inputs": [],
      "name": "confirmedTxsLength",
      "outputs": [
        {
          "name": "",
          "type": "uint256"
        }
      ],
      "payable": false,
      "stateMutability": "view",
      "type": "function"
    },
    {
      "constant": true,
      "inputs": [],
      "name": "pendingTxs1Length",
      "outputs": [
        {
          "name": "",
          "type": "uint256"
        }
      ],
      "payable": false,
      "stateMutability": "view",
      "type": "function"
    },
    {
      "constant": true,
      "inputs": [],
      "name": "invited_friend",
      "outputs": [
        {
          "name": "",
          "type": "address"
        }
      ],
      "payable": false,
      "stateMutability": "view",
      "type": "function"
    },
    {
      "constant": true,
      "inputs": [],
      "name": "txCounter",
      "outputs": [
        {
          "name": "",
          "type": "uint256"
        }
      ],
      "payable": false,
      "stateMutability": "view",
      "type": "function"
    },
    {
      "constant": true,
      "inputs": [
        {
          "name": "",
          "type": "uint256"
        }
      ],
      "name": "pendingTransactions_2",
      "outputs": [
        {
          "name": "amount",
          "type": "uint256"
        },
        {
          "name": "split",
          "type": "bool"
        },
        {
          "name": "creator",
          "type": "address"
        },
        {
          "name": "confirmer",
          "type": "address"
        },
        {
          "name": "debtor",
          "type": "address"
        },
        {
          "name": "description",
          "type": "string"
        },
        {
          "name": "index",
          "type": "uint256"
        },
        {
          "name": "timestamp",
          "type": "uint256"
        }
      ],
      "payable": false,
      "stateMutability": "view",
      "type": "function"
    },
    {
      "constant": true,
      "inputs": [
        {
          "name": "",
          "type": "uint256"
        }
      ],
      "name": "confirmedTransactions",
      "outputs": [
        {
          "name": "amount",
          "type": "uint256"
        },
        {
          "name": "split",
          "type": "bool"
        },
        {
          "name": "creator",
          "type": "address"
        },
        {
          "name": "confirmer",
          "type": "address"
        },
        {
          "name": "debtor",
          "type": "address"
        },
        {
          "name": "description",
          "type": "string"
        },
        {
          "name": "index",
          "type": "uint256"
        },
        {
          "name": "timestamp",
          "type": "uint256"
        }
      ],
      "payable": false,
      "stateMutability": "view",
      "type": "function"
    },
    {
      "constant": true,
      "inputs": [],
      "name": "balance",
      "outputs": [
        {
          "name": "",
          "type": "int256"
        }
      ],
      "payable": false,
      "stateMutability": "view",
      "type": "function"
    },
    {
      "constant": true,
      "inputs": [
        {
          "name": "",
          "type": "uint256"
        }
      ],
      "name": "pendingTransactions_1",
      "outputs": [
        {
          "name": "amount",
          "type": "uint256"
        },
        {
          "name": "split",
          "type": "bool"
        },
        {
          "name": "creator",
          "type": "address"
        },
        {
          "name": "confirmer",
          "type": "address"
        },
        {
          "name": "debtor",
          "type": "address"
        },
        {
          "name": "description",
          "type": "string"
        },
        {
          "name": "index",
          "type": "uint256"
        },
        {
          "name": "timestamp",
          "type": "uint256"
        }
      ],
      "payable": false,
      "stateMutability": "view",
      "type": "function"
    },
    {
      "constant": true,
      "inputs": [],
      "name": "pendingTxs2Length",
      "outputs": [
        {
          "name": "",
          "type": "uint256"
        }
      ],
      "payable": false,
      "stateMutability": "view",
      "type": "function"
    },
    {
      "constant": true,
      "inputs": [],
      "name": "user_1",
      "outputs": [
        {
          "name": "",
          "type": "address"
        }
      ],
      "payable": false,
      "stateMutability": "view",
      "type": "function"
    },
    {
      "constant": true,
      "inputs": [],
      "name": "user_2",
      "outputs": [
        {
          "name": "",
          "type": "address"
        }
      ],
      "payable": false,
      "stateMutability": "view",
      "type": "function"
    },
    {
      "inputs": [],
      "payable": false,
      "stateMutability": "nonpayable",
      "type": "constructor"
    },
    {
      "constant": false,
      "inputs": [
        {
          "name": "_friend",
          "type": "address"
        }
      ],
      "name": "inviteFriend",
      "outputs": [],
      "payable": false,
      "stateMutability": "nonpayable",
      "type": "function"
    },
    {
      "constant": false,
      "inputs": [],
      "name": "registerUser2",
      "outputs": [],
      "payable": false,
      "stateMutability": "nonpayable",
      "type": "function"
    },
    {
      "constant": false,
      "inputs": [
        {
          "name": "_amount",
          "type": "uint256"
        },
        {
          "name": "_split",
          "type": "bool"
        },
        {
          "name": "_debtor",
          "type": "address"
        },
        {
          "name": "_description",
          "type": "string"
        }
      ],
      "name": "createPending",
      "outputs": [],
      "payable": false,
      "stateMutability": "nonpayable",
      "type": "function"
    },
    {
      "constant": false,
      "inputs": [],
      "name": "confirmAll",
      "outputs": [],
      "payable": false,
      "stateMutability": "nonpayable",
      "type": "function"
    },
    {
      "constant": false,
      "inputs": [
        {
          "name": "_txIndex",
          "type": "uint256"
        }
      ],
      "name": "confirmSingleTx",
      "outputs": [],
      "payable": false,
      "stateMutability": "nonpayable",
      "type": "function"
    },
    {
      "constant": true,
      "inputs": [],
      "name": "balanceHealthCheck",
      "outputs": [
        {
          "name": "_testBal",
          "type": "int256"
        },
        {
          "name": "_bal",
          "type": "int256"
        },
        {
          "name": "",
          "type": "bool"
        }
      ],
      "payable": false,
      "stateMutability": "view",
      "type": "function"
    }
  ],
  "bytecode": "0x608060405234801561001057600080fd5b50336000806101000a81548173ffffffffffffffffffffffffffffffffffffffff021916908373ffffffffffffffffffffffffffffffffffffffff16021790555061342a806100606000396000f3006080604052600436106100f1576000357c0100000000000000000000000000000000000000000000000000000000900463ffffffff168063046d9fa0146100f65780630e13ff7614610133578063218b0e98146101605780634044db5c1461018b57806361655562146101b657806370b63759146101cd57806374f079b81461022457806389aded411461024f57806397abe18614610266578063993d7c2d146103c5578063b69ef8a814610524578063b86ff9b31461054f578063bd7c5351146106ae578063be7493b3146106f1578063c9f85b751461071c578063f1e96c27146107bb578063fd7a567c14610812575b600080fd5b34801561010257600080fd5b5061010b610869565b6040518084815260200183815260200182151515158152602001935050505060405180910390f35b34801561013f57600080fd5b5061015e60048036038101908080359060200190929190505050610c02565b005b34801561016c57600080fd5b506101756115a6565b6040518082815260200191505060405180910390f35b34801561019757600080fd5b506101a06115ac565b6040518082815260200191505060405180910390f35b3480156101c257600080fd5b506101cb6115b2565b005b3480156101d957600080fd5b506101e2611c3e565b604051808273ffffffffffffffffffffffffffffffffffffffff1673ffffffffffffffffffffffffffffffffffffffff16815260200191505060405180910390f35b34801561023057600080fd5b50610239611c64565b6040518082815260200191505060405180910390f35b34801561025b57600080fd5b50610264611c6a565b005b34801561027257600080fd5b5061029160048036038101908080359060200190929190505050611e38565b60405180898152602001881515151581526020018773ffffffffffffffffffffffffffffffffffffffff1673ffffffffffffffffffffffffffffffffffffffff1681526020018673ffffffffffffffffffffffffffffffffffffffff1673ffffffffffffffffffffffffffffffffffffffff1681526020018573ffffffffffffffffffffffffffffffffffffffff1673ffffffffffffffffffffffffffffffffffffffff16815260200180602001848152602001838152602001828103825285818151815260200191508051906020019080838360005b83811015610383578082015181840152602081019050610368565b50505050905090810190601f1680156103b05780820380516001836020036101000a031916815260200191505b50995050505050505050505060405180910390f35b3480156103d157600080fd5b506103f060048036038101908080359060200190929190505050611f94565b60405180898152602001881515151581526020018773ffffffffffffffffffffffffffffffffffffffff1673ffffffffffffffffffffffffffffffffffffffff1681526020018673ffffffffffffffffffffffffffffffffffffffff1673ffffffffffffffffffffffffffffffffffffffff1681526020018573ffffffffffffffffffffffffffffffffffffffff1673ffffffffffffffffffffffffffffffffffffffff16815260200180602001848152602001838152602001828103825285818151815260200191508051906020019080838360005b838110156104e25780820151818401526020810190506104c7565b50505050905090810190601f16801561050f5780820380516001836020036101000a031916815260200191505b50995050505050505050505060405180910390f35b34801561053057600080fd5b506105396120f0565b6040518082815260200191505060405180910390f35b34801561055b57600080fd5b5061057a600480360381019080803590602001909291905050506120f6565b60405180898152602001881515151581526020018773ffffffffffffffffffffffffffffffffffffffff1673ffffffffffffffffffffffffffffffffffffffff1681526020018673ffffffffffffffffffffffffffffffffffffffff1673ffffffffffffffffffffffffffffffffffffffff1681526020018573ffffffffffffffffffffffffffffffffffffffff1673ffffffffffffffffffffffffffffffffffffffff16815260200180602001848152602001838152602001828103825285818151815260200191508051906020019080838360005b8381101561066c578082015181840152602081019050610651565b50505050905090810190601f1680156106995780820380516001836020036101000a031916815260200191505b50995050505050505050505060405180910390f35b3480156106ba57600080fd5b506106ef600480360381019080803573ffffffffffffffffffffffffffffffffffffffff169060200190929190505050612252565b005b3480156106fd57600080fd5b50610706612420565b6040518082815260200191505060405180910390f35b34801561072857600080fd5b506107b960048036038101908080359060200190929190803515159060200190929190803573ffffffffffffffffffffffffffffffffffffffff169060200190929190803590602001908201803590602001908080601f0160208091040260200160405190810160405280939291908181526020018383808284378201915050505050509192919290505050612426565b005b3480156107c757600080fd5b506107d0612ca1565b604051808273ffffffffffffffffffffffffffffffffffffffff1673ffffffffffffffffffffffffffffffffffffffff16815260200191505060405180910390f35b34801561081e57600080fd5b50610827612cc6565b604051808273ffffffffffffffffffffffffffffffffffffffff1673ffffffffffffffffffffffffffffffffffffffff16815260200191505060405180910390f35b60008060008060008060009054906101000a900473ffffffffffffffffffffffffffffffffffffffff1673ffffffffffffffffffffffffffffffffffffffff163373ffffffffffffffffffffffffffffffffffffffff1614806109195750600260009054906101000a900473ffffffffffffffffffffffffffffffffffffffff1673ffffffffffffffffffffffffffffffffffffffff163373ffffffffffffffffffffffffffffffffffffffff16145b151561098d576040517f08c379a00000000000000000000000000000000000000000000000000000000081526004018080602001828103825260198152602001807f4d7573742062652061207265676973746572656420757365720000000000000081525060200191505060405180910390fd5b60009150600090505b600a80549050811015610bc357610bb2600a828154811015156109b557fe5b90600052602060002090600702016101006040519081016040529081600082015481526020016001820160009054906101000a900460ff161515151581526020016001820160019054906101000a900473ffffffffffffffffffffffffffffffffffffffff1673ffffffffffffffffffffffffffffffffffffffff1673ffffffffffffffffffffffffffffffffffffffff1681526020016002820160009054906101000a900473ffffffffffffffffffffffffffffffffffffffff1673ffffffffffffffffffffffffffffffffffffffff1673ffffffffffffffffffffffffffffffffffffffff1681526020016003820160009054906101000a900473ffffffffffffffffffffffffffffffffffffffff1673ffffffffffffffffffffffffffffffffffffffff1673ffffffffffffffffffffffffffffffffffffffff168152602001600482018054600181600116156101000203166002900480601f016020809104026020016040519081016040528092919081815260200182805460018160011615610100020316600290048015610b905780601f10610b6557610100808354040283529160200191610b90565b820191906000526020600020905b815481529060010190602001808311610b7357829003601f168201915b5050505050815260200160058201548152602001600682015481525050612cec565b820191508080600101915050610996565b60035482141515610bdf57816003546000945094509450610bfb565b600354821415610bfa57816003546001945094509450610bfb565b5b5050909192565b600080610c0d6130fe565b6000809054906101000a900473ffffffffffffffffffffffffffffffffffffffff1673ffffffffffffffffffffffffffffffffffffffff163373ffffffffffffffffffffffffffffffffffffffff161480610cb55750600260009054906101000a900473ffffffffffffffffffffffffffffffffffffffff1673ffffffffffffffffffffffffffffffffffffffff163373ffffffffffffffffffffffffffffffffffffffff16145b1515610d29576040517f08c379a00000000000000000000000000000000000000000000000000000000081526004018080602001828103825260198152602001807f4d7573742062652061207265676973746572656420757365720000000000000081525060200191505060405180910390fd5b600073ffffffffffffffffffffffffffffffffffffffff166000809054906101000a900473ffffffffffffffffffffffffffffffffffffffff1673ffffffffffffffffffffffffffffffffffffffff1614158015610dd65750600073ffffffffffffffffffffffffffffffffffffffff16600260009054906101000a900473ffffffffffffffffffffffffffffffffffffffff1673ffffffffffffffffffffffffffffffffffffffff1614155b1515610e4a576040517f08c379a000000000000000000000000000000000000000000000000000000000815260040180806020018281038252601c8152602001807f54776f207573657273206d75737420626520726567697374657265640000000081525060200191505060405180910390fd5b610e5333612de7565b9250828054905091508284815481101515610e6a57fe5b90600052602060002090600702016101006040519081016040529081600082015481526020016001820160009054906101000a900460ff161515151581526020016001820160019054906101000a900473ffffffffffffffffffffffffffffffffffffffff1673ffffffffffffffffffffffffffffffffffffffff1673ffffffffffffffffffffffffffffffffffffffff1681526020016002820160009054906101000a900473ffffffffffffffffffffffffffffffffffffffff1673ffffffffffffffffffffffffffffffffffffffff1673ffffffffffffffffffffffffffffffffffffffff1681526020016003820160009054906101000a900473ffffffffffffffffffffffffffffffffffffffff1673ffffffffffffffffffffffffffffffffffffffff1673ffffffffffffffffffffffffffffffffffffffff168152602001600482018054600181600116156101000203166002900480601f0160208091040260200160405190810160405280929190818152602001828054600181600116156101000203166002900480156110455780601f1061101a57610100808354040283529160200191611045565b820191906000526020600020905b81548152906001019060200180831161102857829003601f168201915b50505050508152602001600582015481526020016006820154815250509050828481548110151561107257fe5b90600052602060002090600702016000808201600090556001820160006101000a81549060ff02191690556001820160016101000a81549073ffffffffffffffffffffffffffffffffffffffff02191690556002820160006101000a81549073ffffffffffffffffffffffffffffffffffffffff02191690556003820160006101000a81549073ffffffffffffffffffffffffffffffffffffffff02191690556004820160006111229190613188565b600582016000905560068201600090555050826001830381548110151561114557fe5b9060005260206000209060070201838581548110151561116157fe5b9060005260206000209060070201600082015481600001556001820160009054906101000a900460ff168160010160006101000a81548160ff0219169083151502179055506001820160019054906101000a900473ffffffffffffffffffffffffffffffffffffffff168160010160016101000a81548173ffffffffffffffffffffffffffffffffffffffff021916908373ffffffffffffffffffffffffffffffffffffffff1602179055506002820160009054906101000a900473ffffffffffffffffffffffffffffffffffffffff168160020160006101000a81548173ffffffffffffffffffffffffffffffffffffffff021916908373ffffffffffffffffffffffffffffffffffffffff1602179055506003820160009054906101000a900473ffffffffffffffffffffffffffffffffffffffff168160030160006101000a81548173ffffffffffffffffffffffffffffffffffffffff021916908373ffffffffffffffffffffffffffffffffffffffff160217905550600482018160040190805460018160011615610100020316600290046113029291906131d0565b506005820154816005015560068201548160060155905050826001830381548110151561132b57fe5b90600052602060002090600702016000808201600090556001820160006101000a81549060ff02191690556001820160016101000a81549073ffffffffffffffffffffffffffffffffffffffff02191690556002820160006101000a81549073ffffffffffffffffffffffffffffffffffffffff02191690556003820160006101000a81549073ffffffffffffffffffffffffffffffffffffffff02191690556004820160006113db9190613188565b600582016000905560068201600090555050828054809190600190036114019190613257565b50600a81908060018154018082558091505090600182039060005260206000209060070201600090919290919091506000820151816000015560208201518160010160006101000a81548160ff02191690831515021790555060408201518160010160016101000a81548173ffffffffffffffffffffffffffffffffffffffff021916908373ffffffffffffffffffffffffffffffffffffffff16021790555060608201518160020160006101000a81548173ffffffffffffffffffffffffffffffffffffffff021916908373ffffffffffffffffffffffffffffffffffffffff16021790555060808201518160030160006101000a81548173ffffffffffffffffffffffffffffffffffffffff021916908373ffffffffffffffffffffffffffffffffffffffff16021790555060a082015181600401908051906020019061154b929190613289565b5060c0820151816005015560e0820151816006015550505061156b612ead565b600581905550611579612eba565b600681905550611587612ec7565b60078190555061159681612cec565b6003540160038190555050505050565b60075481565b60055481565b600060606000806000809054906101000a900473ffffffffffffffffffffffffffffffffffffffff1673ffffffffffffffffffffffffffffffffffffffff163373ffffffffffffffffffffffffffffffffffffffff1614806116615750600260009054906101000a900473ffffffffffffffffffffffffffffffffffffffff1673ffffffffffffffffffffffffffffffffffffffff163373ffffffffffffffffffffffffffffffffffffffff16145b15156116d5576040517f08c379a00000000000000000000000000000000000000000000000000000000081526004018080602001828103825260198152602001807f4d7573742062652061207265676973746572656420757365720000000000000081525060200191505060405180910390fd5b600073ffffffffffffffffffffffffffffffffffffffff166000809054906101000a900473ffffffffffffffffffffffffffffffffffffffff1673ffffffffffffffffffffffffffffffffffffffff16141580156117825750600073ffffffffffffffffffffffffffffffffffffffff16600260009054906101000a900473ffffffffffffffffffffffffffffffffffffffff1673ffffffffffffffffffffffffffffffffffffffff1614155b15156117f6576040517f08c379a000000000000000000000000000000000000000000000000000000000815260040180806020018281038252601c8152602001807f54776f207573657273206d75737420626520726567697374657265640000000081525060200191505060405180910390fd5b6117ff33612de7565b935083805480602002602001604051908101604052809291908181526020016000905b82821015611a3357838290600052602060002090600702016101006040519081016040529081600082015481526020016001820160009054906101000a900460ff161515151581526020016001820160019054906101000a900473ffffffffffffffffffffffffffffffffffffffff1673ffffffffffffffffffffffffffffffffffffffff1673ffffffffffffffffffffffffffffffffffffffff1681526020016002820160009054906101000a900473ffffffffffffffffffffffffffffffffffffffff1673ffffffffffffffffffffffffffffffffffffffff1673ffffffffffffffffffffffffffffffffffffffff1681526020016003820160009054906101000a900473ffffffffffffffffffffffffffffffffffffffff1673ffffffffffffffffffffffffffffffffffffffff1673ffffffffffffffffffffffffffffffffffffffff168152602001600482018054600181600116156101000203166002900480601f016020809104026020016040519081016040528092919081815260200182805460018160011615610100020316600290048015611a075780601f106119dc57610100808354040283529160200191611a07565b820191906000526020600020905b8154815290600101906020018083116119ea57829003601f168201915b505050505081526020016005820154815260200160068201548152505081526020019060010190611822565b50505050925060008481611a479190613257565b50611a50612ead565b600581905550611a5e612eba565b60068190555060009150600090505b8251811015611c1f57600a8382815181101515611a8657fe5b90602001906020020151908060018154018082558091505090600182039060005260206000209060070201600090919290919091506000820151816000015560208201518160010160006101000a81548160ff02191690831515021790555060408201518160010160016101000a81548173ffffffffffffffffffffffffffffffffffffffff021916908373ffffffffffffffffffffffffffffffffffffffff16021790555060608201518160020160006101000a81548173ffffffffffffffffffffffffffffffffffffffff021916908373ffffffffffffffffffffffffffffffffffffffff16021790555060808201518160030160006101000a81548173ffffffffffffffffffffffffffffffffffffffff021916908373ffffffffffffffffffffffffffffffffffffffff16021790555060a0820151816004019080519060200190611bd6929190613289565b5060c0820151816005015560e08201518160060155505050611c0e8382815181101515611bff57fe5b90602001906020020151612cec565b820191508080600101915050611a6d565b611c27612ec7565b600781905550816003540160038190555050505050565b600160009054906101000a900473ffffffffffffffffffffffffffffffffffffffff1681565b60045481565b600160009054906101000a900473ffffffffffffffffffffffffffffffffffffffff1673ffffffffffffffffffffffffffffffffffffffff163373ffffffffffffffffffffffffffffffffffffffff16141515611d2f576040517f08c379a000000000000000000000000000000000000000000000000000000000815260040180806020018281038252601a8152602001807f4d7573742062652074686520696e766974656420667269656e6400000000000081525060200191505060405180910390fd5b600073ffffffffffffffffffffffffffffffffffffffff16600260009054906101000a900473ffffffffffffffffffffffffffffffffffffffff1673ffffffffffffffffffffffffffffffffffffffff16141515611df5576040517f08c379a00000000000000000000000000000000000000000000000000000000081526004018080602001828103825260198152602001807f55736572203220616c726561647920726567697374657265640000000000000081525060200191505060405180910390fd5b33600260006101000a81548173ffffffffffffffffffffffffffffffffffffffff021916908373ffffffffffffffffffffffffffffffffffffffff160217905550565b600981815481101515611e4757fe5b90600052602060002090600702016000915090508060000154908060010160009054906101000a900460ff16908060010160019054906101000a900473ffffffffffffffffffffffffffffffffffffffff16908060020160009054906101000a900473ffffffffffffffffffffffffffffffffffffffff16908060030160009054906101000a900473ffffffffffffffffffffffffffffffffffffffff1690806004018054600181600116156101000203166002900480601f016020809104026020016040519081016040528092919081815260200182805460018160011615610100020316600290048015611f7e5780601f10611f5357610100808354040283529160200191611f7e565b820191906000526020600020905b815481529060010190602001808311611f6157829003601f168201915b5050505050908060050154908060060154905088565b600a81815481101515611fa357fe5b90600052602060002090600702016000915090508060000154908060010160009054906101000a900460ff16908060010160019054906101000a900473ffffffffffffffffffffffffffffffffffffffff16908060020160009054906101000a900473ffffffffffffffffffffffffffffffffffffffff16908060030160009054906101000a900473ffffffffffffffffffffffffffffffffffffffff1690806004018054600181600116156101000203166002900480601f0160208091040260200160405190810160405280929190818152602001828054600181600116156101000203166002900480156120da5780601f106120af576101008083540402835291602001916120da565b820191906000526020600020905b8154815290600101906020018083116120bd57829003601f168201915b5050505050908060050154908060060154905088565b60035481565b60088181548110151561210557fe5b90600052602060002090600702016000915090508060000154908060010160009054906101000a900460ff16908060010160019054906101000a900473ffffffffffffffffffffffffffffffffffffffff16908060020160009054906101000a900473ffffffffffffffffffffffffffffffffffffffff16908060030160009054906101000a900473ffffffffffffffffffffffffffffffffffffffff1690806004018054600181600116156101000203166002900480601f01602080910402602001604051908101604052809291908181526020018280546001816001161561010002031660029004801561223c5780601f106122115761010080835404028352916020019161223c565b820191906000526020600020905b81548152906001019060200180831161221f57829003601f168201915b5050505050908060050154908060060154905088565b6000809054906101000a900473ffffffffffffffffffffffffffffffffffffffff1673ffffffffffffffffffffffffffffffffffffffff163373ffffffffffffffffffffffffffffffffffffffff16141515612316576040517f08c379a00000000000000000000000000000000000000000000000000000000081526004018080602001828103825260198152602001807f4d7573742062652072656769737465726564207573657220310000000000000081525060200191505060405180910390fd5b600073ffffffffffffffffffffffffffffffffffffffff16600260009054906101000a900473ffffffffffffffffffffffffffffffffffffffff1673ffffffffffffffffffffffffffffffffffffffff161415156123dc576040517f08c379a00000000000000000000000000000000000000000000000000000000081526004018080602001828103825260198152602001807f55736572203220616c726561647920726567697374657265640000000000000081525060200191505060405180910390fd5b80600160006101000a81548173ffffffffffffffffffffffffffffffffffffffff021916908373ffffffffffffffffffffffffffffffffffffffff16021790555050565b60065481565b61242e6130fe565b60008060009054906101000a900473ffffffffffffffffffffffffffffffffffffffff1673ffffffffffffffffffffffffffffffffffffffff163373ffffffffffffffffffffffffffffffffffffffff1614806124d85750600260009054906101000a900473ffffffffffffffffffffffffffffffffffffffff1673ffffffffffffffffffffffffffffffffffffffff163373ffffffffffffffffffffffffffffffffffffffff16145b151561254c576040517f08c379a00000000000000000000000000000000000000000000000000000000081526004018080602001828103825260198152602001807f4d7573742062652061207265676973746572656420757365720000000000000081525060200191505060405180910390fd5b600073ffffffffffffffffffffffffffffffffffffffff166000809054906101000a900473ffffffffffffffffffffffffffffffffffffffff1673ffffffffffffffffffffffffffffffffffffffff16141580156125f95750600073ffffffffffffffffffffffffffffffffffffffff16600260009054906101000a900473ffffffffffffffffffffffffffffffffffffffff1673ffffffffffffffffffffffffffffffffffffffff1614155b151561266d576040517f08c379a000000000000000000000000000000000000000000000000000000000815260040180806020018281038252601c8152602001807f54776f207573657273206d75737420626520726567697374657265640000000081525060200191505060405180910390fd5b6000809054906101000a900473ffffffffffffffffffffffffffffffffffffffff1673ffffffffffffffffffffffffffffffffffffffff168473ffffffffffffffffffffffffffffffffffffffff1614806127155750600260009054906101000a900473ffffffffffffffffffffffffffffffffffffffff1673ffffffffffffffffffffffffffffffffffffffff168473ffffffffffffffffffffffffffffffffffffffff16145b1515612789576040517f08c379a00000000000000000000000000000000000000000000000000000000081526004018080602001828103825260208152602001807f646562746f72206d75737420626520612072656769737465726564207573657281525060200191505060405180910390fd5b60238351101515612802576040517f08c379a00000000000000000000000000000000000000000000000000000000081526004018080602001828103825260148152602001807f4465736372697074696f6e20746f6f206c6f6e6700000000000000000000000081525060200191505060405180910390fd5b61280b33612ed4565b826060019073ffffffffffffffffffffffffffffffffffffffff16908173ffffffffffffffffffffffffffffffffffffffff168152505061284a6130f6565b9050858260000181815250508482602001901515908115158152505033826040019073ffffffffffffffffffffffffffffffffffffffff16908173ffffffffffffffffffffffffffffffffffffffff168152505083826080019073ffffffffffffffffffffffffffffffffffffffff16908173ffffffffffffffffffffffffffffffffffffffff1681525050828260a001819052506004548260c0018181525050808260e00181815250506000809054906101000a900473ffffffffffffffffffffffffffffffffffffffff1673ffffffffffffffffffffffffffffffffffffffff16826060015173ffffffffffffffffffffffffffffffffffffffff161415612ac257600882908060018154018082558091505090600182039060005260206000209060070201600090919290919091506000820151816000015560208201518160010160006101000a81548160ff02191690831515021790555060408201518160010160016101000a81548173ffffffffffffffffffffffffffffffffffffffff021916908373ffffffffffffffffffffffffffffffffffffffff16021790555060608201518160020160006101000a81548173ffffffffffffffffffffffffffffffffffffffff021916908373ffffffffffffffffffffffffffffffffffffffff16021790555060808201518160030160006101000a81548173ffffffffffffffffffffffffffffffffffffffff021916908373ffffffffffffffffffffffffffffffffffffffff16021790555060a0820151816004019080519060200190612a97929190613289565b5060c0820151816005015560e08201518160060155505050612ab7612ead565b600581905550612c8d565b600260009054906101000a900473ffffffffffffffffffffffffffffffffffffffff1673ffffffffffffffffffffffffffffffffffffffff16826060015173ffffffffffffffffffffffffffffffffffffffff161415612c8c57600982908060018154018082558091505090600182039060005260206000209060070201600090919290919091506000820151816000015560208201518160010160006101000a81548160ff02191690831515021790555060408201518160010160016101000a81548173ffffffffffffffffffffffffffffffffffffffff021916908373ffffffffffffffffffffffffffffffffffffffff16021790555060608201518160020160006101000a81548173ffffffffffffffffffffffffffffffffffffffff021916908373ffffffffffffffffffffffffffffffffffffffff16021790555060808201518160030160006101000a81548173ffffffffffffffffffffffffffffffffffffffff021916908373ffffffffffffffffffffffffffffffffffffffff16021790555060a0820151816004019080519060200190612c65929190613289565b5060c0820151816005015560e08201518160060155505050612c85612eba565b6006819055505b5b600160045401600481905550505050505050565b6000809054906101000a900473ffffffffffffffffffffffffffffffffffffffff1681565b600260009054906101000a900473ffffffffffffffffffffffffffffffffffffffff1681565b6000806000905060011515836020015115151415612d0c57809150612de1565b6000809054906101000a900473ffffffffffffffffffffffffffffffffffffffff1673ffffffffffffffffffffffffffffffffffffffff16836080015173ffffffffffffffffffffffffffffffffffffffff161415612d775782600001516000039050809150612de1565b600260009054906101000a900473ffffffffffffffffffffffffffffffffffffffff1673ffffffffffffffffffffffffffffffffffffffff16836080015173ffffffffffffffffffffffffffffffffffffffff161415612de05782600001519050809150612de1565b5b50919050565b6000806000809054906101000a900473ffffffffffffffffffffffffffffffffffffffff1673ffffffffffffffffffffffffffffffffffffffff168373ffffffffffffffffffffffffffffffffffffffff161415612e485760089050612ea4565b600260009054906101000a900473ffffffffffffffffffffffffffffffffffffffff1673ffffffffffffffffffffffffffffffffffffffff168373ffffffffffffffffffffffffffffffffffffffff161415612ea357600990505b5b80915050919050565b6000600880549050905090565b6000600980549050905090565b6000600a80549050905090565b60008060009054906101000a900473ffffffffffffffffffffffffffffffffffffffff1673ffffffffffffffffffffffffffffffffffffffff168273ffffffffffffffffffffffffffffffffffffffff161480612f7e5750600260009054906101000a900473ffffffffffffffffffffffffffffffffffffffff1673ffffffffffffffffffffffffffffffffffffffff168273ffffffffffffffffffffffffffffffffffffffff16145b1515612ff2576040517f08c379a00000000000000000000000000000000000000000000000000000000081526004018080602001828103825260178152602001807f75736572206d757374206265207265676973746572656400000000000000000081525060200191505060405180910390fd5b6000809054906101000a900473ffffffffffffffffffffffffffffffffffffffff1673ffffffffffffffffffffffffffffffffffffffff168273ffffffffffffffffffffffffffffffffffffffff16141561307157600260009054906101000a900473ffffffffffffffffffffffffffffffffffffffff1690506130f1565b600260009054906101000a900473ffffffffffffffffffffffffffffffffffffffff1673ffffffffffffffffffffffffffffffffffffffff168273ffffffffffffffffffffffffffffffffffffffff1614156130f0576000809054906101000a900473ffffffffffffffffffffffffffffffffffffffff1690506130f1565b5b919050565b600042905090565b6101006040519081016040528060008152602001600015158152602001600073ffffffffffffffffffffffffffffffffffffffff168152602001600073ffffffffffffffffffffffffffffffffffffffff168152602001600073ffffffffffffffffffffffffffffffffffffffff1681526020016060815260200160008152602001600081525090565b50805460018160011615610100020316600290046000825580601f106131ae57506131cd565b601f0160209004906000526020600020908101906131cc9190613309565b5b50565b828054600181600116156101000203166002900490600052602060002090601f016020900481019282601f106132095780548555613246565b8280016001018555821561324657600052602060002091601f016020900482015b8281111561324557825482559160010191906001019061322a565b5b5090506132539190613309565b5090565b81548183558181111561328457600702816007028360005260206000209182019101613283919061332e565b5b505050565b828054600181600116156101000203166002900490600052602060002090601f016020900481019282601f106132ca57805160ff19168380011785556132f8565b828001600101855582156132f8579182015b828111156132f75782518255916020019190600101906132dc565b5b5090506133059190613309565b5090565b61332b91905b8082111561332757600081600090555060010161330f565b5090565b90565b6133fb91905b808211156133f7576000808201600090556001820160006101000a81549060ff02191690556001820160016101000a81549073ffffffffffffffffffffffffffffffffffffffff02191690556002820160006101000a81549073ffffffffffffffffffffffffffffffffffffffff02191690556003820160006101000a81549073ffffffffffffffffffffffffffffffffffffffff02191690556004820160006133de9190613188565b6005820160009055600682016000905550600701613334565b5090565b905600a165627a7a72305820fe7cd5a8fcc62e5bb4b249460d292c2b7917e033aea169dd302a04a03bd0ba800029",
  "source": "pragma solidity ^0.4.24;\r\n\r\n// TODO sort out tabs lol\r\n\r\ncontract Agreement {\r\n  address public user_1;\r\n  address public invited_friend;\r\n  address public user_2;\r\n\r\n  int public balance;  // the net balance of who owes who.  Positive if user_2 owes more, negative if user_1 owes more.\r\n\r\n  uint public txCounter; // counts the number of purchases created.\r\n\r\n  // initialize uint lengths of transaction arrays. Useful because public variables have automatic getters, so we\r\n  // can easily grab array lengths for testing and healthchecks.\r\n  uint public pendingTxs1Length;\r\n  uint public pendingTxs2Length;\r\n  uint public confirmedTxsLength;\r\n\r\n  Tx[] public pendingTransactions_1;  // pending transactions to be confirmed by user 1\r\n  Tx[] public pendingTransactions_2;  // pending transactions to be confirmed by user 2\r\n  Tx[] public confirmedTransactions;  // All Transactions approved by users\r\n\r\n  // the basic transaction object\r\n  struct Tx {\r\n    uint amount;\r\n    bool split;\r\n    address creator;\r\n    address confirmer;\r\n    address debtor;\r\n    string description;\r\n    uint index;  // useful for tracking transactions, since they can move from a 'pending' array to 'confirmed' array.\r\n    uint timestamp;\r\n  }\r\n\r\n  //  ***** constructor and user registration functions *****\r\n\r\n  constructor() public {\r\n    user_1 = msg.sender;\r\n  }\r\n\r\n  function inviteFriend(address _friend) onlyUser1 onlyUser2NotRegistered public {\r\n    invited_friend = _friend;\r\n  }\r\n\r\n  function registerUser2() onlyInvitedFriend onlyUser2NotRegistered public {\r\n    user_2 = msg.sender;\r\n  }\r\n\r\n  // ****** Functions for creating and confirming transactions\r\n\r\n  function createPending(uint _amount, bool _split, address _debtor, string _description) onlyUser onlyBothRegistered public {\r\n    require( _debtor == user_1 || _debtor == user_2, 'debtor must be a registered user' );\r\n    require( bytes(_description).length < 35, 'Description too long' );   // string length isn't always *exactly* bytes length - but this nevertheless enforces a short description.\r\n\r\n    // create new pending tx\r\n    Tx memory newPendingTx;\r\n\r\n    // set the other user as confirmer\r\n    newPendingTx.confirmer = getOtherUser(msg.sender);\r\n\r\n    uint timeNow = timeStamp();\r\n\r\n    // set remaining attributes\r\n    newPendingTx.amount = _amount;\r\n    newPendingTx.split = _split;\r\n    newPendingTx.creator = msg.sender;\r\n    newPendingTx.debtor = _debtor;\r\n    newPendingTx.description = _description;\r\n    newPendingTx.index = txCounter;\r\n    newPendingTx.timestamp = timeNow;\r\n\r\n    // append new tx to the confirmer's pending tx array, and updated it's length\r\n    if (newPendingTx.confirmer == user_1) {\r\n      pendingTransactions_1.push(newPendingTx);\r\n      pendingTxs1Length = getPendingTxsLength1();\r\n\r\n    } else if (newPendingTx.confirmer == user_2) {\r\n      pendingTransactions_2.push(newPendingTx);\r\n      pendingTxs2Length = getPendingTxsLength2();\r\n    }\r\n\r\n    txCounter = txCounter + 1;  // update tx counter\r\n  }\r\n\r\n  function confirmAll() onlyUser onlyBothRegistered public {\r\n        Tx[] storage allPendingTx = getPendingTx(msg.sender);\r\n\r\n        Tx[] memory memAllPendingTx = allPendingTx;  // copy pending txs to memory\r\n\r\n        allPendingTx.length = 0; // delete all elements in pending tx array\r\n        pendingTxs1Length = getPendingTxsLength1();  //update stored lengths of pending tx arrays\r\n        pendingTxs2Length = getPendingTxsLength2();\r\n        int balanceChange  = 0;\r\n\r\n        for (uint i = 0; i < memAllPendingTx.length; i++) {\r\n            confirmedTransactions.push(memAllPendingTx[i]);  // add Tx to confirmed array\r\n            balanceChange = balanceChange + changeInBalance(memAllPendingTx[i]); // add the transaction amount to the balance change */\r\n        }\r\n        confirmedTxsLength = getConfirmedTxsLength();\r\n        balance = balance + balanceChange;  // update the balance in storage\r\n    }\r\n\r\n    function confirmSingleTx(uint _txIndex) onlyUser onlyBothRegistered public {\r\n        Tx[] storage allPendingTx = getPendingTx(msg.sender);\r\n\r\n        uint len = allPendingTx.length;\r\n        Tx memory transaction = allPendingTx[_txIndex];  // copy tx to memory\r\n\r\n        // delete transaction fron pendingTx. This approach preserves array length, but not order\r\n        delete allPendingTx[_txIndex];\r\n        allPendingTx[_txIndex] = allPendingTx[len - 1];   // copy last element to empty slot\r\n        delete allPendingTx[len - 1];   // delete last element\r\n        allPendingTx.length--;  // decrement size of array by 1\r\n\r\n        // append Tx to confirmed transactions\r\n        confirmedTransactions.push(transaction);\r\n\r\n        //update stored lengths\r\n        pendingTxs1Length = getPendingTxsLength1();\r\n        pendingTxs2Length = getPendingTxsLength2();\r\n        confirmedTxsLength = getConfirmedTxsLength();\r\n\r\n        balance = balance + changeInBalance(transaction);\r\n    }\r\n\r\n    function balanceHealthCheck () onlyUser public view returns (int _testBal, int _bal, bool) {\r\n        // calculates balance from total confirmed tx history.  Checks == to running balance.\r\n\r\n        int testBalance = 0;\r\n        for (uint i = 0; i < confirmedTransactions.length; i++) {\r\n            testBalance = testBalance + changeInBalance(confirmedTransactions[i]);\r\n        }\r\n\r\n        if (testBalance != balance) {\r\n            return(testBalance, balance, false);\r\n        } else if (testBalance == balance) {\r\n            return(testBalance, balance, true);\r\n        }\r\n    }\r\n\r\n  // ***** Helper and getter functions *****\r\n  function changeInBalance(Tx _purchase) private view returns (int _change) {\r\n        // returns the change to a balance caused by a purchase\r\n        int change = 0;\r\n        if (_purchase.split == true) {\r\n        return change;  // no overall change to balance when an expense is split\r\n        } else if (_purchase.debtor == user_1) {\r\n            change = -int(_purchase.amount);\r\n            return change;\r\n        } else if (_purchase.debtor == user_2) {\r\n            change = int(_purchase.amount);\r\n            return change;\r\n        }\r\n    }\r\n\r\n  function getPendingTx( address _user) private view returns (Tx[] storage){\r\n        // return the user's pending transactions list\r\n        Tx[] storage allPendingTx;\r\n        if (_user == user_1) {\r\n            allPendingTx = pendingTransactions_1;\r\n        } else if (_user == user_2) {\r\n            allPendingTx = pendingTransactions_2;\r\n        }\r\n        return allPendingTx;\r\n    }\r\n\r\n  function getOtherUser(address _user) private view returns (address) {\r\n    require(_user == user_1 || _user == user_2, 'user must be registered');\r\n    if (_user == user_1) {\r\n      return user_2;\r\n    } else if (_user == user_2) {\r\n      return user_1;\r\n    }\r\n  }\r\n\r\n  function timeStamp() private view returns (uint) {\r\n    return block.timestamp;\r\n  }\r\n\r\n// Length getters for lists of confirmed & pending txs\r\n  function getPendingTxsLength1() internal view returns(uint) {\r\n    return pendingTransactions_1.length;\r\n  }\r\n\r\n  function getPendingTxsLength2() internal view returns(uint) {\r\n    return pendingTransactions_2.length;\r\n  }\r\n\r\n  function getConfirmedTxsLength() internal view returns(uint) {\r\n    return confirmedTransactions.length;\r\n  }\r\n\r\n  /* function pendingTransactions2Length() onlyUser external view returns (uint) {\r\n    return pendingTransactions_2.length;\r\n  } */\r\n\r\n  /* function pendingTransactions1Length() onlyUser external view returns (uint) {\r\n    return pendingTransactions_1.length;\r\n  }\r\n\r\n   function confirmedTransactionsLength() onlyUser external view returns (uint) {\r\n    return confirmedTransactions.length;\r\n  } */\r\n\r\n  // ******** Modifiers *********\r\n  modifier onlyUser {\r\n    require(msg.sender == user_1 || msg.sender == user_2, 'Must be a registered user');\r\n    _;\r\n  }\r\n\r\n  modifier onlyUser1 {\r\n    require(msg.sender == user_1, 'Must be registered user 1');\r\n    _;\r\n  }\r\n\r\n  modifier onlyInvitedFriend {\r\n    require(msg.sender == invited_friend, 'Must be the invited friend');\r\n    _;\r\n  }\r\n\r\n  modifier onlyUser2NotRegistered {\r\n    require (user_2 == address(0), 'User 2 already registered');\r\n  _;\r\n  }\r\n\r\n  modifier onlyBothRegistered {\r\n    require (user_1 != address(0) && user_2 != address(0), 'Two users must be registered');\r\n    _;\r\n  }\r\n}\r\n",
  "sourcePath": "C:\\Users\\Administrator\\Desktop\\Solidity\\EtherSplit\\contracts\\Agreement.sol",
  "compiler": {
    "name": "solc",
    "version": "0.4.24+commit.e67f0147.Emscripten.clang"
  },
  "schemaVersion": "2.0.1",
  "updatedAt": "2018-11-20T21:57:57.053Z"
}