{
  "contractName": "AgreementFactory",
  "abi": [
    {
      "constant": true,
      "inputs": [],
      "name": "factoryOwner",
      "outputs": [
        {
          "name": "",
          "type": "address"
        }
      ],
      "payable": false,
      "stateMutability": "view",
      "type": "function",
      "signature": "0x4273601c"
    },
    {
      "constant": true,
      "inputs": [
        {
          "name": "",
          "type": "address"
        }
      ],
      "name": "allAgreements",
      "outputs": [
        {
          "name": "",
          "type": "bool"
        }
      ],
      "payable": false,
      "stateMutability": "view",
      "type": "function",
      "signature": "0x450fc5f5"
    },
    {
      "constant": true,
      "inputs": [
        {
          "name": "",
          "type": "address"
        },
        {
          "name": "",
          "type": "uint256"
        }
      ],
      "name": "userToAgreements",
      "outputs": [
        {
          "name": "",
          "type": "address"
        }
      ],
      "payable": false,
      "stateMutability": "view",
      "type": "function",
      "signature": "0xe018a90b"
    },
    {
      "constant": true,
      "inputs": [
        {
          "name": "",
          "type": "address"
        },
        {
          "name": "",
          "type": "uint256"
        }
      ],
      "name": "userToInvites",
      "outputs": [
        {
          "name": "",
          "type": "address"
        }
      ],
      "payable": false,
      "stateMutability": "view",
      "type": "function",
      "signature": "0xf4df1060"
    },
    {
      "inputs": [],
      "payable": false,
      "stateMutability": "nonpayable",
      "type": "constructor",
      "signature": "constructor"
    },
    {
      "anonymous": false,
      "inputs": [
        {
          "indexed": false,
          "name": "from",
          "type": "address"
        },
        {
          "indexed": false,
          "name": "agreementAddr",
          "type": "address"
        }
      ],
      "name": "AgreementCreated",
      "type": "event",
      "signature": "0x3178ea54b202e279700e6dcdc03e5e9f454ceef79b2d55705b43e47913baa297"
    },
    {
      "anonymous": false,
      "inputs": [
        {
          "indexed": false,
          "name": "agreementAddr",
          "type": "address"
        },
        {
          "indexed": false,
          "name": "inAllAgreementsList",
          "type": "bool"
        }
      ],
      "name": "AgreementAdded",
      "type": "event",
      "signature": "0x474c83e68d4e02ce5107d915a4a1918f8a7630a4f69a93afcd4203e2896519eb"
    },
    {
      "constant": false,
      "inputs": [],
      "name": "createNewAgreement",
      "outputs": [],
      "payable": false,
      "stateMutability": "nonpayable",
      "type": "function",
      "signature": "0x6d896612"
    },
    {
      "constant": true,
      "inputs": [
        {
          "name": "_user",
          "type": "address"
        }
      ],
      "name": "getUsersAgreements",
      "outputs": [
        {
          "name": "",
          "type": "address[]"
        }
      ],
      "payable": false,
      "stateMutability": "view",
      "type": "function",
      "signature": "0xf7860eed"
    },
    {
      "constant": true,
      "inputs": [],
      "name": "getMyAgreements",
      "outputs": [
        {
          "name": "",
          "type": "address[]"
        }
      ],
      "payable": false,
      "stateMutability": "view",
      "type": "function",
      "signature": "0xbae7ea95"
    },
    {
      "constant": true,
      "inputs": [],
      "name": "getMyInvites",
      "outputs": [
        {
          "name": "",
          "type": "address[]"
        }
      ],
      "payable": false,
      "stateMutability": "view",
      "type": "function",
      "signature": "0x339bf88c"
    },
    {
      "constant": false,
      "inputs": [
        {
          "name": "_user",
          "type": "address"
        }
      ],
      "name": "newRegisteredUser",
      "outputs": [],
      "payable": false,
      "stateMutability": "nonpayable",
      "type": "function",
      "signature": "0x4760404e"
    },
    {
      "constant": false,
      "inputs": [
        {
          "name": "_friend",
          "type": "address"
        }
      ],
      "name": "newInvite",
      "outputs": [],
      "payable": false,
      "stateMutability": "nonpayable",
      "type": "function",
      "signature": "0xcfe4ce89"
    },
    {
      "constant": true,
      "inputs": [],
      "name": "getMyAgreementsCount",
      "outputs": [
        {
          "name": "myAgreementsCount",
          "type": "uint256"
        }
      ],
      "payable": false,
      "stateMutability": "view",
      "type": "function",
      "signature": "0xf2f1b7bc"
    },
    {
      "constant": true,
      "inputs": [],
      "name": "getMyInvitesCount",
      "outputs": [
        {
          "name": "myAgreementsCount",
          "type": "uint256"
        }
      ],
      "payable": false,
      "stateMutability": "view",
      "type": "function",
      "signature": "0x3dcdf02a"
    },
    {
      "constant": true,
      "inputs": [
        {
          "name": "_user",
          "type": "address"
        }
      ],
      "name": "getUsersAgreementsCount",
      "outputs": [
        {
          "name": "usersAgreementsCount",
          "type": "uint256"
        }
      ],
      "payable": false,
      "stateMutability": "view",
      "type": "function",
      "signature": "0x37971d76"
    }
  ],
  "bytecode": "0x608060405234801561001057600080fd5b50336000806101000a81548173ffffffffffffffffffffffffffffffffffffffff021916908373ffffffffffffffffffffffffffffffffffffffff1602179055506158b9806100606000396000f3fe6080604052600436106100c5576000357c0100000000000000000000000000000000000000000000000000000000900463ffffffff168063339bf88c146100ca57806337971d76146101365780633dcdf02a1461019b5780634273601c146101c6578063450fc5f51461021d5780634760404e146102865780636d896612146102d7578063bae7ea95146102ee578063cfe4ce891461035a578063e018a90b146103ab578063f2f1b7bc14610446578063f4df106014610471578063f7860eed1461050c575b600080fd5b3480156100d657600080fd5b506100df6105b2565b6040518080602001828103825283818151815260200191508051906020019060200280838360005b83811015610122578082015181840152602081019050610107565b505050509050019250505060405180910390f35b34801561014257600080fd5b506101856004803603602081101561015957600080fd5b81019080803573ffffffffffffffffffffffffffffffffffffffff16906020019092919050505061067d565b6040518082815260200191505060405180910390f35b3480156101a757600080fd5b506101b06106c9565b6040518082815260200191505060405180910390f35b3480156101d257600080fd5b506101db610713565b604051808273ffffffffffffffffffffffffffffffffffffffff1673ffffffffffffffffffffffffffffffffffffffff16815260200191505060405180910390f35b34801561022957600080fd5b5061026c6004803603602081101561024057600080fd5b81019080803573ffffffffffffffffffffffffffffffffffffffff169060200190929190505050610738565b604051808215151515815260200191505060405180910390f35b34801561029257600080fd5b506102d5600480360360208110156102a957600080fd5b81019080803573ffffffffffffffffffffffffffffffffffffffff169060200190929190505050610758565b005b3480156102e357600080fd5b506102ec6108ec565b005b3480156102fa57600080fd5b50610303610ba1565b6040518080602001828103825283818151815260200191508051906020019060200280838360005b8381101561034657808201518184015260208101905061032b565b505050509050019250505060405180910390f35b34801561036657600080fd5b506103a96004803603602081101561037d57600080fd5b81019080803573ffffffffffffffffffffffffffffffffffffffff169060200190929190505050610c6c565b005b3480156103b757600080fd5b50610404600480360360408110156103ce57600080fd5b81019080803573ffffffffffffffffffffffffffffffffffffffff16906020019092919080359060200190929190505050610e00565b604051808273ffffffffffffffffffffffffffffffffffffffff1673ffffffffffffffffffffffffffffffffffffffff16815260200191505060405180910390f35b34801561045257600080fd5b5061045b610e4d565b6040518082815260200191505060405180910390f35b34801561047d57600080fd5b506104ca6004803603604081101561049457600080fd5b81019080803573ffffffffffffffffffffffffffffffffffffffff16906020019092919080359060200190929190505050610e97565b604051808273ffffffffffffffffffffffffffffffffffffffff1673ffffffffffffffffffffffffffffffffffffffff16815260200191505060405180910390f35b34801561051857600080fd5b5061055b6004803603602081101561052f57600080fd5b81019080803573ffffffffffffffffffffffffffffffffffffffff169060200190929190505050610ee4565b6040518080602001828103825283818151815260200191508051906020019060200280838360005b8381101561059e578082015181840152602081019050610583565b505050509050019250505060405180910390f35b6060600360003373ffffffffffffffffffffffffffffffffffffffff1673ffffffffffffffffffffffffffffffffffffffff16815260200190815260200160002080548060200260200160405190810160405280929190818152602001828054801561067357602002820191906000526020600020905b8160009054906101000a900473ffffffffffffffffffffffffffffffffffffffff1673ffffffffffffffffffffffffffffffffffffffff1681526020019060010190808311610629575b5050505050905090565b6000600260008373ffffffffffffffffffffffffffffffffffffffff1673ffffffffffffffffffffffffffffffffffffffff168152602001908152602001600020805490509050919050565b6000600360003373ffffffffffffffffffffffffffffffffffffffff1673ffffffffffffffffffffffffffffffffffffffff16815260200190815260200160002080549050905090565b6000809054906101000a900473ffffffffffffffffffffffffffffffffffffffff1681565b60016020528060005260406000206000915054906101000a900460ff1681565b60011515600160003373ffffffffffffffffffffffffffffffffffffffff1673ffffffffffffffffffffffffffffffffffffffff16815260200190815260200160002060009054906101000a900460ff161515141515610846576040517f08c379a000000000000000000000000000000000000000000000000000000000815260040180806020018281038252603a8152602001807f53656e64696e6720636f6e7472616374206e6f74206c6973746564206173206181526020017f206368696c64206f662041677265656d656e74466163746f727900000000000081525060400191505060405180910390fd5b600260008273ffffffffffffffffffffffffffffffffffffffff1673ffffffffffffffffffffffffffffffffffffffff1681526020019081526020016000203390806001815401808255809150509060018203906000526020600020016000909192909190916101000a81548173ffffffffffffffffffffffffffffffffffffffff021916908373ffffffffffffffffffffffffffffffffffffffff1602179055505050565b6000336108f7610fb1565b808273ffffffffffffffffffffffffffffffffffffffff1673ffffffffffffffffffffffffffffffffffffffff168152602001915050604051809103906000f080158015610949573d6000803e3d6000fd5b509050600081905060018060008373ffffffffffffffffffffffffffffffffffffffff1673ffffffffffffffffffffffffffffffffffffffff16815260200190815260200160002060006101000a81548160ff021916908315150217905550600260003373ffffffffffffffffffffffffffffffffffffffff1673ffffffffffffffffffffffffffffffffffffffff1681526020019081526020016000208190806001815401808255809150509060018203906000526020600020016000909192909190916101000a81548173ffffffffffffffffffffffffffffffffffffffff021916908373ffffffffffffffffffffffffffffffffffffffff160217905550507f3178ea54b202e279700e6dcdc03e5e9f454ceef79b2d55705b43e47913baa2973382604051808373ffffffffffffffffffffffffffffffffffffffff1673ffffffffffffffffffffffffffffffffffffffff1681526020018273ffffffffffffffffffffffffffffffffffffffff1673ffffffffffffffffffffffffffffffffffffffff1681526020019250505060405180910390a17f474c83e68d4e02ce5107d915a4a1918f8a7630a4f69a93afcd4203e2896519eb81600160008473ffffffffffffffffffffffffffffffffffffffff1673ffffffffffffffffffffffffffffffffffffffff16815260200190815260200160002060009054906101000a900460ff16604051808373ffffffffffffffffffffffffffffffffffffffff1673ffffffffffffffffffffffffffffffffffffffff168152602001821515151581526020019250505060405180910390a15050565b6060600260003373ffffffffffffffffffffffffffffffffffffffff1673ffffffffffffffffffffffffffffffffffffffff168152602001908152602001600020805480602002602001604051908101604052809291908181526020018280548015610c6257602002820191906000526020600020905b8160009054906101000a900473ffffffffffffffffffffffffffffffffffffffff1673ffffffffffffffffffffffffffffffffffffffff1681526020019060010190808311610c18575b5050505050905090565b60011515600160003373ffffffffffffffffffffffffffffffffffffffff1673ffffffffffffffffffffffffffffffffffffffff16815260200190815260200160002060009054906101000a900460ff161515141515610d5a576040517f08c379a000000000000000000000000000000000000000000000000000000000815260040180806020018281038252603a8152602001807f53656e64696e6720636f6e7472616374206e6f74206c6973746564206173206181526020017f206368696c64206f662041677265656d656e74466163746f727900000000000081525060400191505060405180910390fd5b600360008273ffffffffffffffffffffffffffffffffffffffff1673ffffffffffffffffffffffffffffffffffffffff1681526020019081526020016000203390806001815401808255809150509060018203906000526020600020016000909192909190916101000a81548173ffffffffffffffffffffffffffffffffffffffff021916908373ffffffffffffffffffffffffffffffffffffffff1602179055505050565b600260205281600052604060002081815481101515610e1b57fe5b906000526020600020016000915091509054906101000a900473ffffffffffffffffffffffffffffffffffffffff1681565b6000600260003373ffffffffffffffffffffffffffffffffffffffff1673ffffffffffffffffffffffffffffffffffffffff16815260200190815260200160002080549050905090565b600360205281600052604060002081815481101515610eb257fe5b906000526020600020016000915091509054906101000a900473ffffffffffffffffffffffffffffffffffffffff1681565b6060600260008373ffffffffffffffffffffffffffffffffffffffff1673ffffffffffffffffffffffffffffffffffffffff168152602001908152602001600020805480602002602001604051908101604052809291908181526020018280548015610fa557602002820191906000526020600020905b8160009054906101000a900473ffffffffffffffffffffffffffffffffffffffff1673ffffffffffffffffffffffffffffffffffffffff1681526020019060010190808311610f5b575b50505050509050919050565b6040516148cc80610fc28339019056fe60806040523480156200001157600080fd5b50604051602080620048cc833981018060405260208110156200003357600080fd5b8101908080519060200190929190505050336000806101000a81548173ffffffffffffffffffffffffffffffffffffffff021916908373ffffffffffffffffffffffffffffffffffffffff16021790555060008060009054906101000a900473ffffffffffffffffffffffffffffffffffffffff1690508073ffffffffffffffffffffffffffffffffffffffff16634273601c6040518163ffffffff167c010000000000000000000000000000000000000000000000000000000002815260040160206040518083038186803b1580156200010d57600080fd5b505afa15801562000122573d6000803e3d6000fd5b505050506040513d60208110156200013957600080fd5b8101908080519060200190929190505050600160006101000a81548173ffffffffffffffffffffffffffffffffffffffff021916908373ffffffffffffffffffffffffffffffffffffffff16021790555081600260006101000a81548173ffffffffffffffffffffffffffffffffffffffff021916908373ffffffffffffffffffffffffffffffffffffffff16021790555050506146ef80620001dd6000396000f3fe608060405260043610610133576000357c0100000000000000000000000000000000000000000000000000000000900463ffffffff168063046d9fa0146101385780630e13ff7614610175578063389880bc146101b05780636140d8e01461033d578063616555621461039457806361c49973146103ab57806370b637591461043b57806374f079b8146104925780637660c494146104bd57806389aded41146104e857806392ecd6af146104ff57806397abe1861461058f578063993d7c2d146106fc5780639d35c16114610869578063b69ef8a8146108c0578063b86ff9b3146108eb578063bd7c535114610a58578063c1e29a5614610aa9578063c47f002714610ad4578063c9f85b7514610b9c578063ef2be8f914610c9a578063f1e96c2714610cc5578063fd7a567c14610d1c575b600080fd5b34801561014457600080fd5b5061014d610d73565b6040518084815260200183815260200182151515158152602001935050505060405180910390f35b34801561018157600080fd5b506101ae6004803603602081101561019857600080fd5b8101908080359060200190929190505050611166565b005b3480156101bc57600080fd5b50610209600480360360408110156101d357600080fd5b81019080803573ffffffffffffffffffffffffffffffffffffffff16906020019092919080359060200190929190505050611bfd565b60405180898152602001881515151581526020018773ffffffffffffffffffffffffffffffffffffffff1673ffffffffffffffffffffffffffffffffffffffff1681526020018673ffffffffffffffffffffffffffffffffffffffff1673ffffffffffffffffffffffffffffffffffffffff1681526020018573ffffffffffffffffffffffffffffffffffffffff1673ffffffffffffffffffffffffffffffffffffffff16815260200180602001848152602001838152602001828103825285818151815260200191508051906020019080838360005b838110156102fb5780820151818401526020810190506102e0565b50505050905090810190601f1680156103285780820380516001836020036101000a031916815260200191505b50995050505050505050505060405180910390f35b34801561034957600080fd5b50610352611d66565b604051808273ffffffffffffffffffffffffffffffffffffffff1673ffffffffffffffffffffffffffffffffffffffff16815260200191505060405180910390f35b3480156103a057600080fd5b506103a9611d8c565b005b3480156103b757600080fd5b506103c0612509565b6040518080602001828103825283818151815260200191508051906020019080838360005b838110156104005780820151818401526020810190506103e5565b50505050905090810190601f16801561042d5780820380516001836020036101000a031916815260200191505b509250505060405180910390f35b34801561044757600080fd5b506104506125a7565b604051808273ffffffffffffffffffffffffffffffffffffffff1673ffffffffffffffffffffffffffffffffffffffff16815260200191505060405180910390f35b34801561049e57600080fd5b506104a76125cd565b6040518082815260200191505060405180910390f35b3480156104c957600080fd5b506104d26125d3565b6040518082815260200191505060405180910390f35b3480156104f457600080fd5b506104fd61263f565b005b34801561050b57600080fd5b50610514612965565b6040518080602001828103825283818151815260200191508051906020019080838360005b83811015610554578082015181840152602081019050610539565b50505050905090810190601f1680156105815780820380516001836020036101000a031916815260200191505b509250505060405180910390f35b34801561059b57600080fd5b506105c8600480360360208110156105b257600080fd5b8101908080359060200190929190505050612a03565b60405180898152602001881515151581526020018773ffffffffffffffffffffffffffffffffffffffff1673ffffffffffffffffffffffffffffffffffffffff1681526020018673ffffffffffffffffffffffffffffffffffffffff1673ffffffffffffffffffffffffffffffffffffffff1681526020018573ffffffffffffffffffffffffffffffffffffffff1673ffffffffffffffffffffffffffffffffffffffff16815260200180602001848152602001838152602001828103825285818151815260200191508051906020019080838360005b838110156106ba57808201518184015260208101905061069f565b50505050905090810190601f1680156106e75780820380516001836020036101000a031916815260200191505b50995050505050505050505060405180910390f35b34801561070857600080fd5b506107356004803603602081101561071f57600080fd5b8101908080359060200190929190505050612b5f565b60405180898152602001881515151581526020018773ffffffffffffffffffffffffffffffffffffffff1673ffffffffffffffffffffffffffffffffffffffff1681526020018673ffffffffffffffffffffffffffffffffffffffff1673ffffffffffffffffffffffffffffffffffffffff1681526020018573ffffffffffffffffffffffffffffffffffffffff1673ffffffffffffffffffffffffffffffffffffffff16815260200180602001848152602001838152602001828103825285818151815260200191508051906020019080838360005b8381101561082757808201518184015260208101905061080c565b50505050905090810190601f1680156108545780820380516001836020036101000a031916815260200191505b50995050505050505050505060405180910390f35b34801561087557600080fd5b5061087e612cbb565b604051808273ffffffffffffffffffffffffffffffffffffffff1673ffffffffffffffffffffffffffffffffffffffff16815260200191505060405180910390f35b3480156108cc57600080fd5b506108d5612ce0565b6040518082815260200191505060405180910390f35b3480156108f757600080fd5b506109246004803603602081101561090e57600080fd5b8101908080359060200190929190505050612ce6565b60405180898152602001881515151581526020018773ffffffffffffffffffffffffffffffffffffffff1673ffffffffffffffffffffffffffffffffffffffff1681526020018673ffffffffffffffffffffffffffffffffffffffff1673ffffffffffffffffffffffffffffffffffffffff1681526020018573ffffffffffffffffffffffffffffffffffffffff1673ffffffffffffffffffffffffffffffffffffffff16815260200180602001848152602001838152602001828103825285818151815260200191508051906020019080838360005b83811015610a165780820151818401526020810190506109fb565b50505050905090810190601f168015610a435780820380516001836020036101000a031916815260200191505b50995050505050505050505060405180910390f35b348015610a6457600080fd5b50610aa760048036036020811015610a7b57600080fd5b81019080803573ffffffffffffffffffffffffffffffffffffffff169060200190929190505050612e42565b005b348015610ab557600080fd5b50610abe61327b565b6040518082815260200191505060405180910390f35b348015610ae057600080fd5b50610b9a60048036036020811015610af757600080fd5b8101908080359060200190640100000000811115610b1457600080fd5b820183602082011115610b2657600080fd5b80359060200191846001830284011164010000000083111715610b4857600080fd5b91908080601f016020809104026020016040519081016040528093929190818152602001838380828437600081840152601f19601f8201169050808301925050505050505091929192905050506132e7565b005b348015610ba857600080fd5b50610c9860048036036080811015610bbf57600080fd5b8101908080359060200190929190803515159060200190929190803573ffffffffffffffffffffffffffffffffffffffff16906020019092919080359060200190640100000000811115610c1257600080fd5b820183602082011115610c2457600080fd5b80359060200191846001830284011164010000000083111715610c4657600080fd5b91908080601f016020809104026020016040519081016040528093929190818152602001838380828437600081840152601f19601f820116905080830192505050505050509192919290505050613604565b005b348015610ca657600080fd5b50610caf613db7565b6040518082815260200191505060405180910390f35b348015610cd157600080fd5b50610cda613dc4565b604051808273ffffffffffffffffffffffffffffffffffffffff1673ffffffffffffffffffffffffffffffffffffffff16815260200191505060405180910390f35b348015610d2857600080fd5b50610d31613dea565b604051808273ffffffffffffffffffffffffffffffffffffffff1673ffffffffffffffffffffffffffffffffffffffff16815260200191505060405180910390f35b6000806000600160009054906101000a900473ffffffffffffffffffffffffffffffffffffffff1673ffffffffffffffffffffffffffffffffffffffff163373ffffffffffffffffffffffffffffffffffffffff161480610e795750600260009054906101000a900473ffffffffffffffffffffffffffffffffffffffff1673ffffffffffffffffffffffffffffffffffffffff163373ffffffffffffffffffffffffffffffffffffffff161480610e785750600460009054906101000a900473ffffffffffffffffffffffffffffffffffffffff1673ffffffffffffffffffffffffffffffffffffffff163373ffffffffffffffffffffffffffffffffffffffff16145b5b1515610eed576040517f08c379a00000000000000000000000000000000000000000000000000000000081526004018080602001828103825260198152602001807f4d7573742062652061207265676973746572656420757365720000000000000081525060200191505060405180910390fd5b600080905060008090505b600c8054905081101561112557611114600c82815481101515610f1757fe5b90600052602060002090600702016101006040519081016040529081600082015481526020016001820160009054906101000a900460ff161515151581526020016001820160019054906101000a900473ffffffffffffffffffffffffffffffffffffffff1673ffffffffffffffffffffffffffffffffffffffff1673ffffffffffffffffffffffffffffffffffffffff1681526020016002820160009054906101000a900473ffffffffffffffffffffffffffffffffffffffff1673ffffffffffffffffffffffffffffffffffffffff1673ffffffffffffffffffffffffffffffffffffffff1681526020016003820160009054906101000a900473ffffffffffffffffffffffffffffffffffffffff1673ffffffffffffffffffffffffffffffffffffffff1673ffffffffffffffffffffffffffffffffffffffff168152602001600482018054600181600116156101000203166002900480601f0160208091040260200160405190810160405280929190818152602001828054600181600116156101000203166002900480156110f25780601f106110c7576101008083540402835291602001916110f2565b820191906000526020600020905b8154815290600101906020018083116110d557829003601f168201915b5050505050815260200160058201548152602001600682015481525050613e10565b820191508080600101915050610ef8565b50600754811415156111435780600754600093509350935050611161565b60075481141561115f5780600754600193509350935050611161565b505b909192565b600260009054906101000a900473ffffffffffffffffffffffffffffffffffffffff1673ffffffffffffffffffffffffffffffffffffffff163373ffffffffffffffffffffffffffffffffffffffff16148061120f5750600460009054906101000a900473ffffffffffffffffffffffffffffffffffffffff1673ffffffffffffffffffffffffffffffffffffffff163373ffffffffffffffffffffffffffffffffffffffff16145b1515611283576040517f08c379a00000000000000000000000000000000000000000000000000000000081526004018080602001828103825260198152602001807f4d7573742062652061207265676973746572656420757365720000000000000081525060200191505060405180910390fd5b600073ffffffffffffffffffffffffffffffffffffffff16600260009054906101000a900473ffffffffffffffffffffffffffffffffffffffff1673ffffffffffffffffffffffffffffffffffffffff16141580156113315750600073ffffffffffffffffffffffffffffffffffffffff16600460009054906101000a900473ffffffffffffffffffffffffffffffffffffffff1673ffffffffffffffffffffffffffffffffffffffff1614155b15156113a5576040517f08c379a000000000000000000000000000000000000000000000000000000000815260040180806020018281038252601c8152602001807f54776f207573657273206d75737420626520726567697374657265640000000081525060200191505060405180910390fd5b6000600960003373ffffffffffffffffffffffffffffffffffffffff1673ffffffffffffffffffffffffffffffffffffffff16815260200190815260200160002090506000818054905090506113f9614143565b828481548110151561140757fe5b90600052602060002090600702016101006040519081016040529081600082015481526020016001820160009054906101000a900460ff161515151581526020016001820160019054906101000a900473ffffffffffffffffffffffffffffffffffffffff1673ffffffffffffffffffffffffffffffffffffffff1673ffffffffffffffffffffffffffffffffffffffff1681526020016002820160009054906101000a900473ffffffffffffffffffffffffffffffffffffffff1673ffffffffffffffffffffffffffffffffffffffff1673ffffffffffffffffffffffffffffffffffffffff1681526020016003820160009054906101000a900473ffffffffffffffffffffffffffffffffffffffff1673ffffffffffffffffffffffffffffffffffffffff1673ffffffffffffffffffffffffffffffffffffffff168152602001600482018054600181600116156101000203166002900480601f0160208091040260200160405190810160405280929190818152602001828054600181600116156101000203166002900480156115e25780601f106115b7576101008083540402835291602001916115e2565b820191906000526020600020905b8154815290600101906020018083116115c557829003601f168201915b50505050508152602001600582015481526020016006820154815250509050828481548110151561160f57fe5b90600052602060002090600702016000808201600090556001820160006101000a81549060ff02191690556001820160016101000a81549073ffffffffffffffffffffffffffffffffffffffff02191690556002820160006101000a81549073ffffffffffffffffffffffffffffffffffffffff02191690556003820160006101000a81549073ffffffffffffffffffffffffffffffffffffffff02191690556004820160006116bf91906141cd565b60058201600090556006820160009055505082600183038154811015156116e257fe5b906000526020600020906007020183858154811015156116fe57fe5b9060005260206000209060070201600082015481600001556001820160009054906101000a900460ff168160010160006101000a81548160ff0219169083151502179055506001820160019054906101000a900473ffffffffffffffffffffffffffffffffffffffff168160010160016101000a81548173ffffffffffffffffffffffffffffffffffffffff021916908373ffffffffffffffffffffffffffffffffffffffff1602179055506002820160009054906101000a900473ffffffffffffffffffffffffffffffffffffffff168160020160006101000a81548173ffffffffffffffffffffffffffffffffffffffff021916908373ffffffffffffffffffffffffffffffffffffffff1602179055506003820160009054906101000a900473ffffffffffffffffffffffffffffffffffffffff168160030160006101000a81548173ffffffffffffffffffffffffffffffffffffffff021916908373ffffffffffffffffffffffffffffffffffffffff1602179055506004820181600401908054600181600116156101000203166002900461189f929190614215565b50600582015481600501556006820154816006015590505082600183038154811015156118c857fe5b90600052602060002090600702016000808201600090556001820160006101000a81549060ff02191690556001820160016101000a81549073ffffffffffffffffffffffffffffffffffffffff02191690556002820160006101000a81549073ffffffffffffffffffffffffffffffffffffffff02191690556003820160006101000a81549073ffffffffffffffffffffffffffffffffffffffff021916905560048201600061197891906141cd565b6005820160009055600682016000905550508280548091906001900361199e919061429c565b50600c81908060018154018082558091505090600182039060005260206000209060070201600090919290919091506000820151816000015560208201518160010160006101000a81548160ff02191690831515021790555060408201518160010160016101000a81548173ffffffffffffffffffffffffffffffffffffffff021916908373ffffffffffffffffffffffffffffffffffffffff16021790555060608201518160020160006101000a81548173ffffffffffffffffffffffffffffffffffffffff021916908373ffffffffffffffffffffffffffffffffffffffff16021790555060808201518160030160006101000a81548173ffffffffffffffffffffffffffffffffffffffff021916908373ffffffffffffffffffffffffffffffffffffffff16021790555060a0820151816004019080519060200190611ae89291906142ce565b5060c0820151816005015560e0820151816006015550505060096000600260009054906101000a900473ffffffffffffffffffffffffffffffffffffffff1673ffffffffffffffffffffffffffffffffffffffff1673ffffffffffffffffffffffffffffffffffffffff168152602001908152602001600020600a908054611b7192919061434e565b5060096000600460009054906101000a900473ffffffffffffffffffffffffffffffffffffffff1673ffffffffffffffffffffffffffffffffffffffff1673ffffffffffffffffffffffffffffffffffffffff168152602001908152602001600020600b908054611be392919061434e565b50611bed81613e10565b6007540160078190555050505050565b600960205281600052604060002081815481101515611c1857fe5b9060005260206000209060070201600091509150508060000154908060010160009054906101000a900460ff16908060010160019054906101000a900473ffffffffffffffffffffffffffffffffffffffff16908060020160009054906101000a900473ffffffffffffffffffffffffffffffffffffffff16908060030160009054906101000a900473ffffffffffffffffffffffffffffffffffffffff1690806004018054600181600116156101000203166002900480601f016020809104026020016040519081016040528092919081815260200182805460018160011615610100020316600290048015611d505780601f10611d2557610100808354040283529160200191611d50565b820191906000526020600020905b815481529060010190602001808311611d3357829003601f168201915b5050505050908060050154908060060154905088565b600160009054906101000a900473ffffffffffffffffffffffffffffffffffffffff1681565b600260009054906101000a900473ffffffffffffffffffffffffffffffffffffffff1673ffffffffffffffffffffffffffffffffffffffff163373ffffffffffffffffffffffffffffffffffffffff161480611e355750600460009054906101000a900473ffffffffffffffffffffffffffffffffffffffff1673ffffffffffffffffffffffffffffffffffffffff163373ffffffffffffffffffffffffffffffffffffffff16145b1515611ea9576040517f08c379a00000000000000000000000000000000000000000000000000000000081526004018080602001828103825260198152602001807f4d7573742062652061207265676973746572656420757365720000000000000081525060200191505060405180910390fd5b600073ffffffffffffffffffffffffffffffffffffffff16600260009054906101000a900473ffffffffffffffffffffffffffffffffffffffff1673ffffffffffffffffffffffffffffffffffffffff1614158015611f575750600073ffffffffffffffffffffffffffffffffffffffff16600460009054906101000a900473ffffffffffffffffffffffffffffffffffffffff1673ffffffffffffffffffffffffffffffffffffffff1614155b1515611fcb576040517f08c379a000000000000000000000000000000000000000000000000000000000815260040180806020018281038252601c8152602001807f54776f207573657273206d75737420626520726567697374657265640000000081525060200191505060405180910390fd5b6000600960003373ffffffffffffffffffffffffffffffffffffffff1673ffffffffffffffffffffffffffffffffffffffff1681526020019081526020016000209050606081805480602002602001604051908101604052809291908181526020016000905b8282101561224257838290600052602060002090600702016101006040519081016040529081600082015481526020016001820160009054906101000a900460ff161515151581526020016001820160019054906101000a900473ffffffffffffffffffffffffffffffffffffffff1673ffffffffffffffffffffffffffffffffffffffff1673ffffffffffffffffffffffffffffffffffffffff1681526020016002820160009054906101000a900473ffffffffffffffffffffffffffffffffffffffff1673ffffffffffffffffffffffffffffffffffffffff1673ffffffffffffffffffffffffffffffffffffffff1681526020016003820160009054906101000a900473ffffffffffffffffffffffffffffffffffffffff1673ffffffffffffffffffffffffffffffffffffffff1673ffffffffffffffffffffffffffffffffffffffff168152602001600482018054600181600116156101000203166002900480601f0160208091040260200160405190810160405280929190818152602001828054600181600116156101000203166002900480156122165780601f106121eb57610100808354040283529160200191612216565b820191906000526020600020905b8154815290600101906020018083116121f957829003601f168201915b505050505081526020016005820154815260200160068201548152505081526020019060010190612031565b50505050905060008281612256919061429c565b50600080905060008090505b825181101561241457600c838281518110151561227b57fe5b90602001906020020151908060018154018082558091505090600182039060005260206000209060070201600090919290919091506000820151816000015560208201518160010160006101000a81548160ff02191690831515021790555060408201518160010160016101000a81548173ffffffffffffffffffffffffffffffffffffffff021916908373ffffffffffffffffffffffffffffffffffffffff16021790555060608201518160020160006101000a81548173ffffffffffffffffffffffffffffffffffffffff021916908373ffffffffffffffffffffffffffffffffffffffff16021790555060808201518160030160006101000a81548173ffffffffffffffffffffffffffffffffffffffff021916908373ffffffffffffffffffffffffffffffffffffffff16021790555060a08201518160040190805190602001906123cb9291906142ce565b5060c0820151816005015560e0820151816006015550505061240383828151811015156123f457fe5b90602001906020020151613e10565b820191508080600101915050612262565b5060096000600260009054906101000a900473ffffffffffffffffffffffffffffffffffffffff1673ffffffffffffffffffffffffffffffffffffffff1673ffffffffffffffffffffffffffffffffffffffff168152602001908152602001600020600a90805461248692919061434e565b5060096000600460009054906101000a900473ffffffffffffffffffffffffffffffffffffffff1673ffffffffffffffffffffffffffffffffffffffff1673ffffffffffffffffffffffffffffffffffffffff168152602001908152602001600020600b9080546124f892919061434e565b508060075401600781905550505050565b60068054600181600116156101000203166002900480601f01602080910402602001604051908101604052809291908181526020018280546001816001161561010002031660029004801561259f5780601f106125745761010080835404028352916020019161259f565b820191906000526020600020905b81548152906001019060200180831161258257829003601f168201915b505050505081565b600360009054906101000a900473ffffffffffffffffffffffffffffffffffffffff1681565b60085481565b600060096000600460009054906101000a900473ffffffffffffffffffffffffffffffffffffffff1673ffffffffffffffffffffffffffffffffffffffff1673ffffffffffffffffffffffffffffffffffffffff16815260200190815260200160002080549050905090565b600360009054906101000a900473ffffffffffffffffffffffffffffffffffffffff1673ffffffffffffffffffffffffffffffffffffffff163373ffffffffffffffffffffffffffffffffffffffff16141515612704576040517f08c379a000000000000000000000000000000000000000000000000000000000815260040180806020018281038252601a8152602001807f4d7573742062652074686520696e766974656420667269656e6400000000000081525060200191505060405180910390fd5b600073ffffffffffffffffffffffffffffffffffffffff16600460009054906101000a900473ffffffffffffffffffffffffffffffffffffffff1673ffffffffffffffffffffffffffffffffffffffff161415156127ca576040517f08c379a00000000000000000000000000000000000000000000000000000000081526004018080602001828103825260198152602001807f55736572203220616c726561647920726567697374657265640000000000000081525060200191505060405180910390fd5b33600460006101000a81548173ffffffffffffffffffffffffffffffffffffffff021916908373ffffffffffffffffffffffffffffffffffffffff1602179055503373ffffffffffffffffffffffffffffffffffffffff16600460009054906101000a900473ffffffffffffffffffffffffffffffffffffffff1673ffffffffffffffffffffffffffffffffffffffff1614151561286757600080fd5b60008060009054906101000a900473ffffffffffffffffffffffffffffffffffffffff1690508073ffffffffffffffffffffffffffffffffffffffff16634760404e600460009054906101000a900473ffffffffffffffffffffffffffffffffffffffff166040518263ffffffff167c0100000000000000000000000000000000000000000000000000000000028152600401808273ffffffffffffffffffffffffffffffffffffffff1673ffffffffffffffffffffffffffffffffffffffff168152602001915050600060405180830381600087803b15801561294a57600080fd5b505af115801561295e573d6000803e3d6000fd5b5050505050565b60058054600181600116156101000203166002900480601f0160208091040260200160405190810160405280929190818152602001828054600181600116156101000203166002900480156129fb5780601f106129d0576101008083540402835291602001916129fb565b820191906000526020600020905b8154815290600101906020018083116129de57829003601f168201915b505050505081565b600b81815481101515612a1257fe5b90600052602060002090600702016000915090508060000154908060010160009054906101000a900460ff16908060010160019054906101000a900473ffffffffffffffffffffffffffffffffffffffff16908060020160009054906101000a900473ffffffffffffffffffffffffffffffffffffffff16908060030160009054906101000a900473ffffffffffffffffffffffffffffffffffffffff1690806004018054600181600116156101000203166002900480601f016020809104026020016040519081016040528092919081815260200182805460018160011615610100020316600290048015612b495780601f10612b1e57610100808354040283529160200191612b49565b820191906000526020600020905b815481529060010190602001808311612b2c57829003601f168201915b5050505050908060050154908060060154905088565b600c81815481101515612b6e57fe5b90600052602060002090600702016000915090508060000154908060010160009054906101000a900460ff16908060010160019054906101000a900473ffffffffffffffffffffffffffffffffffffffff16908060020160009054906101000a900473ffffffffffffffffffffffffffffffffffffffff16908060030160009054906101000a900473ffffffffffffffffffffffffffffffffffffffff1690806004018054600181600116156101000203166002900480601f016020809104026020016040519081016040528092919081815260200182805460018160011615610100020316600290048015612ca55780601f10612c7a57610100808354040283529160200191612ca5565b820191906000526020600020905b815481529060010190602001808311612c8857829003601f168201915b5050505050908060050154908060060154905088565b6000809054906101000a900473ffffffffffffffffffffffffffffffffffffffff1681565b60075481565b600a81815481101515612cf557fe5b90600052602060002090600702016000915090508060000154908060010160009054906101000a900460ff16908060010160019054906101000a900473ffffffffffffffffffffffffffffffffffffffff16908060020160009054906101000a900473ffffffffffffffffffffffffffffffffffffffff16908060030160009054906101000a900473ffffffffffffffffffffffffffffffffffffffff1690806004018054600181600116156101000203166002900480601f016020809104026020016040519081016040528092919081815260200182805460018160011615610100020316600290048015612e2c5780601f10612e0157610100808354040283529160200191612e2c565b820191906000526020600020905b815481529060010190602001808311612e0f57829003601f168201915b5050505050908060050154908060060154905088565b600260009054906101000a900473ffffffffffffffffffffffffffffffffffffffff1673ffffffffffffffffffffffffffffffffffffffff163373ffffffffffffffffffffffffffffffffffffffff16141515612f07576040517f08c379a00000000000000000000000000000000000000000000000000000000081526004018080602001828103825260198152602001807f4d7573742062652072656769737465726564207573657220310000000000000081525060200191505060405180910390fd5b600073ffffffffffffffffffffffffffffffffffffffff16600460009054906101000a900473ffffffffffffffffffffffffffffffffffffffff1673ffffffffffffffffffffffffffffffffffffffff16141515612fcd576040517f08c379a00000000000000000000000000000000000000000000000000000000081526004018080602001828103825260198152602001807f55736572203220616c726561647920726567697374657265640000000000000081525060200191505060405180910390fd5b3373ffffffffffffffffffffffffffffffffffffffff168173ffffffffffffffffffffffffffffffffffffffff1614151515613071576040517f08c379a00000000000000000000000000000000000000000000000000000000081526004018080602001828103825260198152602001807f596f752063616e7420696e7669746520796f757273656c66210000000000000081525060200191505060405180910390fd5b600073ffffffffffffffffffffffffffffffffffffffff16600360009054906101000a900473ffffffffffffffffffffffffffffffffffffffff1673ffffffffffffffffffffffffffffffffffffffff1614151561315d576040517f08c379a00000000000000000000000000000000000000000000000000000000081526004018080602001828103825260218152602001807f596f75206861766520616c726561647920696e766974656420736f6d656f6e6581526020017f210000000000000000000000000000000000000000000000000000000000000081525060400191505060405180910390fd5b80600360006101000a81548173ffffffffffffffffffffffffffffffffffffffff021916908373ffffffffffffffffffffffffffffffffffffffff16021790555060008060009054906101000a900473ffffffffffffffffffffffffffffffffffffffff1690508073ffffffffffffffffffffffffffffffffffffffff1663cfe4ce89836040518263ffffffff167c0100000000000000000000000000000000000000000000000000000000028152600401808273ffffffffffffffffffffffffffffffffffffffff1673ffffffffffffffffffffffffffffffffffffffff168152602001915050600060405180830381600087803b15801561325f57600080fd5b505af1158015613273573d6000803e3d6000fd5b505050505050565b600060096000600260009054906101000a900473ffffffffffffffffffffffffffffffffffffffff1673ffffffffffffffffffffffffffffffffffffffff1673ffffffffffffffffffffffffffffffffffffffff16815260200190815260200160002080549050905090565b600260009054906101000a900473ffffffffffffffffffffffffffffffffffffffff1673ffffffffffffffffffffffffffffffffffffffff163373ffffffffffffffffffffffffffffffffffffffff1614806133905750600460009054906101000a900473ffffffffffffffffffffffffffffffffffffffff1673ffffffffffffffffffffffffffffffffffffffff163373ffffffffffffffffffffffffffffffffffffffff16145b1515613404576040517f08c379a00000000000000000000000000000000000000000000000000000000081526004018080602001828103825260198152602001807f4d7573742062652061207265676973746572656420757365720000000000000081525060200191505060405180910390fd5b600260009054906101000a900473ffffffffffffffffffffffffffffffffffffffff1673ffffffffffffffffffffffffffffffffffffffff163373ffffffffffffffffffffffffffffffffffffffff16141561350457600060058054600181600116156101000203166002900490501415156134e8576040517f08c379a000000000000000000000000000000000000000000000000000000000815260040180806020018281038252601a8152602001807f596f7520616c72656164792073657420796f7572206e616d652100000000000081525060200191505060405180910390fd5b80600590805190602001906134fe92919061454e565b50613601565b600460009054906101000a900473ffffffffffffffffffffffffffffffffffffffff1673ffffffffffffffffffffffffffffffffffffffff163373ffffffffffffffffffffffffffffffffffffffff16141561360057600060068054600181600116156101000203166002900490501415156135e8576040517f08c379a000000000000000000000000000000000000000000000000000000000815260040180806020018281038252601a8152602001807f596f7520616c72656164792073657420796f7572206e616d652100000000000081525060200191505060405180910390fd5b80600690805190602001906135fe92919061454e565b505b5b50565b600260009054906101000a900473ffffffffffffffffffffffffffffffffffffffff1673ffffffffffffffffffffffffffffffffffffffff163373ffffffffffffffffffffffffffffffffffffffff1614806136ad5750600460009054906101000a900473ffffffffffffffffffffffffffffffffffffffff1673ffffffffffffffffffffffffffffffffffffffff163373ffffffffffffffffffffffffffffffffffffffff16145b1515613721576040517f08c379a00000000000000000000000000000000000000000000000000000000081526004018080602001828103825260198152602001807f4d7573742062652061207265676973746572656420757365720000000000000081525060200191505060405180910390fd5b600073ffffffffffffffffffffffffffffffffffffffff16600260009054906101000a900473ffffffffffffffffffffffffffffffffffffffff1673ffffffffffffffffffffffffffffffffffffffff16141580156137cf5750600073ffffffffffffffffffffffffffffffffffffffff16600460009054906101000a900473ffffffffffffffffffffffffffffffffffffffff1673ffffffffffffffffffffffffffffffffffffffff1614155b1515613843576040517f08c379a000000000000000000000000000000000000000000000000000000000815260040180806020018281038252601c8152602001807f54776f207573657273206d75737420626520726567697374657265640000000081525060200191505060405180910390fd5b600260009054906101000a900473ffffffffffffffffffffffffffffffffffffffff1673ffffffffffffffffffffffffffffffffffffffff168273ffffffffffffffffffffffffffffffffffffffff1614806138ec5750600460009054906101000a900473ffffffffffffffffffffffffffffffffffffffff1673ffffffffffffffffffffffffffffffffffffffff168273ffffffffffffffffffffffffffffffffffffffff16145b1515613960576040517f08c379a00000000000000000000000000000000000000000000000000000000081526004018080602001828103825260208152602001807f646562746f72206d75737420626520612072656769737465726564207573657281525060200191505060405180910390fd5b602381511015156139d9576040517f08c379a00000000000000000000000000000000000000000000000000000000081526004018080602001828103825260148152602001807f4465736372697074696f6e20746f6f206c6f6e6700000000000000000000000081525060200191505060405180910390fd5b60006139e3613ef5565b90506139ed614143565b6139f633613efd565b816060019073ffffffffffffffffffffffffffffffffffffffff16908173ffffffffffffffffffffffffffffffffffffffff1681525050600115158515151415613a5557600286811515613a4657fe5b04816000018181525050613a6e565b600015158515151415613a6d57858160000181815250505b5b8481602001901515908115158152505033816040019073ffffffffffffffffffffffffffffffffffffffff16908173ffffffffffffffffffffffffffffffffffffffff168152505083816080019073ffffffffffffffffffffffffffffffffffffffff16908173ffffffffffffffffffffffffffffffffffffffff1681525050828160a001819052506008548160c0018181525050818160e001818152505060096000826060015173ffffffffffffffffffffffffffffffffffffffff1673ffffffffffffffffffffffffffffffffffffffff16815260200190815260200160002081908060018154018082558091505090600182039060005260206000209060070201600090919290919091506000820151816000015560208201518160010160006101000a81548160ff02191690831515021790555060408201518160010160016101000a81548173ffffffffffffffffffffffffffffffffffffffff021916908373ffffffffffffffffffffffffffffffffffffffff16021790555060608201518160020160006101000a81548173ffffffffffffffffffffffffffffffffffffffff021916908373ffffffffffffffffffffffffffffffffffffffff16021790555060808201518160030160006101000a81548173ffffffffffffffffffffffffffffffffffffffff021916908373ffffffffffffffffffffffffffffffffffffffff16021790555060a0820151816004019080519060200190613c979291906142ce565b5060c0820151816005015560e08201518160060155505050613cc5600160085461412290919063ffffffff16565b60088190555060096000600260009054906101000a900473ffffffffffffffffffffffffffffffffffffffff1673ffffffffffffffffffffffffffffffffffffffff1673ffffffffffffffffffffffffffffffffffffffff168152602001908152602001600020600a908054613d3c92919061434e565b5060096000600460009054906101000a900473ffffffffffffffffffffffffffffffffffffffff1673ffffffffffffffffffffffffffffffffffffffff1673ffffffffffffffffffffffffffffffffffffffff168152602001908152602001600020600b908054613dae92919061434e565b50505050505050565b6000600c80549050905090565b600260009054906101000a900473ffffffffffffffffffffffffffffffffffffffff1681565b600460009054906101000a900473ffffffffffffffffffffffffffffffffffffffff1681565b60008060009050600260009054906101000a900473ffffffffffffffffffffffffffffffffffffffff1673ffffffffffffffffffffffffffffffffffffffff16836080015173ffffffffffffffffffffffffffffffffffffffff161415613e84578260000151600003905080915050613ef0565b600460009054906101000a900473ffffffffffffffffffffffffffffffffffffffff1673ffffffffffffffffffffffffffffffffffffffff16836080015173ffffffffffffffffffffffffffffffffffffffff161415613eee578260000151905080915050613ef0565b505b919050565b600042905090565b6000600260009054906101000a900473ffffffffffffffffffffffffffffffffffffffff1673ffffffffffffffffffffffffffffffffffffffff168273ffffffffffffffffffffffffffffffffffffffff161480613fa85750600460009054906101000a900473ffffffffffffffffffffffffffffffffffffffff1673ffffffffffffffffffffffffffffffffffffffff168273ffffffffffffffffffffffffffffffffffffffff16145b151561401c576040517f08c379a00000000000000000000000000000000000000000000000000000000081526004018080602001828103825260178152602001807f75736572206d757374206265207265676973746572656400000000000000000081525060200191505060405180910390fd5b600260009054906101000a900473ffffffffffffffffffffffffffffffffffffffff1673ffffffffffffffffffffffffffffffffffffffff168273ffffffffffffffffffffffffffffffffffffffff16141561409c57600460009054906101000a900473ffffffffffffffffffffffffffffffffffffffff16905061411d565b600460009054906101000a900473ffffffffffffffffffffffffffffffffffffffff1673ffffffffffffffffffffffffffffffffffffffff168273ffffffffffffffffffffffffffffffffffffffff16141561411c57600260009054906101000a900473ffffffffffffffffffffffffffffffffffffffff16905061411d565b5b919050565b600080828401905083811015151561413957600080fd5b8091505092915050565b6101006040519081016040528060008152602001600015158152602001600073ffffffffffffffffffffffffffffffffffffffff168152602001600073ffffffffffffffffffffffffffffffffffffffff168152602001600073ffffffffffffffffffffffffffffffffffffffff1681526020016060815260200160008152602001600081525090565b50805460018160011615610100020316600290046000825580601f106141f35750614212565b601f01602090049060005260206000209081019061421191906145ce565b5b50565b828054600181600116156101000203166002900490600052602060002090601f016020900481019282601f1061424e578054855561428b565b8280016001018555821561428b57600052602060002091601f016020900482015b8281111561428a57825482559160010191906001019061426f565b5b50905061429891906145ce565b5090565b8154818355818111156142c9576007028160070283600052602060002091820191016142c891906145f3565b5b505050565b828054600181600116156101000203166002900490600052602060002090601f016020900481019282601f1061430f57805160ff191683800117855561433d565b8280016001018555821561433d579182015b8281111561433c578251825591602001919060010190614321565b5b50905061434a91906145ce565b5090565b82805482825590600052602060002090600702810192821561453d5760005260206000209160070282015b8281111561453c578282600082015481600001556001820160009054906101000a900460ff168160010160006101000a81548160ff0219169083151502179055506001820160019054906101000a900473ffffffffffffffffffffffffffffffffffffffff168160010160016101000a81548173ffffffffffffffffffffffffffffffffffffffff021916908373ffffffffffffffffffffffffffffffffffffffff1602179055506002820160009054906101000a900473ffffffffffffffffffffffffffffffffffffffff168160020160006101000a81548173ffffffffffffffffffffffffffffffffffffffff021916908373ffffffffffffffffffffffffffffffffffffffff1602179055506003820160009054906101000a900473ffffffffffffffffffffffffffffffffffffffff168160030160006101000a81548173ffffffffffffffffffffffffffffffffffffffff021916908373ffffffffffffffffffffffffffffffffffffffff16021790555060048201816004019080546001816001161561010002031660029004614516929190614215565b506005820154816005015560068201548160060155505091600701919060070190614379565b5b50905061454a91906145f3565b5090565b828054600181600116156101000203166002900490600052602060002090601f016020900481019282601f1061458f57805160ff19168380011785556145bd565b828001600101855582156145bd579182015b828111156145bc5782518255916020019190600101906145a1565b5b5090506145ca91906145ce565b5090565b6145f091905b808211156145ec5760008160009055506001016145d4565b5090565b90565b6146c091905b808211156146bc576000808201600090556001820160006101000a81549060ff02191690556001820160016101000a81549073ffffffffffffffffffffffffffffffffffffffff02191690556002820160006101000a81549073ffffffffffffffffffffffffffffffffffffffff02191690556003820160006101000a81549073ffffffffffffffffffffffffffffffffffffffff02191690556004820160006146a391906141cd565b60058201600090556006820160009055506007016145f9565b5090565b9056fea165627a7a7230582059a83faa5f398ea4669b548979135d5c374d3e5c6f30d703a804ce1644ddd3600029a165627a7a72305820cb52cf8dad2738f3777cce8926018bebdb2fc023e5708b5d1dfbca0f023f11ea0029",
  "source": "pragma solidity ^0.5.0;\r\n\r\nimport 'openzeppelin-solidity/contracts/math/SafeMath.sol';\r\n\r\n/// @Author RickGriff\r\n/// EtherSplit dApp\r\ncontract AgreementFactory {\r\n\r\n  address public factoryOwner;\r\n\r\n  mapping(address => bool) public allAgreements;\r\n\r\n  /// Map user to list of agreements they've created or joined\r\n  mapping(address => address[]) public userToAgreements;\r\n\r\n  /// Map user to list of agreements they've been invited to\r\n  mapping(address => address[]) public userToInvites;\r\n\r\n  event AgreementCreated (address from, address agreementAddr);\r\n  event AgreementAdded (address agreementAddr, bool inAllAgreementsList);\r\n\r\n  constructor() public {\r\n    factoryOwner = msg.sender;\r\n  }\r\n\r\n  function createNewAgreement() public  {\r\n    Agreement newAgreement = new Agreement(msg.sender);\r\n    /// Add agreement addr to allAgreements and user's list\r\n    address agreementAddress = address(newAgreement);\r\n    allAgreements[agreementAddress] = true;\r\n    userToAgreements[msg.sender].push(agreementAddress);\r\n    emit AgreementCreated(msg.sender, agreementAddress);\r\n    emit AgreementAdded(agreementAddress, allAgreements[agreementAddress]);\r\n  }\r\n\r\n  function getUsersAgreements(address _user) public view returns (address[] memory ) {\r\n    return( userToAgreements[_user] );\r\n  }\r\n\r\n  function getMyAgreements() public view returns (address[] memory ) {\r\n    return( userToAgreements[msg.sender] );\r\n  }\r\n\r\n  function getMyInvites() public view returns (address[] memory ) {\r\n    return( userToInvites[msg.sender] );\r\n  }\r\n\r\n  /// Called by a child Agreement when a new user registers on the child.\r\n  function newRegisteredUser(address _user) public _onlyChildContract {\r\n    userToAgreements[_user].push(msg.sender);\r\n  }\r\n\r\n  /// Called by a child Agreement when a new account is invited to the child.\r\n  function newInvite(address _friend) public _onlyChildContract {\r\n    userToInvites[_friend].push(msg.sender);\r\n  }\r\n\r\n  /// Length getters and modifiers\r\n  function getMyAgreementsCount() public view returns(uint myAgreementsCount) {\r\n    return userToAgreements[msg.sender].length;\r\n  }\r\n\r\n  function getMyInvitesCount() public view returns(uint myAgreementsCount) {\r\n    return userToInvites[msg.sender].length;\r\n  }\r\n\r\n  function getUsersAgreementsCount(address _user) public view returns(uint usersAgreementsCount) {\r\n    return userToAgreements[_user].length;\r\n  }\r\n\r\n  modifier _onlyChildContract {\r\n    require( allAgreements[msg.sender] == true, 'Sending contract not listed as a child of AgreementFactory');\r\n    _;\r\n  }\r\n}\r\n\r\ncontract Agreement {\r\n\r\n  using SafeMath for uint;\r\n\r\n  address public parentFactory;\r\n  address public parentFactoryOwner;\r\n  address public user_1;\r\n  address public invited_friend;\r\n  address public user_2;\r\n  string public user_1_name;\r\n  string public user_2_name;\r\n\r\n  /// The net balance of who owes who.  Positive if user_2 owes more, negative if user_1 owes more.\r\n  int public balance;\r\n\r\n  uint public txCounter; /// counts the number of transactions created.\r\n\r\n  /// Map user to the list of the pending transactions.\r\n  mapping( address => Tx[] ) public pendingTransactions;\r\n\r\n  /** @dev It's not possible to call elements in nested arrays via web3.\r\n  * So explicitly set a Tx array for user 1 and user 2, to allow calls from UI.\r\n  * Assignment happens in the 'createPending' func. */\r\n  Tx[] public pendingTransactions_1;\r\n  Tx[] public pendingTransactions_2;\r\n\r\n  Tx[] public confirmedTransactions;\r\n\r\n  /// basic transaction object.\r\n  struct Tx {\r\n    uint amount;\r\n    bool split;\r\n    address creator;\r\n    address confirmer;\r\n    address debtor;\r\n    string description;\r\n    uint index;\r\n    uint timestamp;\r\n  }\r\n\r\n  ///  ****** constructor and user registration functions ******\r\n  constructor(address _creator) public {\r\n    parentFactory = msg.sender;\r\n    AgreementFactory factory = AgreementFactory(parentFactory);\r\n    parentFactoryOwner = factory.factoryOwner();\r\n    user_1 = _creator;\r\n  }\r\n\r\n  /// Store the user's name\r\n  function setName(string memory _name) onlyUser public {\r\n    if (msg.sender == user_1) {\r\n      require(bytes(user_1_name).length == 0, \"You already set your name!\");\r\n      user_1_name = _name;\r\n    } else if (msg.sender == user_2) {\r\n      require(bytes(user_2_name).length == 0, \"You already set your name!\");\r\n      user_2_name = _name;\r\n    }\r\n  }\r\n\r\n  /// Set the invited friend's address\r\n  function inviteFriend(address _friend) onlyUser1 onlyUser2NotRegistered public {\r\n    require(_friend != msg.sender, 'You cant invite yourself!');\r\n    require(invited_friend == address(0), 'You have already invited someone!');\r\n    invited_friend = _friend;\r\n    AgreementFactory factory = AgreementFactory(parentFactory);\r\n    factory.newInvite(_friend);\r\n  }\r\n\r\n  function registerUser2() onlyInvitedFriend onlyUser2NotRegistered public {\r\n    user_2 = msg.sender;\r\n    require(user_2 == msg.sender); /// check user_2 was set\r\n    /// send the registration data to parent factory\r\n    AgreementFactory factory = AgreementFactory(parentFactory);\r\n    factory.newRegisteredUser(user_2);\r\n  }\r\n\r\n  /// ****** Functions for creating and confirming transactions ******\r\n\r\n  /// Create a pending Tx, to be confirmed by the other user\r\n  function createPending(uint _amount, bool _split, address _debtor, string  memory _description) onlyUser onlyBothRegistered public {\r\n    require( _debtor == user_1 || _debtor == user_2, 'debtor must be a registered user' );\r\n    require( bytes(_description).length < 35, 'Description too long' );\r\n\r\n    uint timeNow = timeStamp();\r\n\r\n    Tx memory newPendingTx;\r\n\r\n    /// set the other user as confirmer\r\n    newPendingTx.confirmer = getOtherUser(msg.sender);\r\n    /// If Tx cost was split, set the amounted owed to half of Tx amount\r\n    if (_split == true) {\r\n      newPendingTx.amount = _amount/2;\r\n    } else if(_split == false) {\r\n      newPendingTx.amount = _amount;\r\n    }\r\n    /// set remaining Tx attributes\r\n    newPendingTx.split = _split;\r\n    newPendingTx.creator = msg.sender;\r\n    newPendingTx.debtor = _debtor;\r\n    newPendingTx.description = _description;\r\n    newPendingTx.index = txCounter;\r\n    newPendingTx.timestamp = timeNow;\r\n\r\n    /// append new Tx to the confirmer's pending Tx array, and update Tx counter\r\n    pendingTransactions[newPendingTx.confirmer].push(newPendingTx);\r\n    txCounter = txCounter.add(1);\r\n\r\n    /// Update Tx lists\r\n    pendingTransactions_1 = pendingTransactions[user_1];\r\n    pendingTransactions_2 = pendingTransactions[user_2];\r\n  }\r\n\r\n  function confirmAll() onlyUser onlyBothRegistered public {\r\n    Tx[] storage allPendingTx = pendingTransactions[msg.sender];\r\n    Tx[] memory memAllPendingTx = allPendingTx;  /// copy pending Txs to memory\r\n\r\n    allPendingTx.length = 0; /// delete all pending txs in storage\r\n\r\n    int balanceChange  = 0;\r\n    /// Add all pending Txs to confirmed Tx list, and calculate the net change in balance\r\n    for (uint i = 0; i < memAllPendingTx.length; i++) {\r\n      confirmedTransactions.push(memAllPendingTx[i]);\r\n      balanceChange = balanceChange + changeInBalance(memAllPendingTx[i]);\r\n    }\r\n\r\n    /// update lists and balance\r\n    pendingTransactions_1 = pendingTransactions[user_1];\r\n    pendingTransactions_2 = pendingTransactions[user_2];\r\n    balance = balance + balanceChange;\r\n  }\r\n\r\n  function confirmSingleTx(uint _txIndex) onlyUser onlyBothRegistered public {\r\n    Tx[] storage allPendingTx =  pendingTransactions[msg.sender];\r\n\r\n    uint len = allPendingTx.length;\r\n    Tx memory transaction = allPendingTx[_txIndex];  /// copy Tx to memory\r\n\r\n    /** @dev delete transaction fron pendingTx list.\r\n    * This approach preserves array length, but not order:\r\n    */\r\n    delete allPendingTx[_txIndex]; /// delete Tx, leaving empty slot\r\n    allPendingTx[_txIndex] = allPendingTx[len - 1];  /// copy last Tx to empty slot\r\n    delete allPendingTx[len - 1];   /// delete the last Tx\r\n    allPendingTx.length--;  /// decrement array size by one to remove last (empty) slot\r\n\r\n    /// Append Tx to confirmed transactions list\r\n    confirmedTransactions.push(transaction);\r\n\r\n    /// Update lists and balance\r\n    pendingTransactions_1 = pendingTransactions[user_1];\r\n    pendingTransactions_2 = pendingTransactions[user_2];\r\n    balance = balance + changeInBalance(transaction);\r\n  }\r\n\r\n  /** Calculates balance from scratch from total confirmed Tx history,\r\n  * and checks it is equal to running balance.\r\n  */\r\n  function balanceHealthCheck () onlyUserOrFactoryOwner public view returns (int _testBal, int _bal, bool) {\r\n    int testBalance = 0;\r\n    for (uint i = 0; i < confirmedTransactions.length; i++) {\r\n      testBalance = testBalance + changeInBalance(confirmedTransactions[i]);\r\n    }\r\n\r\n    if (testBalance != balance) {\r\n      return(testBalance, balance, false);\r\n    } else if (testBalance == balance) {\r\n      return(testBalance, balance, true);\r\n    }\r\n  }\r\n\r\n  /// ****** Helper and getter functions ******\r\n\r\n  /// Return the change to a balance caused by a purchase\r\n  function changeInBalance(Tx memory _purchase) private view returns (int _change) {\r\n    int change = 0;\r\n    if (_purchase.debtor == user_1) {\r\n      change = -int(_purchase.amount);\r\n      return change;\r\n    } else if (_purchase.debtor == user_2) {\r\n      change = int(_purchase.amount);\r\n      return change;\r\n    }\r\n  }\r\n\r\n  function getOtherUser(address _user) private view returns (address) {\r\n    require(_user == user_1 || _user == user_2, 'user must be registered');\r\n    if (_user == user_1) {\r\n      return user_2;\r\n    } else if (_user == user_2) {\r\n      return user_1;\r\n    }\r\n  }\r\n\r\n  function timeStamp() private view returns (uint) {\r\n    return block.timestamp;\r\n  }\r\n\r\n  /// Length getters for lists of Txs\r\n  function getPendingTxsLength1() public view returns(uint) {\r\n    return pendingTransactions[user_1].length;\r\n  }\r\n\r\n  function getPendingTxsLength2() public view returns(uint) {\r\n    return pendingTransactions[user_2].length;\r\n  }\r\n\r\n  function getConfirmedTxsLength() public view returns(uint) {\r\n    return confirmedTransactions.length;\r\n  }\r\n\r\n  /// ****** Modifiers *****\r\n  modifier onlyUser {\r\n    require(msg.sender == user_1 || msg.sender == user_2, 'Must be a registered user');\r\n    _;\r\n  }\r\n\r\n  modifier onlyUserOrFactoryOwner {\r\n    require(msg.sender == parentFactoryOwner || (msg.sender == user_1 || msg.sender == user_2), 'Must be a registered user');\r\n    _;\r\n  }\r\n\r\n  modifier onlyUser1 {\r\n    require(msg.sender == user_1, 'Must be registered user 1');\r\n    _;\r\n  }\r\n\r\n  modifier onlyInvitedFriend {\r\n    require(msg.sender == invited_friend, 'Must be the invited friend');\r\n    _;\r\n  }\r\n\r\n  modifier onlyUser2NotRegistered {\r\n    require (user_2 == address(0), 'User 2 already registered');\r\n    _;\r\n  }\r\n\r\n  modifier onlyBothRegistered {\r\n    require (user_1 != address(0) && user_2 != address(0), 'Two users must be registered');\r\n    _;\r\n  }\r\n}\r\n",
  "sourcePath": "C:/Users/Administrator/Desktop/Solidity/EtherSplit/contracts/AgreementFactory.sol",
  "compiler": {
    "name": "solc",
    "version": "0.5.0+commit.1d4f565a.Emscripten.clang"
  },
  "schemaVersion": "3.0.0",
  "updatedAt": "2019-01-25T14:05:03.837Z",
  "devdoc": {
    "methods": {}
  },
  "userdoc": {
    "methods": {
      "getMyAgreementsCount()": {
        "notice": "Length getters and modifiers"
      },
      "newInvite(address)": {
        "notice": "Called by a child Agreement when a new account is invited to the child."
      },
      "newRegisteredUser(address)": {
        "notice": "Called by a child Agreement when a new user registers on the child."
      }
    },
    "notice": "EtherSplit dApp"
  }
}