{
  "contractName": "Agreement",
  "abi": [
    {
      "constant": true,
      "inputs": [],
      "name": "confirmedTxsLength",
      "outputs": [
        {
          "name": "",
          "type": "uint256"
        }
      ],
      "payable": false,
      "stateMutability": "view",
      "type": "function"
    },
    {
      "constant": true,
      "inputs": [
        {
          "name": "",
          "type": "address"
        },
        {
          "name": "",
          "type": "uint256"
        }
      ],
      "name": "pendingTransactions",
      "outputs": [
        {
          "name": "amount",
          "type": "uint256"
        },
        {
          "name": "split",
          "type": "bool"
        },
        {
          "name": "creator",
          "type": "address"
        },
        {
          "name": "confirmer",
          "type": "address"
        },
        {
          "name": "debtor",
          "type": "address"
        },
        {
          "name": "description",
          "type": "string"
        },
        {
          "name": "index",
          "type": "uint256"
        },
        {
          "name": "timestamp",
          "type": "uint256"
        }
      ],
      "payable": false,
      "stateMutability": "view",
      "type": "function"
    },
    {
      "constant": true,
      "inputs": [],
      "name": "pendingTxs1Length",
      "outputs": [
        {
          "name": "",
          "type": "uint256"
        }
      ],
      "payable": false,
      "stateMutability": "view",
      "type": "function"
    },
    {
      "constant": true,
      "inputs": [],
      "name": "user_2_name",
      "outputs": [
        {
          "name": "",
          "type": "string"
        }
      ],
      "payable": false,
      "stateMutability": "view",
      "type": "function"
    },
    {
      "constant": true,
      "inputs": [],
      "name": "invited_friend",
      "outputs": [
        {
          "name": "",
          "type": "address"
        }
      ],
      "payable": false,
      "stateMutability": "view",
      "type": "function"
    },
    {
      "constant": true,
      "inputs": [],
      "name": "txCounter",
      "outputs": [
        {
          "name": "",
          "type": "uint256"
        }
      ],
      "payable": false,
      "stateMutability": "view",
      "type": "function"
    },
    {
      "constant": true,
      "inputs": [],
      "name": "user_1_name",
      "outputs": [
        {
          "name": "",
          "type": "string"
        }
      ],
      "payable": false,
      "stateMutability": "view",
      "type": "function"
    },
    {
      "constant": true,
      "inputs": [
        {
          "name": "",
          "type": "uint256"
        }
      ],
      "name": "pendingTransactions_2",
      "outputs": [
        {
          "name": "amount",
          "type": "uint256"
        },
        {
          "name": "split",
          "type": "bool"
        },
        {
          "name": "creator",
          "type": "address"
        },
        {
          "name": "confirmer",
          "type": "address"
        },
        {
          "name": "debtor",
          "type": "address"
        },
        {
          "name": "description",
          "type": "string"
        },
        {
          "name": "index",
          "type": "uint256"
        },
        {
          "name": "timestamp",
          "type": "uint256"
        }
      ],
      "payable": false,
      "stateMutability": "view",
      "type": "function"
    },
    {
      "constant": true,
      "inputs": [
        {
          "name": "",
          "type": "uint256"
        }
      ],
      "name": "confirmedTransactions",
      "outputs": [
        {
          "name": "amount",
          "type": "uint256"
        },
        {
          "name": "split",
          "type": "bool"
        },
        {
          "name": "creator",
          "type": "address"
        },
        {
          "name": "confirmer",
          "type": "address"
        },
        {
          "name": "debtor",
          "type": "address"
        },
        {
          "name": "description",
          "type": "string"
        },
        {
          "name": "index",
          "type": "uint256"
        },
        {
          "name": "timestamp",
          "type": "uint256"
        }
      ],
      "payable": false,
      "stateMutability": "view",
      "type": "function"
    },
    {
      "constant": true,
      "inputs": [],
      "name": "parentFactory",
      "outputs": [
        {
          "name": "",
          "type": "address"
        }
      ],
      "payable": false,
      "stateMutability": "view",
      "type": "function"
    },
    {
      "constant": true,
      "inputs": [],
      "name": "balance",
      "outputs": [
        {
          "name": "",
          "type": "int256"
        }
      ],
      "payable": false,
      "stateMutability": "view",
      "type": "function"
    },
    {
      "constant": true,
      "inputs": [
        {
          "name": "",
          "type": "uint256"
        }
      ],
      "name": "pendingTransactions_1",
      "outputs": [
        {
          "name": "amount",
          "type": "uint256"
        },
        {
          "name": "split",
          "type": "bool"
        },
        {
          "name": "creator",
          "type": "address"
        },
        {
          "name": "confirmer",
          "type": "address"
        },
        {
          "name": "debtor",
          "type": "address"
        },
        {
          "name": "description",
          "type": "string"
        },
        {
          "name": "index",
          "type": "uint256"
        },
        {
          "name": "timestamp",
          "type": "uint256"
        }
      ],
      "payable": false,
      "stateMutability": "view",
      "type": "function"
    },
    {
      "constant": true,
      "inputs": [],
      "name": "pendingTxs2Length",
      "outputs": [
        {
          "name": "",
          "type": "uint256"
        }
      ],
      "payable": false,
      "stateMutability": "view",
      "type": "function"
    },
    {
      "constant": true,
      "inputs": [],
      "name": "user_1",
      "outputs": [
        {
          "name": "",
          "type": "address"
        }
      ],
      "payable": false,
      "stateMutability": "view",
      "type": "function"
    },
    {
      "constant": true,
      "inputs": [],
      "name": "user_2",
      "outputs": [
        {
          "name": "",
          "type": "address"
        }
      ],
      "payable": false,
      "stateMutability": "view",
      "type": "function"
    },
    {
      "inputs": [
        {
          "name": "_creator",
          "type": "address"
        }
      ],
      "payable": false,
      "stateMutability": "nonpayable",
      "type": "constructor"
    },
    {
      "constant": false,
      "inputs": [
        {
          "name": "_name",
          "type": "string"
        }
      ],
      "name": "setName",
      "outputs": [],
      "payable": false,
      "stateMutability": "nonpayable",
      "type": "function"
    },
    {
      "constant": false,
      "inputs": [
        {
          "name": "_friend",
          "type": "address"
        }
      ],
      "name": "inviteFriend",
      "outputs": [],
      "payable": false,
      "stateMutability": "nonpayable",
      "type": "function"
    },
    {
      "constant": false,
      "inputs": [],
      "name": "registerUser2",
      "outputs": [],
      "payable": false,
      "stateMutability": "nonpayable",
      "type": "function"
    },
    {
      "constant": false,
      "inputs": [
        {
          "name": "_amount",
          "type": "uint256"
        },
        {
          "name": "_split",
          "type": "bool"
        },
        {
          "name": "_debtor",
          "type": "address"
        },
        {
          "name": "_description",
          "type": "string"
        }
      ],
      "name": "createPending",
      "outputs": [],
      "payable": false,
      "stateMutability": "nonpayable",
      "type": "function"
    },
    {
      "constant": false,
      "inputs": [],
      "name": "confirmAll",
      "outputs": [],
      "payable": false,
      "stateMutability": "nonpayable",
      "type": "function"
    },
    {
      "constant": false,
      "inputs": [
        {
          "name": "_txIndex",
          "type": "uint256"
        }
      ],
      "name": "confirmSingleTx",
      "outputs": [],
      "payable": false,
      "stateMutability": "nonpayable",
      "type": "function"
    },
    {
      "constant": true,
      "inputs": [],
      "name": "balanceHealthCheck",
      "outputs": [
        {
          "name": "_testBal",
          "type": "int256"
        },
        {
          "name": "_bal",
          "type": "int256"
        },
        {
          "name": "",
          "type": "bool"
        }
      ],
      "payable": false,
      "stateMutability": "view",
      "type": "function"
    }
  ],
  "bytecode": "0x6080604052600b6000600160009054906101000a900473ffffffffffffffffffffffffffffffffffffffff1673ffffffffffffffffffffffffffffffffffffffff1673ffffffffffffffffffffffffffffffffffffffff168152602001908152602001600020600c90805462000077929190620001b4565b50600b6000600360009054906101000a900473ffffffffffffffffffffffffffffffffffffffff1673ffffffffffffffffffffffffffffffffffffffff1673ffffffffffffffffffffffffffffffffffffffff168152602001908152602001600020600d908054620000eb929190620001b4565b50348015620000f957600080fd5b5060405160208062004be5833981018060405260208110156200011b57600080fd5b8101908080519060200190929190505050336000806101000a81548173ffffffffffffffffffffffffffffffffffffffff021916908373ffffffffffffffffffffffffffffffffffffffff16021790555080600160006101000a81548173ffffffffffffffffffffffffffffffffffffffff021916908373ffffffffffffffffffffffffffffffffffffffff1602179055505062000592565b828054828255906000526020600020906007028101928215620003a85760005260206000209160070282015b82811115620003a7578282600082015481600001556001820160009054906101000a900460ff168160010160006101000a81548160ff0219169083151502179055506001820160019054906101000a900473ffffffffffffffffffffffffffffffffffffffff168160010160016101000a81548173ffffffffffffffffffffffffffffffffffffffff021916908373ffffffffffffffffffffffffffffffffffffffff1602179055506002820160009054906101000a900473ffffffffffffffffffffffffffffffffffffffff168160020160006101000a81548173ffffffffffffffffffffffffffffffffffffffff021916908373ffffffffffffffffffffffffffffffffffffffff1602179055506003820160009054906101000a900473ffffffffffffffffffffffffffffffffffffffff168160030160006101000a81548173ffffffffffffffffffffffffffffffffffffffff021916908373ffffffffffffffffffffffffffffffffffffffff1602179055506004820181600401908054600181600116156101000203166002900462000380929190620003bb565b506005820154816005015560068201548160060155505091600701919060070190620001e0565b5b509050620003b7919062000449565b5090565b828054600181600116156101000203166002900490600052602060002090601f016020900481019282601f10620003f6578054855562000436565b828001600101855582156200043657600052602060002091601f016020900482015b828111156200043557825482559160010191906001019062000418565b5b5090506200044591906200051e565b5090565b6200051b91905b8082111562000517576000808201600090556001820160006101000a81549060ff02191690556001820160016101000a81549073ffffffffffffffffffffffffffffffffffffffff02191690556002820160006101000a81549073ffffffffffffffffffffffffffffffffffffffff02191690556003820160006101000a81549073ffffffffffffffffffffffffffffffffffffffff0219169055600482016000620004fd919062000546565b600582016000905560068201600090555060070162000450565b5090565b90565b6200054391905b808211156200053f57600081600090555060010162000525565b5090565b90565b50805460018160011615610100020316600290046000825580601f106200056e57506200058f565b601f0160209004906000526020600020908101906200058e91906200051e565b5b50565b61464380620005a26000396000f3fe608060405260043610610128576000357c0100000000000000000000000000000000000000000000000000000000900463ffffffff168063046d9fa01461012d5780630e13ff761461016a578063218b0e98146101a5578063389880bc146101d05780634044db5c1461035d578063616555621461038857806361c499731461039f57806370b637591461042f57806374f079b81461048657806389aded41146104b157806392ecd6af146104c857806397abe18614610558578063993d7c2d146106c55780639d35c16114610832578063b69ef8a814610889578063b86ff9b3146108b4578063bd7c535114610a21578063be7493b314610a72578063c47f002714610a9d578063c9f85b7514610b65578063f1e96c2714610c63578063fd7a567c14610cba575b600080fd5b34801561013957600080fd5b50610142610d11565b6040518084815260200183815260200182151515158152602001935050505060405180910390f35b34801561017657600080fd5b506101a36004803603602081101561018d57600080fd5b81019080803590602001909291905050506110ac565b005b3480156101b157600080fd5b506101ba611b6d565b6040518082815260200191505060405180910390f35b3480156101dc57600080fd5b50610229600480360360408110156101f357600080fd5b81019080803573ffffffffffffffffffffffffffffffffffffffff16906020019092919080359060200190929190505050611b73565b60405180898152602001881515151581526020018773ffffffffffffffffffffffffffffffffffffffff1673ffffffffffffffffffffffffffffffffffffffff1681526020018673ffffffffffffffffffffffffffffffffffffffff1673ffffffffffffffffffffffffffffffffffffffff1681526020018573ffffffffffffffffffffffffffffffffffffffff1673ffffffffffffffffffffffffffffffffffffffff16815260200180602001848152602001838152602001828103825285818151815260200191508051906020019080838360005b8381101561031b578082015181840152602081019050610300565b50505050905090810190601f1680156103485780820380516001836020036101000a031916815260200191505b50995050505050505050505060405180910390f35b34801561036957600080fd5b50610372611cdc565b6040518082815260200191505060405180910390f35b34801561039457600080fd5b5061039d611ce2565b005b3480156103ab57600080fd5b506103b4612489565b6040518080602001828103825283818151815260200191508051906020019080838360005b838110156103f45780820151818401526020810190506103d9565b50505050905090810190601f1680156104215780820380516001836020036101000a031916815260200191505b509250505060405180910390f35b34801561043b57600080fd5b50610444612527565b604051808273ffffffffffffffffffffffffffffffffffffffff1673ffffffffffffffffffffffffffffffffffffffff16815260200191505060405180910390f35b34801561049257600080fd5b5061049b61254d565b6040518082815260200191505060405180910390f35b3480156104bd57600080fd5b506104c6612553565b005b3480156104d457600080fd5b506104dd612879565b6040518080602001828103825283818151815260200191508051906020019080838360005b8381101561051d578082015181840152602081019050610502565b50505050905090810190601f16801561054a5780820380516001836020036101000a031916815260200191505b509250505060405180910390f35b34801561056457600080fd5b506105916004803603602081101561057b57600080fd5b8101908080359060200190929190505050612917565b60405180898152602001881515151581526020018773ffffffffffffffffffffffffffffffffffffffff1673ffffffffffffffffffffffffffffffffffffffff1681526020018673ffffffffffffffffffffffffffffffffffffffff1673ffffffffffffffffffffffffffffffffffffffff1681526020018573ffffffffffffffffffffffffffffffffffffffff1673ffffffffffffffffffffffffffffffffffffffff16815260200180602001848152602001838152602001828103825285818151815260200191508051906020019080838360005b83811015610683578082015181840152602081019050610668565b50505050905090810190601f1680156106b05780820380516001836020036101000a031916815260200191505b50995050505050505050505060405180910390f35b3480156106d157600080fd5b506106fe600480360360208110156106e857600080fd5b8101908080359060200190929190505050612a73565b60405180898152602001881515151581526020018773ffffffffffffffffffffffffffffffffffffffff1673ffffffffffffffffffffffffffffffffffffffff1681526020018673ffffffffffffffffffffffffffffffffffffffff1673ffffffffffffffffffffffffffffffffffffffff1681526020018573ffffffffffffffffffffffffffffffffffffffff1673ffffffffffffffffffffffffffffffffffffffff16815260200180602001848152602001838152602001828103825285818151815260200191508051906020019080838360005b838110156107f05780820151818401526020810190506107d5565b50505050905090810190601f16801561081d5780820380516001836020036101000a031916815260200191505b50995050505050505050505060405180910390f35b34801561083e57600080fd5b50610847612bcf565b604051808273ffffffffffffffffffffffffffffffffffffffff1673ffffffffffffffffffffffffffffffffffffffff16815260200191505060405180910390f35b34801561089557600080fd5b5061089e612bf4565b6040518082815260200191505060405180910390f35b3480156108c057600080fd5b506108ed600480360360208110156108d757600080fd5b8101908080359060200190929190505050612bfa565b60405180898152602001881515151581526020018773ffffffffffffffffffffffffffffffffffffffff1673ffffffffffffffffffffffffffffffffffffffff1681526020018673ffffffffffffffffffffffffffffffffffffffff1673ffffffffffffffffffffffffffffffffffffffff1681526020018573ffffffffffffffffffffffffffffffffffffffff1673ffffffffffffffffffffffffffffffffffffffff16815260200180602001848152602001838152602001828103825285818151815260200191508051906020019080838360005b838110156109df5780820151818401526020810190506109c4565b50505050905090810190601f168015610a0c5780820380516001836020036101000a031916815260200191505b50995050505050505050505060405180910390f35b348015610a2d57600080fd5b50610a7060048036036020811015610a4457600080fd5b81019080803573ffffffffffffffffffffffffffffffffffffffff169060200190929190505050612d56565b005b348015610a7e57600080fd5b50610a8761318f565b6040518082815260200191505060405180910390f35b348015610aa957600080fd5b50610b6360048036036020811015610ac057600080fd5b8101908080359060200190640100000000811115610add57600080fd5b820183602082011115610aef57600080fd5b80359060200191846001830284011164010000000083111715610b1157600080fd5b91908080601f016020809104026020016040519081016040528093929190818152602001838380828437600081840152601f19601f820116905080830192505050505050509192919290505050613195565b005b348015610b7157600080fd5b50610c6160048036036080811015610b8857600080fd5b8101908080359060200190929190803515159060200190929190803573ffffffffffffffffffffffffffffffffffffffff16906020019092919080359060200190640100000000811115610bdb57600080fd5b820183602082011115610bed57600080fd5b80359060200191846001830284011164010000000083111715610c0f57600080fd5b91908080601f016020809104026020016040519081016040528093929190818152602001838380828437600081840152601f19601f8201169050808301925050505050505091929192905050506134b2565b005b348015610c6f57600080fd5b50610c78613c3a565b604051808273ffffffffffffffffffffffffffffffffffffffff1673ffffffffffffffffffffffffffffffffffffffff16815260200191505060405180910390f35b348015610cc657600080fd5b50610ccf613c60565b604051808273ffffffffffffffffffffffffffffffffffffffff1673ffffffffffffffffffffffffffffffffffffffff16815260200191505060405180910390f35b6000806000600160009054906101000a900473ffffffffffffffffffffffffffffffffffffffff1673ffffffffffffffffffffffffffffffffffffffff163373ffffffffffffffffffffffffffffffffffffffff161480610dbf5750600360009054906101000a900473ffffffffffffffffffffffffffffffffffffffff1673ffffffffffffffffffffffffffffffffffffffff163373ffffffffffffffffffffffffffffffffffffffff16145b1515610e33576040517f08c379a00000000000000000000000000000000000000000000000000000000081526004018080602001828103825260198152602001807f4d7573742062652061207265676973746572656420757365720000000000000081525060200191505060405180910390fd5b600080905060008090505b600e8054905081101561106b5761105a600e82815481101515610e5d57fe5b90600052602060002090600702016101006040519081016040529081600082015481526020016001820160009054906101000a900460ff161515151581526020016001820160019054906101000a900473ffffffffffffffffffffffffffffffffffffffff1673ffffffffffffffffffffffffffffffffffffffff1673ffffffffffffffffffffffffffffffffffffffff1681526020016002820160009054906101000a900473ffffffffffffffffffffffffffffffffffffffff1673ffffffffffffffffffffffffffffffffffffffff1673ffffffffffffffffffffffffffffffffffffffff1681526020016003820160009054906101000a900473ffffffffffffffffffffffffffffffffffffffff1673ffffffffffffffffffffffffffffffffffffffff1673ffffffffffffffffffffffffffffffffffffffff168152602001600482018054600181600116156101000203166002900480601f0160208091040260200160405190810160405280929190818152602001828054600181600116156101000203166002900480156110385780601f1061100d57610100808354040283529160200191611038565b820191906000526020600020905b81548152906001019060200180831161101b57829003601f168201915b5050505050815260200160058201548152602001600682015481525050613c86565b820191508080600101915050610e3e565b506006548114151561108957806006546000935093509350506110a7565b6006548114156110a557806006546001935093509350506110a7565b505b909192565b600160009054906101000a900473ffffffffffffffffffffffffffffffffffffffff1673ffffffffffffffffffffffffffffffffffffffff163373ffffffffffffffffffffffffffffffffffffffff1614806111555750600360009054906101000a900473ffffffffffffffffffffffffffffffffffffffff1673ffffffffffffffffffffffffffffffffffffffff163373ffffffffffffffffffffffffffffffffffffffff16145b15156111c9576040517f08c379a00000000000000000000000000000000000000000000000000000000081526004018080602001828103825260198152602001807f4d7573742062652061207265676973746572656420757365720000000000000081525060200191505060405180910390fd5b600073ffffffffffffffffffffffffffffffffffffffff16600160009054906101000a900473ffffffffffffffffffffffffffffffffffffffff1673ffffffffffffffffffffffffffffffffffffffff16141580156112775750600073ffffffffffffffffffffffffffffffffffffffff16600360009054906101000a900473ffffffffffffffffffffffffffffffffffffffff1673ffffffffffffffffffffffffffffffffffffffff1614155b15156112eb576040517f08c379a000000000000000000000000000000000000000000000000000000000815260040180806020018281038252601c8152602001807f54776f207573657273206d75737420626520726567697374657265640000000081525060200191505060405180910390fd5b6000600b60003373ffffffffffffffffffffffffffffffffffffffff1673ffffffffffffffffffffffffffffffffffffffff168152602001908152602001600020905060008180549050905061133f614097565b828481548110151561134d57fe5b90600052602060002090600702016101006040519081016040529081600082015481526020016001820160009054906101000a900460ff161515151581526020016001820160019054906101000a900473ffffffffffffffffffffffffffffffffffffffff1673ffffffffffffffffffffffffffffffffffffffff1673ffffffffffffffffffffffffffffffffffffffff1681526020016002820160009054906101000a900473ffffffffffffffffffffffffffffffffffffffff1673ffffffffffffffffffffffffffffffffffffffff1673ffffffffffffffffffffffffffffffffffffffff1681526020016003820160009054906101000a900473ffffffffffffffffffffffffffffffffffffffff1673ffffffffffffffffffffffffffffffffffffffff1673ffffffffffffffffffffffffffffffffffffffff168152602001600482018054600181600116156101000203166002900480601f0160208091040260200160405190810160405280929190818152602001828054600181600116156101000203166002900480156115285780601f106114fd57610100808354040283529160200191611528565b820191906000526020600020905b81548152906001019060200180831161150b57829003601f168201915b50505050508152602001600582015481526020016006820154815250509050828481548110151561155557fe5b90600052602060002090600702016000808201600090556001820160006101000a81549060ff02191690556001820160016101000a81549073ffffffffffffffffffffffffffffffffffffffff02191690556002820160006101000a81549073ffffffffffffffffffffffffffffffffffffffff02191690556003820160006101000a81549073ffffffffffffffffffffffffffffffffffffffff02191690556004820160006116059190614121565b600582016000905560068201600090555050826001830381548110151561162857fe5b9060005260206000209060070201838581548110151561164457fe5b9060005260206000209060070201600082015481600001556001820160009054906101000a900460ff168160010160006101000a81548160ff0219169083151502179055506001820160019054906101000a900473ffffffffffffffffffffffffffffffffffffffff168160010160016101000a81548173ffffffffffffffffffffffffffffffffffffffff021916908373ffffffffffffffffffffffffffffffffffffffff1602179055506002820160009054906101000a900473ffffffffffffffffffffffffffffffffffffffff168160020160006101000a81548173ffffffffffffffffffffffffffffffffffffffff021916908373ffffffffffffffffffffffffffffffffffffffff1602179055506003820160009054906101000a900473ffffffffffffffffffffffffffffffffffffffff168160030160006101000a81548173ffffffffffffffffffffffffffffffffffffffff021916908373ffffffffffffffffffffffffffffffffffffffff160217905550600482018160040190805460018160011615610100020316600290046117e5929190614169565b506005820154816005015560068201548160060155905050826001830381548110151561180e57fe5b90600052602060002090600702016000808201600090556001820160006101000a81549060ff02191690556001820160016101000a81549073ffffffffffffffffffffffffffffffffffffffff02191690556002820160006101000a81549073ffffffffffffffffffffffffffffffffffffffff02191690556003820160006101000a81549073ffffffffffffffffffffffffffffffffffffffff02191690556004820160006118be9190614121565b600582016000905560068201600090555050828054809190600190036118e491906141f0565b50600e81908060018154018082558091505090600182039060005260206000209060070201600090919290919091506000820151816000015560208201518160010160006101000a81548160ff02191690831515021790555060408201518160010160016101000a81548173ffffffffffffffffffffffffffffffffffffffff021916908373ffffffffffffffffffffffffffffffffffffffff16021790555060608201518160020160006101000a81548173ffffffffffffffffffffffffffffffffffffffff021916908373ffffffffffffffffffffffffffffffffffffffff16021790555060808201518160030160006101000a81548173ffffffffffffffffffffffffffffffffffffffff021916908373ffffffffffffffffffffffffffffffffffffffff16021790555060a0820151816004019080519060200190611a2e929190614222565b5060c0820151816005015560e08201518160060155505050600b6000600160009054906101000a900473ffffffffffffffffffffffffffffffffffffffff1673ffffffffffffffffffffffffffffffffffffffff1673ffffffffffffffffffffffffffffffffffffffff168152602001908152602001600020600c908054611ab79291906142a2565b50600b6000600360009054906101000a900473ffffffffffffffffffffffffffffffffffffffff1673ffffffffffffffffffffffffffffffffffffffff1673ffffffffffffffffffffffffffffffffffffffff168152602001908152602001600020600d908054611b299291906142a2565b50611b32613d85565b600881905550611b40613df1565b600981905550611b4e613e5d565b600a81905550611b5d81613c86565b6006540160068190555050505050565b600a5481565b600b60205281600052604060002081815481101515611b8e57fe5b9060005260206000209060070201600091509150508060000154908060010160009054906101000a900460ff16908060010160019054906101000a900473ffffffffffffffffffffffffffffffffffffffff16908060020160009054906101000a900473ffffffffffffffffffffffffffffffffffffffff16908060030160009054906101000a900473ffffffffffffffffffffffffffffffffffffffff1690806004018054600181600116156101000203166002900480601f016020809104026020016040519081016040528092919081815260200182805460018160011615610100020316600290048015611cc65780601f10611c9b57610100808354040283529160200191611cc6565b820191906000526020600020905b815481529060010190602001808311611ca957829003601f168201915b5050505050908060050154908060060154905088565b60085481565b600160009054906101000a900473ffffffffffffffffffffffffffffffffffffffff1673ffffffffffffffffffffffffffffffffffffffff163373ffffffffffffffffffffffffffffffffffffffff161480611d8b5750600360009054906101000a900473ffffffffffffffffffffffffffffffffffffffff1673ffffffffffffffffffffffffffffffffffffffff163373ffffffffffffffffffffffffffffffffffffffff16145b1515611dff576040517f08c379a00000000000000000000000000000000000000000000000000000000081526004018080602001828103825260198152602001807f4d7573742062652061207265676973746572656420757365720000000000000081525060200191505060405180910390fd5b600073ffffffffffffffffffffffffffffffffffffffff16600160009054906101000a900473ffffffffffffffffffffffffffffffffffffffff1673ffffffffffffffffffffffffffffffffffffffff1614158015611ead5750600073ffffffffffffffffffffffffffffffffffffffff16600360009054906101000a900473ffffffffffffffffffffffffffffffffffffffff1673ffffffffffffffffffffffffffffffffffffffff1614155b1515611f21576040517f08c379a000000000000000000000000000000000000000000000000000000000815260040180806020018281038252601c8152602001807f54776f207573657273206d75737420626520726567697374657265640000000081525060200191505060405180910390fd5b6000600b60003373ffffffffffffffffffffffffffffffffffffffff1673ffffffffffffffffffffffffffffffffffffffff1681526020019081526020016000209050606081805480602002602001604051908101604052809291908181526020016000905b8282101561219857838290600052602060002090600702016101006040519081016040529081600082015481526020016001820160009054906101000a900460ff161515151581526020016001820160019054906101000a900473ffffffffffffffffffffffffffffffffffffffff1673ffffffffffffffffffffffffffffffffffffffff1673ffffffffffffffffffffffffffffffffffffffff1681526020016002820160009054906101000a900473ffffffffffffffffffffffffffffffffffffffff1673ffffffffffffffffffffffffffffffffffffffff1673ffffffffffffffffffffffffffffffffffffffff1681526020016003820160009054906101000a900473ffffffffffffffffffffffffffffffffffffffff1673ffffffffffffffffffffffffffffffffffffffff1673ffffffffffffffffffffffffffffffffffffffff168152602001600482018054600181600116156101000203166002900480601f01602080910402602001604051908101604052809291908181526020018280546001816001161561010002031660029004801561216c5780601f106121415761010080835404028352916020019161216c565b820191906000526020600020905b81548152906001019060200180831161214f57829003601f168201915b505050505081526020016005820154815260200160068201548152505081526020019060010190611f87565b505050509050600082816121ac91906141f0565b50600080905060008090505b825181101561236a57600e83828151811015156121d157fe5b90602001906020020151908060018154018082558091505090600182039060005260206000209060070201600090919290919091506000820151816000015560208201518160010160006101000a81548160ff02191690831515021790555060408201518160010160016101000a81548173ffffffffffffffffffffffffffffffffffffffff021916908373ffffffffffffffffffffffffffffffffffffffff16021790555060608201518160020160006101000a81548173ffffffffffffffffffffffffffffffffffffffff021916908373ffffffffffffffffffffffffffffffffffffffff16021790555060808201518160030160006101000a81548173ffffffffffffffffffffffffffffffffffffffff021916908373ffffffffffffffffffffffffffffffffffffffff16021790555060a0820151816004019080519060200190612321929190614222565b5060c0820151816005015560e08201518160060155505050612359838281518110151561234a57fe5b90602001906020020151613c86565b8201915080806001019150506121b8565b50600b6000600160009054906101000a900473ffffffffffffffffffffffffffffffffffffffff1673ffffffffffffffffffffffffffffffffffffffff1673ffffffffffffffffffffffffffffffffffffffff168152602001908152602001600020600c9080546123dc9291906142a2565b50600b6000600360009054906101000a900473ffffffffffffffffffffffffffffffffffffffff1673ffffffffffffffffffffffffffffffffffffffff1673ffffffffffffffffffffffffffffffffffffffff168152602001908152602001600020600d90805461244e9291906142a2565b50612457613d85565b600881905550612465613df1565b600981905550612473613e5d565b600a819055508060065401600681905550505050565b60058054600181600116156101000203166002900480601f01602080910402602001604051908101604052809291908181526020018280546001816001161561010002031660029004801561251f5780601f106124f45761010080835404028352916020019161251f565b820191906000526020600020905b81548152906001019060200180831161250257829003601f168201915b505050505081565b600260009054906101000a900473ffffffffffffffffffffffffffffffffffffffff1681565b60075481565b600260009054906101000a900473ffffffffffffffffffffffffffffffffffffffff1673ffffffffffffffffffffffffffffffffffffffff163373ffffffffffffffffffffffffffffffffffffffff16141515612618576040517f08c379a000000000000000000000000000000000000000000000000000000000815260040180806020018281038252601a8152602001807f4d7573742062652074686520696e766974656420667269656e6400000000000081525060200191505060405180910390fd5b600073ffffffffffffffffffffffffffffffffffffffff16600360009054906101000a900473ffffffffffffffffffffffffffffffffffffffff1673ffffffffffffffffffffffffffffffffffffffff161415156126de576040517f08c379a00000000000000000000000000000000000000000000000000000000081526004018080602001828103825260198152602001807f55736572203220616c726561647920726567697374657265640000000000000081525060200191505060405180910390fd5b33600360006101000a81548173ffffffffffffffffffffffffffffffffffffffff021916908373ffffffffffffffffffffffffffffffffffffffff1602179055503373ffffffffffffffffffffffffffffffffffffffff16600360009054906101000a900473ffffffffffffffffffffffffffffffffffffffff1673ffffffffffffffffffffffffffffffffffffffff1614151561277b57600080fd5b60008060009054906101000a900473ffffffffffffffffffffffffffffffffffffffff1690508073ffffffffffffffffffffffffffffffffffffffff16634760404e600360009054906101000a900473ffffffffffffffffffffffffffffffffffffffff166040518263ffffffff167c0100000000000000000000000000000000000000000000000000000000028152600401808273ffffffffffffffffffffffffffffffffffffffff1673ffffffffffffffffffffffffffffffffffffffff168152602001915050600060405180830381600087803b15801561285e57600080fd5b505af1158015612872573d6000803e3d6000fd5b5050505050565b60048054600181600116156101000203166002900480601f01602080910402602001604051908101604052809291908181526020018280546001816001161561010002031660029004801561290f5780601f106128e45761010080835404028352916020019161290f565b820191906000526020600020905b8154815290600101906020018083116128f257829003601f168201915b505050505081565b600d8181548110151561292657fe5b90600052602060002090600702016000915090508060000154908060010160009054906101000a900460ff16908060010160019054906101000a900473ffffffffffffffffffffffffffffffffffffffff16908060020160009054906101000a900473ffffffffffffffffffffffffffffffffffffffff16908060030160009054906101000a900473ffffffffffffffffffffffffffffffffffffffff1690806004018054600181600116156101000203166002900480601f016020809104026020016040519081016040528092919081815260200182805460018160011615610100020316600290048015612a5d5780601f10612a3257610100808354040283529160200191612a5d565b820191906000526020600020905b815481529060010190602001808311612a4057829003601f168201915b5050505050908060050154908060060154905088565b600e81815481101515612a8257fe5b90600052602060002090600702016000915090508060000154908060010160009054906101000a900460ff16908060010160019054906101000a900473ffffffffffffffffffffffffffffffffffffffff16908060020160009054906101000a900473ffffffffffffffffffffffffffffffffffffffff16908060030160009054906101000a900473ffffffffffffffffffffffffffffffffffffffff1690806004018054600181600116156101000203166002900480601f016020809104026020016040519081016040528092919081815260200182805460018160011615610100020316600290048015612bb95780601f10612b8e57610100808354040283529160200191612bb9565b820191906000526020600020905b815481529060010190602001808311612b9c57829003601f168201915b5050505050908060050154908060060154905088565b6000809054906101000a900473ffffffffffffffffffffffffffffffffffffffff1681565b60065481565b600c81815481101515612c0957fe5b90600052602060002090600702016000915090508060000154908060010160009054906101000a900460ff16908060010160019054906101000a900473ffffffffffffffffffffffffffffffffffffffff16908060020160009054906101000a900473ffffffffffffffffffffffffffffffffffffffff16908060030160009054906101000a900473ffffffffffffffffffffffffffffffffffffffff1690806004018054600181600116156101000203166002900480601f016020809104026020016040519081016040528092919081815260200182805460018160011615610100020316600290048015612d405780601f10612d1557610100808354040283529160200191612d40565b820191906000526020600020905b815481529060010190602001808311612d2357829003601f168201915b5050505050908060050154908060060154905088565b600160009054906101000a900473ffffffffffffffffffffffffffffffffffffffff1673ffffffffffffffffffffffffffffffffffffffff163373ffffffffffffffffffffffffffffffffffffffff16141515612e1b576040517f08c379a00000000000000000000000000000000000000000000000000000000081526004018080602001828103825260198152602001807f4d7573742062652072656769737465726564207573657220310000000000000081525060200191505060405180910390fd5b600073ffffffffffffffffffffffffffffffffffffffff16600360009054906101000a900473ffffffffffffffffffffffffffffffffffffffff1673ffffffffffffffffffffffffffffffffffffffff16141515612ee1576040517f08c379a00000000000000000000000000000000000000000000000000000000081526004018080602001828103825260198152602001807f55736572203220616c726561647920726567697374657265640000000000000081525060200191505060405180910390fd5b3373ffffffffffffffffffffffffffffffffffffffff168173ffffffffffffffffffffffffffffffffffffffff1614151515612f85576040517f08c379a00000000000000000000000000000000000000000000000000000000081526004018080602001828103825260198152602001807f596f752063616e7420696e7669746520796f757273656c66210000000000000081525060200191505060405180910390fd5b600073ffffffffffffffffffffffffffffffffffffffff16600260009054906101000a900473ffffffffffffffffffffffffffffffffffffffff1673ffffffffffffffffffffffffffffffffffffffff16141515613071576040517f08c379a00000000000000000000000000000000000000000000000000000000081526004018080602001828103825260218152602001807f596f75206861766520616c726561647920696e766974656420736f6d656f6e6581526020017f210000000000000000000000000000000000000000000000000000000000000081525060400191505060405180910390fd5b80600260006101000a81548173ffffffffffffffffffffffffffffffffffffffff021916908373ffffffffffffffffffffffffffffffffffffffff16021790555060008060009054906101000a900473ffffffffffffffffffffffffffffffffffffffff1690508073ffffffffffffffffffffffffffffffffffffffff1663cfe4ce89836040518263ffffffff167c0100000000000000000000000000000000000000000000000000000000028152600401808273ffffffffffffffffffffffffffffffffffffffff1673ffffffffffffffffffffffffffffffffffffffff168152602001915050600060405180830381600087803b15801561317357600080fd5b505af1158015613187573d6000803e3d6000fd5b505050505050565b60095481565b600160009054906101000a900473ffffffffffffffffffffffffffffffffffffffff1673ffffffffffffffffffffffffffffffffffffffff163373ffffffffffffffffffffffffffffffffffffffff16148061323e5750600360009054906101000a900473ffffffffffffffffffffffffffffffffffffffff1673ffffffffffffffffffffffffffffffffffffffff163373ffffffffffffffffffffffffffffffffffffffff16145b15156132b2576040517f08c379a00000000000000000000000000000000000000000000000000000000081526004018080602001828103825260198152602001807f4d7573742062652061207265676973746572656420757365720000000000000081525060200191505060405180910390fd5b600160009054906101000a900473ffffffffffffffffffffffffffffffffffffffff1673ffffffffffffffffffffffffffffffffffffffff163373ffffffffffffffffffffffffffffffffffffffff1614156133b25760006004805460018160011615610100020316600290049050141515613396576040517f08c379a000000000000000000000000000000000000000000000000000000000815260040180806020018281038252601a8152602001807f596f7520616c72656164792073657420796f7572206e616d652100000000000081525060200191505060405180910390fd5b80600490805190602001906133ac9291906144a2565b506134af565b600360009054906101000a900473ffffffffffffffffffffffffffffffffffffffff1673ffffffffffffffffffffffffffffffffffffffff163373ffffffffffffffffffffffffffffffffffffffff1614156134ae5760006005805460018160011615610100020316600290049050141515613496576040517f08c379a000000000000000000000000000000000000000000000000000000000815260040180806020018281038252601a8152602001807f596f7520616c72656164792073657420796f7572206e616d652100000000000081525060200191505060405180910390fd5b80600590805190602001906134ac9291906144a2565b505b5b50565b600160009054906101000a900473ffffffffffffffffffffffffffffffffffffffff1673ffffffffffffffffffffffffffffffffffffffff163373ffffffffffffffffffffffffffffffffffffffff16148061355b5750600360009054906101000a900473ffffffffffffffffffffffffffffffffffffffff1673ffffffffffffffffffffffffffffffffffffffff163373ffffffffffffffffffffffffffffffffffffffff16145b15156135cf576040517f08c379a00000000000000000000000000000000000000000000000000000000081526004018080602001828103825260198152602001807f4d7573742062652061207265676973746572656420757365720000000000000081525060200191505060405180910390fd5b600073ffffffffffffffffffffffffffffffffffffffff16600160009054906101000a900473ffffffffffffffffffffffffffffffffffffffff1673ffffffffffffffffffffffffffffffffffffffff161415801561367d5750600073ffffffffffffffffffffffffffffffffffffffff16600360009054906101000a900473ffffffffffffffffffffffffffffffffffffffff1673ffffffffffffffffffffffffffffffffffffffff1614155b15156136f1576040517f08c379a000000000000000000000000000000000000000000000000000000000815260040180806020018281038252601c8152602001807f54776f207573657273206d75737420626520726567697374657265640000000081525060200191505060405180910390fd5b600160009054906101000a900473ffffffffffffffffffffffffffffffffffffffff1673ffffffffffffffffffffffffffffffffffffffff168273ffffffffffffffffffffffffffffffffffffffff16148061379a5750600360009054906101000a900473ffffffffffffffffffffffffffffffffffffffff1673ffffffffffffffffffffffffffffffffffffffff168273ffffffffffffffffffffffffffffffffffffffff16145b151561380e576040517f08c379a00000000000000000000000000000000000000000000000000000000081526004018080602001828103825260208152602001807f646562746f72206d75737420626520612072656769737465726564207573657281525060200191505060405180910390fd5b60238151101515613887576040517f08c379a00000000000000000000000000000000000000000000000000000000081526004018080602001828103825260148152602001807f4465736372697074696f6e20746f6f206c6f6e6700000000000000000000000081525060200191505060405180910390fd5b61388f614097565b61389833613e6a565b816060019073ffffffffffffffffffffffffffffffffffffffff16908173ffffffffffffffffffffffffffffffffffffffff168152505060006138d961408f565b9050858260000181815250508482602001901515908115158152505033826040019073ffffffffffffffffffffffffffffffffffffffff16908173ffffffffffffffffffffffffffffffffffffffff168152505083826080019073ffffffffffffffffffffffffffffffffffffffff16908173ffffffffffffffffffffffffffffffffffffffff1681525050828260a001819052506007548260c0018181525050808260e0018181525050600b6000836060015173ffffffffffffffffffffffffffffffffffffffff1673ffffffffffffffffffffffffffffffffffffffff16815260200190815260200160002082908060018154018082558091505090600182039060005260206000209060070201600090919290919091506000820151816000015560208201518160010160006101000a81548160ff02191690831515021790555060408201518160010160016101000a81548173ffffffffffffffffffffffffffffffffffffffff021916908373ffffffffffffffffffffffffffffffffffffffff16021790555060608201518160020160006101000a81548173ffffffffffffffffffffffffffffffffffffffff021916908373ffffffffffffffffffffffffffffffffffffffff16021790555060808201518160030160006101000a81548173ffffffffffffffffffffffffffffffffffffffff021916908373ffffffffffffffffffffffffffffffffffffffff16021790555060a0820151816004019080519060200190613b0e929190614222565b5060c0820151816005015560e08201518160060155505050600160075401600781905550600b6000600160009054906101000a900473ffffffffffffffffffffffffffffffffffffffff1673ffffffffffffffffffffffffffffffffffffffff1673ffffffffffffffffffffffffffffffffffffffff168152602001908152602001600020600c908054613ba39291906142a2565b50600b6000600360009054906101000a900473ffffffffffffffffffffffffffffffffffffffff1673ffffffffffffffffffffffffffffffffffffffff1673ffffffffffffffffffffffffffffffffffffffff168152602001908152602001600020600d908054613c159291906142a2565b50613c1e613d85565b600881905550613c2c613df1565b600981905550505050505050565b600160009054906101000a900473ffffffffffffffffffffffffffffffffffffffff1681565b600360009054906101000a900473ffffffffffffffffffffffffffffffffffffffff1681565b6000806000905060011515836020015115151415613ca75780915050613d80565b600160009054906101000a900473ffffffffffffffffffffffffffffffffffffffff1673ffffffffffffffffffffffffffffffffffffffff16836080015173ffffffffffffffffffffffffffffffffffffffff161415613d14578260000151600003905080915050613d80565b600360009054906101000a900473ffffffffffffffffffffffffffffffffffffffff1673ffffffffffffffffffffffffffffffffffffffff16836080015173ffffffffffffffffffffffffffffffffffffffff161415613d7e578260000151905080915050613d80565b505b919050565b6000600b6000600160009054906101000a900473ffffffffffffffffffffffffffffffffffffffff1673ffffffffffffffffffffffffffffffffffffffff1673ffffffffffffffffffffffffffffffffffffffff16815260200190815260200160002080549050905090565b6000600b6000600360009054906101000a900473ffffffffffffffffffffffffffffffffffffffff1673ffffffffffffffffffffffffffffffffffffffff1673ffffffffffffffffffffffffffffffffffffffff16815260200190815260200160002080549050905090565b6000600e80549050905090565b6000600160009054906101000a900473ffffffffffffffffffffffffffffffffffffffff1673ffffffffffffffffffffffffffffffffffffffff168273ffffffffffffffffffffffffffffffffffffffff161480613f155750600360009054906101000a900473ffffffffffffffffffffffffffffffffffffffff1673ffffffffffffffffffffffffffffffffffffffff168273ffffffffffffffffffffffffffffffffffffffff16145b1515613f89576040517f08c379a00000000000000000000000000000000000000000000000000000000081526004018080602001828103825260178152602001807f75736572206d757374206265207265676973746572656400000000000000000081525060200191505060405180910390fd5b600160009054906101000a900473ffffffffffffffffffffffffffffffffffffffff1673ffffffffffffffffffffffffffffffffffffffff168273ffffffffffffffffffffffffffffffffffffffff16141561400957600360009054906101000a900473ffffffffffffffffffffffffffffffffffffffff16905061408a565b600360009054906101000a900473ffffffffffffffffffffffffffffffffffffffff1673ffffffffffffffffffffffffffffffffffffffff168273ffffffffffffffffffffffffffffffffffffffff16141561408957600160009054906101000a900473ffffffffffffffffffffffffffffffffffffffff16905061408a565b5b919050565b600042905090565b6101006040519081016040528060008152602001600015158152602001600073ffffffffffffffffffffffffffffffffffffffff168152602001600073ffffffffffffffffffffffffffffffffffffffff168152602001600073ffffffffffffffffffffffffffffffffffffffff1681526020016060815260200160008152602001600081525090565b50805460018160011615610100020316600290046000825580601f106141475750614166565b601f0160209004906000526020600020908101906141659190614522565b5b50565b828054600181600116156101000203166002900490600052602060002090601f016020900481019282601f106141a257805485556141df565b828001600101855582156141df57600052602060002091601f016020900482015b828111156141de5782548255916001019190600101906141c3565b5b5090506141ec9190614522565b5090565b81548183558181111561421d5760070281600702836000526020600020918201910161421c9190614547565b5b505050565b828054600181600116156101000203166002900490600052602060002090601f016020900481019282601f1061426357805160ff1916838001178555614291565b82800160010185558215614291579182015b82811115614290578251825591602001919060010190614275565b5b50905061429e9190614522565b5090565b8280548282559060005260206000209060070281019282156144915760005260206000209160070282015b82811115614490578282600082015481600001556001820160009054906101000a900460ff168160010160006101000a81548160ff0219169083151502179055506001820160019054906101000a900473ffffffffffffffffffffffffffffffffffffffff168160010160016101000a81548173ffffffffffffffffffffffffffffffffffffffff021916908373ffffffffffffffffffffffffffffffffffffffff1602179055506002820160009054906101000a900473ffffffffffffffffffffffffffffffffffffffff168160020160006101000a81548173ffffffffffffffffffffffffffffffffffffffff021916908373ffffffffffffffffffffffffffffffffffffffff1602179055506003820160009054906101000a900473ffffffffffffffffffffffffffffffffffffffff168160030160006101000a81548173ffffffffffffffffffffffffffffffffffffffff021916908373ffffffffffffffffffffffffffffffffffffffff1602179055506004820181600401908054600181600116156101000203166002900461446a929190614169565b5060058201548160050155600682015481600601555050916007019190600701906142cd565b5b50905061449e9190614547565b5090565b828054600181600116156101000203166002900490600052602060002090601f016020900481019282601f106144e357805160ff1916838001178555614511565b82800160010185558215614511579182015b828111156145105782518255916020019190600101906144f5565b5b50905061451e9190614522565b5090565b61454491905b80821115614540576000816000905550600101614528565b5090565b90565b61461491905b80821115614610576000808201600090556001820160006101000a81549060ff02191690556001820160016101000a81549073ffffffffffffffffffffffffffffffffffffffff02191690556002820160006101000a81549073ffffffffffffffffffffffffffffffffffffffff02191690556003820160006101000a81549073ffffffffffffffffffffffffffffffffffffffff02191690556004820160006145f79190614121565b600582016000905560068201600090555060070161454d565b5090565b9056fea165627a7a72305820126fda7fbd4d537178c2f9523fbd218858abdcb6bb773c337c924b37303a78480029",
  "source": "pragma solidity ^0.5.0;\r\n\r\ncontract AgreementFactory {\r\n\r\n  address public creator;\r\n\r\n  mapping(address => bool) public allAgreements;\r\n\r\n  // map users to lists of agreements they're part of\r\n  mapping(address => address[]) public agreementsToUser;\r\n\r\n  // map users to agreements they've been invited to\r\n  mapping(address => address[]) public invitesToUser;\r\n\r\n  event AgreementCreated (address from, address agreementAddr);\r\n  event AgreementAdded (address agreementAddr, bool inAllAgreementsList);\r\n\r\n  constructor() public {\r\n    creator = msg.sender;\r\n  }\r\n\r\n  function createNewAgreement() public  {\r\n    Agreement newAgreement = new Agreement(msg.sender);\r\n    address agreementAddress = address(newAgreement);\r\n    allAgreements[agreementAddress] = true;\r\n    agreementsToUser[msg.sender].push(agreementAddress); // push agreement to user's list of agreements\r\n    emit AgreementCreated(msg.sender, agreementAddress);\r\n    emit AgreementAdded(agreementAddress, allAgreements[agreementAddress]);\r\n  }\r\n\r\n  function getUsersAgreements(address _user) public view returns (address[] memory ) {\r\n    return( agreementsToUser[_user] );\r\n  }\r\n\r\n  function getMyAgreements() public view returns (address[] memory ) {\r\n    return( agreementsToUser[msg.sender] );\r\n  }\r\n\r\n  function getMyInvites() public view returns (address[] memory ) {\r\n    return( invitesToUser[msg.sender] );\r\n  }\r\n\r\n  function newRegisteredUser(address _user) public _onlyChildContract {\r\n    agreementsToUser[_user].push(msg.sender); //add sending contract's address to user's list of agreements\r\n  }\r\n\r\n  function newInvite(address _friend) public _onlyChildContract {\r\n    invitesToUser[_friend].push(msg.sender); //add sending contract's address to user's list of invites\r\n  }\r\n\r\n  // Length getters and modifiers\r\n\r\n  function getMyAgreementsCount() public view returns(uint myAgreementsCount) {\r\n    return agreementsToUser[msg.sender].length;\r\n  }\r\n\r\n  function getMyInvitesCount() public view returns(uint myAgreementsCount) {\r\n    return invitesToUser[msg.sender].length;\r\n  }\r\n\r\n  function getUsersAgreementsCount(address _user) public view returns(uint usersAgreementsCount) {\r\n    return agreementsToUser[_user].length;\r\n  }\r\n\r\n  modifier _onlyChildContract {\r\n    require( allAgreements[msg.sender] == true, 'Sending contract not listed as a child of AgreementFactory');\r\n    _;\r\n  }\r\n}\r\n\r\ncontract Agreement {\r\n\r\n  address public parentFactory;  // address of the AgreementFactory\r\n  address public user_1;\r\n  address public invited_friend;\r\n  address public user_2;\r\n  string public user_1_name;\r\n  string public user_2_name;\r\n\r\n  int public balance;  // the net balance of who owes who.  Positive if user_2 owes more, negative if user_1 owes more.\r\n\r\n  uint public txCounter; // counts the number of purchases created.\r\n\r\n  // initialize uint lengths of transaction arrays. Useful because public variables have automatic getters, so we\r\n  // can easily grab array lengths for testing and healthchecks.\r\n  uint public pendingTxs1Length;\r\n  uint public pendingTxs2Length;\r\n  uint public confirmedTxsLength;\r\n\r\n  mapping( address => Tx[] ) public pendingTransactions; // map user to the list of their pending transactions.\r\n\r\n  // Solidity doesn't allow elems in nested arrays to be directly called via web3. So explicitly set each user's Tx array, for external calls\r\n  Tx[] public pendingTransactions_1 = pendingTransactions[user_1];\r\n  Tx[] public pendingTransactions_2 = pendingTransactions[user_2];\r\n\r\n  Tx[] public confirmedTransactions;\r\n\r\n  // the basic transaction object\r\n  struct Tx {\r\n    uint amount;\r\n    bool split;\r\n    address creator;\r\n    address confirmer;\r\n    address debtor;\r\n    string description;\r\n    uint index;  // useful for tracking transactions, since they can move from a 'pending' array to 'confirmed' array.\r\n    uint timestamp;\r\n  }\r\n\r\n  //  ***** constructor and user registration functions *****\r\n\r\n  constructor(address _creator) public {\r\n    parentFactory = msg.sender;\r\n    user_1 = _creator;\r\n  }\r\n\r\n  function setName(string memory _name) onlyUser public {\r\n    if (msg.sender == user_1) {\r\n      require(bytes(user_1_name).length == 0, \"You already set your name!\");\r\n      user_1_name = _name;\r\n      } else if (msg.sender == user_2) {\r\n        require(bytes(user_2_name).length == 0, \"You already set your name!\");\r\n        user_2_name = _name;\r\n      }\r\n    }\r\n\r\n    function inviteFriend(address _friend) onlyUser1 onlyUser2NotRegistered public {\r\n      //user_1 can re-set invited_friend address, until a second user registers.  After that, this func reverts.\r\n      require(_friend != msg.sender, 'You cant invite yourself!');\r\n      require(invited_friend == address(0), 'You have already invited someone!');\r\n      invited_friend = _friend;\r\n      AgreementFactory factory = AgreementFactory(parentFactory);\r\n      factory.newInvite(_friend);\r\n    }\r\n\r\n    function registerUser2() onlyInvitedFriend onlyUser2NotRegistered public {\r\n      user_2 = msg.sender;\r\n      require(user_2 == msg.sender); // check it's successfully set\r\n      AgreementFactory factory = AgreementFactory(parentFactory); // grab the factory\r\n      factory.newRegisteredUser(user_2); //  Call parent's registerUser2 func\r\n    }\r\n\r\n    // ****** Functions for creating and confirming transactions\r\n    function createPending(uint _amount, bool _split, address _debtor, string  memory _description) onlyUser onlyBothRegistered public {\r\n      require( _debtor == user_1 || _debtor == user_2, 'debtor must be a registered user' );\r\n      require( bytes(_description).length < 35, 'Description too long' );   // string length isn't always *exactly* bytes length - but this nevertheless enforces a short description\r\n      // create new pending tx\r\n      Tx memory newPendingTx;\r\n\r\n      // set the other user as confirmer\r\n      newPendingTx.confirmer = getOtherUser(msg.sender);\r\n\r\n      uint timeNow = timeStamp();\r\n\r\n      // set remaining attributes\r\n      newPendingTx.amount = _amount;\r\n      newPendingTx.split = _split;\r\n      newPendingTx.creator = msg.sender;\r\n      newPendingTx.debtor = _debtor;\r\n      newPendingTx.description = _description;\r\n      newPendingTx.index = txCounter;\r\n      newPendingTx.timestamp = timeNow;\r\n\r\n      // append new tx to the confirmer's pending tx array, and updated Tx counter and lengths\r\n      pendingTransactions[newPendingTx.confirmer].push(newPendingTx);\r\n      txCounter = txCounter + 1; //update tx counter\r\n\r\n      pendingTransactions_1 = pendingTransactions[user_1];\r\n      pendingTransactions_2 = pendingTransactions[user_2];\r\n      pendingTxs1Length = getPendingTxsLength1();\r\n      pendingTxs2Length = getPendingTxsLength2();\r\n    }\r\n\r\n    function confirmAll() onlyUser onlyBothRegistered public {\r\n      Tx[] storage allPendingTx = pendingTransactions[msg.sender];\r\n      Tx[] memory memAllPendingTx = allPendingTx;  // copy pending txs to memory\r\n\r\n      allPendingTx.length = 0; // delete all pending txs in storage\r\n\r\n      int balanceChange  = 0;\r\n      for (uint i = 0; i < memAllPendingTx.length; i++) {\r\n        confirmedTransactions.push(memAllPendingTx[i]);  // add Tx to confirmed array\r\n        balanceChange = balanceChange + changeInBalance(memAllPendingTx[i]); // add the tx amount to the balance change\r\n      }\r\n      // update lengths and balance\r\n\r\n      pendingTransactions_1 = pendingTransactions[user_1];\r\n      pendingTransactions_2 = pendingTransactions[user_2];\r\n      pendingTxs1Length = getPendingTxsLength1();\r\n      pendingTxs2Length = getPendingTxsLength2();\r\n      confirmedTxsLength = getConfirmedTxsLength();\r\n      balance = balance + balanceChange;\r\n    }\r\n\r\n    function confirmSingleTx(uint _txIndex) onlyUser onlyBothRegistered public {\r\n      Tx[] storage allPendingTx =  pendingTransactions[msg.sender];\r\n\r\n      uint len = allPendingTx.length;\r\n      Tx memory transaction = allPendingTx[_txIndex];  // copy tx to memory\r\n\r\n      // delete transaction fron pendingTx. This approach preserves array length, but not order\r\n      delete allPendingTx[_txIndex];\r\n      allPendingTx[_txIndex] = allPendingTx[len - 1];   // copy last element to empty slot\r\n      delete allPendingTx[len - 1];   // delete last element\r\n      allPendingTx.length--;  // decrease array size by one to remove empty slot\r\n\r\n      // append Tx to confirmed transactions\r\n      confirmedTransactions.push(transaction);\r\n\r\n      //update stored lengths\r\n      pendingTransactions_1 = pendingTransactions[user_1];\r\n      pendingTransactions_2 = pendingTransactions[user_2];\r\n      pendingTxs1Length = getPendingTxsLength1();\r\n      pendingTxs2Length = getPendingTxsLength2();\r\n      confirmedTxsLength = getConfirmedTxsLength();\r\n\r\n      balance = balance + changeInBalance(transaction);\r\n    }\r\n\r\n    function balanceHealthCheck () onlyUser public view returns (int _testBal, int _bal, bool) {\r\n      // calculates balance from total confirmed tx history. Checks == to running balance.\r\n      int testBalance = 0;\r\n      for (uint i = 0; i < confirmedTransactions.length; i++) {\r\n        testBalance = testBalance + changeInBalance(confirmedTransactions[i]);\r\n      }\r\n\r\n      if (testBalance != balance) {\r\n        return(testBalance, balance, false);\r\n        } else if (testBalance == balance) {\r\n          return(testBalance, balance, true);\r\n        }\r\n      }\r\n\r\n      // ***** Helper and getter functions *****\r\n      function changeInBalance(Tx memory _purchase) private view returns (int _change) {\r\n        // returns the change to a balance caused by a purchase\r\n        int change = 0;\r\n        if (_purchase.split == true) {\r\n          return change;  // no overall change to balance when an expense is split\r\n          } else if (_purchase.debtor == user_1) {\r\n            change = -int(_purchase.amount);\r\n            return change;\r\n            } else if (_purchase.debtor == user_2) {\r\n              change = int(_purchase.amount);\r\n              return change;\r\n            }\r\n          }\r\n\r\n          function getOtherUser(address _user) private view returns (address) {\r\n            require(_user == user_1 || _user == user_2, 'user must be registered');\r\n            if (_user == user_1) {\r\n              return user_2;\r\n              } else if (_user == user_2) {\r\n                return user_1;\r\n              }\r\n            }\r\n\r\n            function timeStamp() private view returns (uint) {\r\n              return block.timestamp;\r\n            }\r\n\r\n            // Length getters for lists of confirmed & pending txs\r\n            function getPendingTxsLength1() internal view returns(uint) {\r\n              return pendingTransactions[user_1].length;\r\n            }\r\n\r\n            function getPendingTxsLength2() internal view returns(uint) {\r\n              return pendingTransactions[user_2].length;\r\n            }\r\n\r\n            function getConfirmedTxsLength() internal view returns(uint) {\r\n              return confirmedTransactions.length;\r\n            }\r\n\r\n\r\n            // ******** Modifiers *********\r\n            modifier onlyUser {\r\n              require(msg.sender == user_1 || msg.sender == user_2, 'Must be a registered user');\r\n              _;\r\n            }\r\n\r\n            modifier onlyUser1 {\r\n              require(msg.sender == user_1, 'Must be registered user 1');\r\n              _;\r\n            }\r\n\r\n            modifier onlyInvitedFriend {\r\n              require(msg.sender == invited_friend, 'Must be the invited friend');\r\n              _;\r\n            }\r\n\r\n            modifier onlyUser2NotRegistered {\r\n              require (user_2 == address(0), 'User 2 already registered');\r\n              _;\r\n            }\r\n\r\n            modifier onlyBothRegistered {\r\n              require (user_1 != address(0) && user_2 != address(0), 'Two users must be registered');\r\n              _;\r\n            }\r\n          }\r\n\r\n\r\n\r\n\r\n\r\n          // PRE-IMPLEMENTATION OF PENDING TX MAPPING\r\n          /*\r\n\r\n          /* pragma solidity ^0.5.2;\r\n\r\n          contract AgreementFactory {\r\n\r\n          address[] public allAgreements;\r\n          //map users to lists of agreements they're part of\r\n          mapping(address => address[]) public agreementsToUser;\r\n\r\n          constructor() public {\r\n          address creator = msg.sender;\r\n        }\r\n\r\n        function createNewAgreement() public {\r\n        Agreement newAgreement = new Agreement(msg.sender);\r\n        address agreementAddress = address(newAgreement);\r\n        allAgreements.push(agreementAddress); //\r\n        agreementsToUser[msg.sender].push(agreementAddress); // push agreement to user's list of agreements\r\n      }\r\n      function getMyAgreements() public view returns (address[] memory ) {\r\n      return( agreementsToUser[msg.sender] );\r\n    }\r\n\r\n    function getAllAgreements() public view returns (address[] memory) {\r\n    return allAgreements;\r\n  }\r\n\r\n  function newRegisteredUser(address _user, address _contract) public {\r\n  agreementsToUser[_user].push(_contract);\r\n}\r\n}\r\n\r\ncontract Agreement {\r\naddress public user_1;\r\naddress public invited_friend;\r\naddress public user_2;\r\nstring public user_1_name;\r\nstring public user_2_name;\r\n\r\nint public balance;  // the net balance of who owes who.  Positive if user_2 owes more, negative if user_1 owes more.\r\n\r\nuint public txCounter; // counts the number of purchases created.\r\n\r\n// initialize uint lengths of transaction arrays. Useful because public variables have automatic getters, so we\r\n// can easily grab array lengths for testing and healthchecks.\r\nuint public pendingTxs1Length;\r\nuint public pendingTxs2Length;\r\nuint public confirmedTxsLength;\r\n\r\nTx[] public pendingTransactions_1;  // pending transactions to be confirmed by user 1\r\nTx[] public pendingTransactions_2;  // pending transactions to be confirmed by user 2\r\nTx[] public confirmedTransactions;  // All Transactions approved by users\r\n\r\n// the basic transaction object\r\nstruct Tx {\r\nuint amount;\r\nbool split;\r\naddress creator;\r\naddress confirmer;\r\naddress debtor;\r\nstring description;\r\nuint index;  // useful for tracking transactions, since they can move from a 'pending' array to 'confirmed' array.\r\nuint timestamp;\r\n}\r\n\r\n//  ***** constructor and user registration functions *****\r\n\r\nconstructor(address _creator) public {\r\nuser_1 = _creator;\r\n}\r\n\r\nfunction setName(string memory _name) onlyUser public {\r\n\r\nif (msg.sender == user_1) {\r\nrequire(bytes(user_1_name).length == 0, \"You already set your name!\");\r\nuser_1_name = _name;\r\n} else if (msg.sender == user_2) {\r\nrequire(bytes(user_2_name).length == 0, \"You already set your name!\");\r\nuser_2_name = _name;\r\n}\r\n}\r\n\r\nfunction inviteFriend(address _friend) onlyUser1 onlyUser2NotRegistered public {\r\n//user_1 can re-set invited_friend address, until a second user registers.  After that, this func reverts.\r\ninvited_friend = _friend;\r\n}\r\n\r\nfunction registerUser2() onlyInvitedFriend onlyUser2NotRegistered public {\r\nuser_2 = msg.sender;\r\n//TODO - call AgreementsFactory, and add this agreement to user's list\r\n}\r\n\r\n// ****** Functions for creating and confirming transactions\r\n\r\nfunction createPending(uint _amount, bool _split, address _debtor, string  memory _description) onlyUser onlyBothRegistered public {\r\nrequire( _debtor == user_1 || _debtor == user_2, 'debtor must be a registered user' );\r\nrequire( bytes(_description).length < 35, 'Description too long' );   // string length isn't always *exactly* bytes length - but this nevertheless enforces a short description.\r\n\r\n// create new pending tx\r\nTx memory newPendingTx;\r\n\r\n// set the other user as confirmer\r\nnewPendingTx.confirmer = getOtherUser(msg.sender);\r\n\r\nuint timeNow = timeStamp();\r\n\r\n// set remaining attributes\r\nnewPendingTx.amount = _amount;\r\nnewPendingTx.split = _split;\r\nnewPendingTx.creator = msg.sender;\r\nnewPendingTx.debtor = _debtor;\r\nnewPendingTx.description = _description;\r\nnewPendingTx.index = txCounter;\r\nnewPendingTx.timestamp = timeNow;\r\n\r\n// append new tx to the confirmer's pending tx array, and updated it's length\r\nif (newPendingTx.confirmer == user_1) {\r\npendingTransactions_1.push(newPendingTx);\r\npendingTxs1Length = getPendingTxsLength1();\r\n\r\n} else if (newPendingTx.confirmer == user_2) {\r\npendingTransactions_2.push(newPendingTx);\r\npendingTxs2Length = getPendingTxsLength2();\r\n}\r\n\r\ntxCounter = txCounter + 1;  // update tx counter\r\n}\r\n\r\nfunction confirmAll() onlyUser onlyBothRegistered public {\r\nTx[] storage allPendingTx = getPendingTx(msg.sender);\r\n\r\nTx[] memory memAllPendingTx = allPendingTx;  // copy pending txs to memory\r\n\r\nallPendingTx.length = 0; // delete all elements in pending tx array\r\npendingTxs1Length = getPendingTxsLength1();  //update stored lengths of pending tx arrays\r\npendingTxs2Length = getPendingTxsLength2();\r\nint balanceChange  = 0;\r\n\r\nfor (uint i = 0; i < memAllPendingTx.length; i++) {\r\nconfirmedTransactions.push(memAllPendingTx[i]);  // add Tx to confirmed array\r\nbalanceChange = balanceChange + changeInBalance(memAllPendingTx[i]); // add the transaction amount to the balance change\r\n}\r\nconfirmedTxsLength = getConfirmedTxsLength();\r\nbalance = balance + balanceChange;  // update the balance in storage\r\n}\r\n\r\nfunction confirmSingleTx(uint _txIndex) onlyUser onlyBothRegistered public {\r\nTx[] storage allPendingTx = getPendingTx(msg.sender);\r\n\r\nuint len = allPendingTx.length;\r\nTx memory transaction = allPendingTx[_txIndex];  // copy tx to memory\r\n\r\n// delete transaction fron pendingTx. This approach preserves array length, but not order\r\ndelete allPendingTx[_txIndex];\r\nallPendingTx[_txIndex] = allPendingTx[len - 1];   // copy last element to empty slot\r\ndelete allPendingTx[len - 1];   // delete last element\r\nallPendingTx.length--;  // decrement size of array by 1\r\n\r\n// append Tx to confirmed transactions\r\nconfirmedTransactions.push(transaction);\r\n\r\n//update stored lengths\r\npendingTxs1Length = getPendingTxsLength1();\r\npendingTxs2Length = getPendingTxsLength2();\r\nconfirmedTxsLength = getConfirmedTxsLength();\r\n\r\nbalance = balance + changeInBalance(transaction);\r\n}\r\n/*\r\nfunction balanceHealthCheck () onlyUser public view returns (int _testBal, int _bal, bool) {\r\n// calculates balance from total confirmed tx history.  Checks == to running balance.\r\nint testBalance = 0;\r\nfor (uint i = 0; i < confirmedTransactions.length; i++) {\r\ntestBalance = testBalance + changeInBalance(confirmedTransactions[i]);\r\n}\r\n\r\nif (testBalance != balance) {\r\nreturn(testBalance, balance, false);\r\n} else if (testBalance == balance) {\r\nreturn(testBalance, balance, true);\r\n}\r\n} */\r\n\r\n// ***** Helper and getter functions *****\r\n/* function changeInBalance(Tx memory _purchase) private view returns (int _change) {\r\n// returns the change to a balance caused by a purchase\r\nint change = 0;\r\nif (_purchase.split == true) {\r\nreturn change;  // no overall change to balance when an expense is split\r\n} else if (_purchase.debtor == user_1) {\r\nchange = -int(_purchase.amount);\r\nreturn change;\r\n} else if (_purchase.debtor == user_2) {\r\nchange = int(_purchase.amount);\r\nreturn change;\r\n}\r\n}\r\n\r\nfunction getPendingTx( address _user) private view returns (Tx[] storage){\r\n// return the user's pending transactions list\r\nTx[] storage allPendingTx;\r\nif (_user == user_1) {\r\nallPendingTx = pendingTransactions_1;\r\n} else if (_user == user_2) {\r\nallPendingTx = pendingTransactions_2;\r\n}\r\nreturn allPendingTx;\r\n}\r\n\r\nfunction getOtherUser(address _user) private view returns (address) {\r\nrequire(_user == user_1 || _user == user_2, 'user must be registered');\r\nif (_user == user_1) {\r\nreturn user_2;\r\n} else if (_user == user_2) {\r\nreturn user_1;\r\n}\r\n}\r\n\r\nfunction timeStamp() private view returns (uint) {\r\nreturn block.timestamp;\r\n}\r\n\r\n// Length getters for lists of confirmed & pending txs\r\nfunction getPendingTxsLength1() internal view returns(uint) {\r\nreturn pendingTransactions_1.length;\r\n}\r\n\r\nfunction getPendingTxsLength2() internal view returns(uint) {\r\nreturn pendingTransactions_2.length;\r\n}\r\n\r\nfunction getConfirmedTxsLength() internal view returns(uint) {\r\nreturn confirmedTransactions.length;\r\n} */\r\n\r\n/* function pendingTransactions2Length() onlyUser external view returns (uint) {\r\nreturn pendingTransactions_2.length;\r\n} */\r\n\r\n/* function pendingTransactions1Length() onlyUser external view returns (uint) {\r\nreturn pendingTransactions_1.length;\r\n}\r\n\r\nfunction confirmedTransactionsLength() onlyUser external view returns (uint) {\r\nreturn confirmedTransactions.length;\r\n} */\r\n\r\n// ******** Modifiers *********\r\n/* modifier onlyUser {\r\nrequire(msg.sender == user_1 || msg.sender == user_2, 'Must be a registered user');\r\n_;\r\n}\r\n\r\nmodifier onlyUser1 {\r\nrequire(msg.sender == user_1, 'Must be registered user 1');\r\n_;\r\n}\r\n\r\nmodifier onlyInvitedFriend {\r\nrequire(msg.sender == invited_friend, 'Must be the invited friend');\r\n_;\r\n}\r\n\r\nmodifier onlyUser2NotRegistered {\r\nrequire (user_2 == address(0), 'User 2 already registered');\r\n_;\r\n}\r\n\r\nmodifier onlyBothRegistered {\r\nrequire (user_1 != address(0) && user_2 != address(0), 'Two users must be registered');\r\n_;\r\n}\r\n} */\r\n",
  "sourcePath": "C:/Users/Administrator/Desktop/Solidity/EtherSplit/contracts/AgreementFactory.sol",
  "compiler": {
    "name": "solc",
    "version": "0.5.0+commit.1d4f565a.Emscripten.clang"
  },
  "schemaVersion": "3.0.0",
  "updatedAt": "2019-01-15T14:11:49.811Z",
  "devdoc": {
    "methods": {}
  },
  "userdoc": {
    "methods": {}
  }
}