{
  "contractName": "Agreement",
  "abi": [
    {
      "constant": true,
      "inputs": [
        {
          "name": "",
          "type": "address"
        },
        {
          "name": "",
          "type": "uint256"
        }
      ],
      "name": "pendingTransactions",
      "outputs": [
        {
          "name": "amount",
          "type": "uint256"
        },
        {
          "name": "split",
          "type": "bool"
        },
        {
          "name": "creator",
          "type": "address"
        },
        {
          "name": "confirmer",
          "type": "address"
        },
        {
          "name": "debtor",
          "type": "address"
        },
        {
          "name": "description",
          "type": "string"
        },
        {
          "name": "index",
          "type": "uint256"
        },
        {
          "name": "timestamp",
          "type": "uint256"
        }
      ],
      "payable": false,
      "stateMutability": "view",
      "type": "function"
    },
    {
      "constant": true,
      "inputs": [],
      "name": "user_2_name",
      "outputs": [
        {
          "name": "",
          "type": "string"
        }
      ],
      "payable": false,
      "stateMutability": "view",
      "type": "function"
    },
    {
      "constant": true,
      "inputs": [],
      "name": "invited_friend",
      "outputs": [
        {
          "name": "",
          "type": "address"
        }
      ],
      "payable": false,
      "stateMutability": "view",
      "type": "function"
    },
    {
      "constant": true,
      "inputs": [],
      "name": "txCounter",
      "outputs": [
        {
          "name": "",
          "type": "uint256"
        }
      ],
      "payable": false,
      "stateMutability": "view",
      "type": "function"
    },
    {
      "constant": true,
      "inputs": [],
      "name": "user_1_name",
      "outputs": [
        {
          "name": "",
          "type": "string"
        }
      ],
      "payable": false,
      "stateMutability": "view",
      "type": "function"
    },
    {
      "constant": true,
      "inputs": [
        {
          "name": "",
          "type": "uint256"
        }
      ],
      "name": "pendingTransactions_2",
      "outputs": [
        {
          "name": "amount",
          "type": "uint256"
        },
        {
          "name": "split",
          "type": "bool"
        },
        {
          "name": "creator",
          "type": "address"
        },
        {
          "name": "confirmer",
          "type": "address"
        },
        {
          "name": "debtor",
          "type": "address"
        },
        {
          "name": "description",
          "type": "string"
        },
        {
          "name": "index",
          "type": "uint256"
        },
        {
          "name": "timestamp",
          "type": "uint256"
        }
      ],
      "payable": false,
      "stateMutability": "view",
      "type": "function"
    },
    {
      "constant": true,
      "inputs": [
        {
          "name": "",
          "type": "uint256"
        }
      ],
      "name": "confirmedTransactions",
      "outputs": [
        {
          "name": "amount",
          "type": "uint256"
        },
        {
          "name": "split",
          "type": "bool"
        },
        {
          "name": "creator",
          "type": "address"
        },
        {
          "name": "confirmer",
          "type": "address"
        },
        {
          "name": "debtor",
          "type": "address"
        },
        {
          "name": "description",
          "type": "string"
        },
        {
          "name": "index",
          "type": "uint256"
        },
        {
          "name": "timestamp",
          "type": "uint256"
        }
      ],
      "payable": false,
      "stateMutability": "view",
      "type": "function"
    },
    {
      "constant": true,
      "inputs": [],
      "name": "parentFactory",
      "outputs": [
        {
          "name": "",
          "type": "address"
        }
      ],
      "payable": false,
      "stateMutability": "view",
      "type": "function"
    },
    {
      "constant": true,
      "inputs": [],
      "name": "balance",
      "outputs": [
        {
          "name": "",
          "type": "int256"
        }
      ],
      "payable": false,
      "stateMutability": "view",
      "type": "function"
    },
    {
      "constant": true,
      "inputs": [
        {
          "name": "",
          "type": "uint256"
        }
      ],
      "name": "pendingTransactions_1",
      "outputs": [
        {
          "name": "amount",
          "type": "uint256"
        },
        {
          "name": "split",
          "type": "bool"
        },
        {
          "name": "creator",
          "type": "address"
        },
        {
          "name": "confirmer",
          "type": "address"
        },
        {
          "name": "debtor",
          "type": "address"
        },
        {
          "name": "description",
          "type": "string"
        },
        {
          "name": "index",
          "type": "uint256"
        },
        {
          "name": "timestamp",
          "type": "uint256"
        }
      ],
      "payable": false,
      "stateMutability": "view",
      "type": "function"
    },
    {
      "constant": true,
      "inputs": [],
      "name": "user_1",
      "outputs": [
        {
          "name": "",
          "type": "address"
        }
      ],
      "payable": false,
      "stateMutability": "view",
      "type": "function"
    },
    {
      "constant": true,
      "inputs": [],
      "name": "user_2",
      "outputs": [
        {
          "name": "",
          "type": "address"
        }
      ],
      "payable": false,
      "stateMutability": "view",
      "type": "function"
    },
    {
      "inputs": [
        {
          "name": "_creator",
          "type": "address"
        }
      ],
      "payable": false,
      "stateMutability": "nonpayable",
      "type": "constructor"
    },
    {
      "constant": false,
      "inputs": [
        {
          "name": "_name",
          "type": "string"
        }
      ],
      "name": "setName",
      "outputs": [],
      "payable": false,
      "stateMutability": "nonpayable",
      "type": "function"
    },
    {
      "constant": false,
      "inputs": [
        {
          "name": "_friend",
          "type": "address"
        }
      ],
      "name": "inviteFriend",
      "outputs": [],
      "payable": false,
      "stateMutability": "nonpayable",
      "type": "function"
    },
    {
      "constant": false,
      "inputs": [],
      "name": "registerUser2",
      "outputs": [],
      "payable": false,
      "stateMutability": "nonpayable",
      "type": "function"
    },
    {
      "constant": false,
      "inputs": [
        {
          "name": "_amount",
          "type": "uint256"
        },
        {
          "name": "_split",
          "type": "bool"
        },
        {
          "name": "_debtor",
          "type": "address"
        },
        {
          "name": "_description",
          "type": "string"
        }
      ],
      "name": "createPending",
      "outputs": [],
      "payable": false,
      "stateMutability": "nonpayable",
      "type": "function"
    },
    {
      "constant": false,
      "inputs": [],
      "name": "confirmAll",
      "outputs": [],
      "payable": false,
      "stateMutability": "nonpayable",
      "type": "function"
    },
    {
      "constant": false,
      "inputs": [
        {
          "name": "_txIndex",
          "type": "uint256"
        }
      ],
      "name": "confirmSingleTx",
      "outputs": [],
      "payable": false,
      "stateMutability": "nonpayable",
      "type": "function"
    },
    {
      "constant": true,
      "inputs": [],
      "name": "balanceHealthCheck",
      "outputs": [
        {
          "name": "_testBal",
          "type": "int256"
        },
        {
          "name": "_bal",
          "type": "int256"
        },
        {
          "name": "",
          "type": "bool"
        }
      ],
      "payable": false,
      "stateMutability": "view",
      "type": "function"
    },
    {
      "constant": true,
      "inputs": [],
      "name": "getPendingTxsLength1",
      "outputs": [
        {
          "name": "",
          "type": "uint256"
        }
      ],
      "payable": false,
      "stateMutability": "view",
      "type": "function"
    },
    {
      "constant": true,
      "inputs": [],
      "name": "getPendingTxsLength2",
      "outputs": [
        {
          "name": "",
          "type": "uint256"
        }
      ],
      "payable": false,
      "stateMutability": "view",
      "type": "function"
    },
    {
      "constant": true,
      "inputs": [],
      "name": "getConfirmedTxsLength",
      "outputs": [
        {
          "name": "",
          "type": "uint256"
        }
      ],
      "payable": false,
      "stateMutability": "view",
      "type": "function"
    }
  ],
  "bytecode": "0x608060405260086000600160009054906101000a900473ffffffffffffffffffffffffffffffffffffffff1673ffffffffffffffffffffffffffffffffffffffff1673ffffffffffffffffffffffffffffffffffffffff168152602001908152602001600020600990805462000077929190620001b4565b5060086000600360009054906101000a900473ffffffffffffffffffffffffffffffffffffffff1673ffffffffffffffffffffffffffffffffffffffff1673ffffffffffffffffffffffffffffffffffffffff168152602001908152602001600020600a908054620000eb929190620001b4565b50348015620000f957600080fd5b5060405160208062004b80833981018060405260208110156200011b57600080fd5b8101908080519060200190929190505050336000806101000a81548173ffffffffffffffffffffffffffffffffffffffff021916908373ffffffffffffffffffffffffffffffffffffffff16021790555080600160006101000a81548173ffffffffffffffffffffffffffffffffffffffff021916908373ffffffffffffffffffffffffffffffffffffffff1602179055505062000592565b828054828255906000526020600020906007028101928215620003a85760005260206000209160070282015b82811115620003a7578282600082015481600001556001820160009054906101000a900460ff168160010160006101000a81548160ff0219169083151502179055506001820160019054906101000a900473ffffffffffffffffffffffffffffffffffffffff168160010160016101000a81548173ffffffffffffffffffffffffffffffffffffffff021916908373ffffffffffffffffffffffffffffffffffffffff1602179055506002820160009054906101000a900473ffffffffffffffffffffffffffffffffffffffff168160020160006101000a81548173ffffffffffffffffffffffffffffffffffffffff021916908373ffffffffffffffffffffffffffffffffffffffff1602179055506003820160009054906101000a900473ffffffffffffffffffffffffffffffffffffffff168160030160006101000a81548173ffffffffffffffffffffffffffffffffffffffff021916908373ffffffffffffffffffffffffffffffffffffffff1602179055506004820181600401908054600181600116156101000203166002900462000380929190620003bb565b506005820154816005015560068201548160060155505091600701919060070190620001e0565b5b509050620003b7919062000449565b5090565b828054600181600116156101000203166002900490600052602060002090601f016020900481019282601f10620003f6578054855562000436565b828001600101855582156200043657600052602060002091601f016020900482015b828111156200043557825482559160010191906001019062000418565b5b5090506200044591906200051e565b5090565b6200051b91905b8082111562000517576000808201600090556001820160006101000a81549060ff02191690556001820160016101000a81549073ffffffffffffffffffffffffffffffffffffffff02191690556002820160006101000a81549073ffffffffffffffffffffffffffffffffffffffff02191690556003820160006101000a81549073ffffffffffffffffffffffffffffffffffffffff0219169055600482016000620004fd919062000546565b600582016000905560068201600090555060070162000450565b5090565b90565b6200054391905b808211156200053f57600081600090555060010162000525565b5090565b90565b50805460018160011615610100020316600290046000825580601f106200056e57506200058f565b601f0160209004906000526020600020908101906200058e91906200051e565b5b50565b6145de80620005a26000396000f3fe608060405260043610610128576000357c0100000000000000000000000000000000000000000000000000000000900463ffffffff168063046d9fa01461012d5780630e13ff761461016a578063389880bc146101a5578063616555621461033257806361c499731461034957806370b63759146103d957806374f079b8146104305780637660c4941461045b57806389aded411461048657806392ecd6af1461049d57806397abe1861461052d578063993d7c2d1461069a5780639d35c16114610807578063b69ef8a81461085e578063b86ff9b314610889578063bd7c5351146109f6578063c1e29a5614610a47578063c47f002714610a72578063c9f85b7514610b3a578063ef2be8f914610c38578063f1e96c2714610c63578063fd7a567c14610cba575b600080fd5b34801561013957600080fd5b50610142610d11565b6040518084815260200183815260200182151515158152602001935050505060405180910390f35b34801561017657600080fd5b506101a36004803603602081101561018d57600080fd5b81019080803590602001909291905050506110ac565b005b3480156101b157600080fd5b506101fe600480360360408110156101c857600080fd5b81019080803573ffffffffffffffffffffffffffffffffffffffff16906020019092919080359060200190929190505050611b43565b60405180898152602001881515151581526020018773ffffffffffffffffffffffffffffffffffffffff1673ffffffffffffffffffffffffffffffffffffffff1681526020018673ffffffffffffffffffffffffffffffffffffffff1673ffffffffffffffffffffffffffffffffffffffff1681526020018573ffffffffffffffffffffffffffffffffffffffff1673ffffffffffffffffffffffffffffffffffffffff16815260200180602001848152602001838152602001828103825285818151815260200191508051906020019080838360005b838110156102f05780820151818401526020810190506102d5565b50505050905090810190601f16801561031d5780820380516001836020036101000a031916815260200191505b50995050505050505050505060405180910390f35b34801561033e57600080fd5b50610347611cac565b005b34801561035557600080fd5b5061035e612429565b6040518080602001828103825283818151815260200191508051906020019080838360005b8381101561039e578082015181840152602081019050610383565b50505050905090810190601f1680156103cb5780820380516001836020036101000a031916815260200191505b509250505060405180910390f35b3480156103e557600080fd5b506103ee6124c7565b604051808273ffffffffffffffffffffffffffffffffffffffff1673ffffffffffffffffffffffffffffffffffffffff16815260200191505060405180910390f35b34801561043c57600080fd5b506104456124ed565b6040518082815260200191505060405180910390f35b34801561046757600080fd5b506104706124f3565b6040518082815260200191505060405180910390f35b34801561049257600080fd5b5061049b61255f565b005b3480156104a957600080fd5b506104b2612885565b6040518080602001828103825283818151815260200191508051906020019080838360005b838110156104f25780820151818401526020810190506104d7565b50505050905090810190601f16801561051f5780820380516001836020036101000a031916815260200191505b509250505060405180910390f35b34801561053957600080fd5b506105666004803603602081101561055057600080fd5b8101908080359060200190929190505050612923565b60405180898152602001881515151581526020018773ffffffffffffffffffffffffffffffffffffffff1673ffffffffffffffffffffffffffffffffffffffff1681526020018673ffffffffffffffffffffffffffffffffffffffff1673ffffffffffffffffffffffffffffffffffffffff1681526020018573ffffffffffffffffffffffffffffffffffffffff1673ffffffffffffffffffffffffffffffffffffffff16815260200180602001848152602001838152602001828103825285818151815260200191508051906020019080838360005b8381101561065857808201518184015260208101905061063d565b50505050905090810190601f1680156106855780820380516001836020036101000a031916815260200191505b50995050505050505050505060405180910390f35b3480156106a657600080fd5b506106d3600480360360208110156106bd57600080fd5b8101908080359060200190929190505050612a7f565b60405180898152602001881515151581526020018773ffffffffffffffffffffffffffffffffffffffff1673ffffffffffffffffffffffffffffffffffffffff1681526020018673ffffffffffffffffffffffffffffffffffffffff1673ffffffffffffffffffffffffffffffffffffffff1681526020018573ffffffffffffffffffffffffffffffffffffffff1673ffffffffffffffffffffffffffffffffffffffff16815260200180602001848152602001838152602001828103825285818151815260200191508051906020019080838360005b838110156107c55780820151818401526020810190506107aa565b50505050905090810190601f1680156107f25780820380516001836020036101000a031916815260200191505b50995050505050505050505060405180910390f35b34801561081357600080fd5b5061081c612bdb565b604051808273ffffffffffffffffffffffffffffffffffffffff1673ffffffffffffffffffffffffffffffffffffffff16815260200191505060405180910390f35b34801561086a57600080fd5b50610873612c00565b6040518082815260200191505060405180910390f35b34801561089557600080fd5b506108c2600480360360208110156108ac57600080fd5b8101908080359060200190929190505050612c06565b60405180898152602001881515151581526020018773ffffffffffffffffffffffffffffffffffffffff1673ffffffffffffffffffffffffffffffffffffffff1681526020018673ffffffffffffffffffffffffffffffffffffffff1673ffffffffffffffffffffffffffffffffffffffff1681526020018573ffffffffffffffffffffffffffffffffffffffff1673ffffffffffffffffffffffffffffffffffffffff16815260200180602001848152602001838152602001828103825285818151815260200191508051906020019080838360005b838110156109b4578082015181840152602081019050610999565b50505050905090810190601f1680156109e15780820380516001836020036101000a031916815260200191505b50995050505050505050505060405180910390f35b348015610a0257600080fd5b50610a4560048036036020811015610a1957600080fd5b81019080803573ffffffffffffffffffffffffffffffffffffffff169060200190929190505050612d62565b005b348015610a5357600080fd5b50610a5c61319b565b6040518082815260200191505060405180910390f35b348015610a7e57600080fd5b50610b3860048036036020811015610a9557600080fd5b8101908080359060200190640100000000811115610ab257600080fd5b820183602082011115610ac457600080fd5b80359060200191846001830284011164010000000083111715610ae657600080fd5b91908080601f016020809104026020016040519081016040528093929190818152602001838380828437600081840152601f19601f820116905080830192505050505050509192919290505050613207565b005b348015610b4657600080fd5b50610c3660048036036080811015610b5d57600080fd5b8101908080359060200190929190803515159060200190929190803573ffffffffffffffffffffffffffffffffffffffff16906020019092919080359060200190640100000000811115610bb057600080fd5b820183602082011115610bc257600080fd5b80359060200191846001830284011164010000000083111715610be457600080fd5b91908080601f016020809104026020016040519081016040528093929190818152602001838380828437600081840152601f19601f820116905080830192505050505050509192919290505050613524565b005b348015610c4457600080fd5b50610c4d613cc7565b6040518082815260200191505060405180910390f35b348015610c6f57600080fd5b50610c78613cd4565b604051808273ffffffffffffffffffffffffffffffffffffffff1673ffffffffffffffffffffffffffffffffffffffff16815260200191505060405180910390f35b348015610cc657600080fd5b50610ccf613cfa565b604051808273ffffffffffffffffffffffffffffffffffffffff1673ffffffffffffffffffffffffffffffffffffffff16815260200191505060405180910390f35b6000806000600160009054906101000a900473ffffffffffffffffffffffffffffffffffffffff1673ffffffffffffffffffffffffffffffffffffffff163373ffffffffffffffffffffffffffffffffffffffff161480610dbf5750600360009054906101000a900473ffffffffffffffffffffffffffffffffffffffff1673ffffffffffffffffffffffffffffffffffffffff163373ffffffffffffffffffffffffffffffffffffffff16145b1515610e33576040517f08c379a00000000000000000000000000000000000000000000000000000000081526004018080602001828103825260198152602001807f4d7573742062652061207265676973746572656420757365720000000000000081525060200191505060405180910390fd5b600080905060008090505b600b8054905081101561106b5761105a600b82815481101515610e5d57fe5b90600052602060002090600702016101006040519081016040529081600082015481526020016001820160009054906101000a900460ff161515151581526020016001820160019054906101000a900473ffffffffffffffffffffffffffffffffffffffff1673ffffffffffffffffffffffffffffffffffffffff1673ffffffffffffffffffffffffffffffffffffffff1681526020016002820160009054906101000a900473ffffffffffffffffffffffffffffffffffffffff1673ffffffffffffffffffffffffffffffffffffffff1673ffffffffffffffffffffffffffffffffffffffff1681526020016003820160009054906101000a900473ffffffffffffffffffffffffffffffffffffffff1673ffffffffffffffffffffffffffffffffffffffff1673ffffffffffffffffffffffffffffffffffffffff168152602001600482018054600181600116156101000203166002900480601f0160208091040260200160405190810160405280929190818152602001828054600181600116156101000203166002900480156110385780601f1061100d57610100808354040283529160200191611038565b820191906000526020600020905b81548152906001019060200180831161101b57829003601f168201915b5050505050815260200160058201548152602001600682015481525050613d20565b820191508080600101915050610e3e565b506006548114151561108957806006546000935093509350506110a7565b6006548114156110a557806006546001935093509350506110a7565b505b909192565b600160009054906101000a900473ffffffffffffffffffffffffffffffffffffffff1673ffffffffffffffffffffffffffffffffffffffff163373ffffffffffffffffffffffffffffffffffffffff1614806111555750600360009054906101000a900473ffffffffffffffffffffffffffffffffffffffff1673ffffffffffffffffffffffffffffffffffffffff163373ffffffffffffffffffffffffffffffffffffffff16145b15156111c9576040517f08c379a00000000000000000000000000000000000000000000000000000000081526004018080602001828103825260198152602001807f4d7573742062652061207265676973746572656420757365720000000000000081525060200191505060405180910390fd5b600073ffffffffffffffffffffffffffffffffffffffff16600160009054906101000a900473ffffffffffffffffffffffffffffffffffffffff1673ffffffffffffffffffffffffffffffffffffffff16141580156112775750600073ffffffffffffffffffffffffffffffffffffffff16600360009054906101000a900473ffffffffffffffffffffffffffffffffffffffff1673ffffffffffffffffffffffffffffffffffffffff1614155b15156112eb576040517f08c379a000000000000000000000000000000000000000000000000000000000815260040180806020018281038252601c8152602001807f54776f207573657273206d75737420626520726567697374657265640000000081525060200191505060405180910390fd5b6000600860003373ffffffffffffffffffffffffffffffffffffffff1673ffffffffffffffffffffffffffffffffffffffff168152602001908152602001600020905060008180549050905061133f614032565b828481548110151561134d57fe5b90600052602060002090600702016101006040519081016040529081600082015481526020016001820160009054906101000a900460ff161515151581526020016001820160019054906101000a900473ffffffffffffffffffffffffffffffffffffffff1673ffffffffffffffffffffffffffffffffffffffff1673ffffffffffffffffffffffffffffffffffffffff1681526020016002820160009054906101000a900473ffffffffffffffffffffffffffffffffffffffff1673ffffffffffffffffffffffffffffffffffffffff1673ffffffffffffffffffffffffffffffffffffffff1681526020016003820160009054906101000a900473ffffffffffffffffffffffffffffffffffffffff1673ffffffffffffffffffffffffffffffffffffffff1673ffffffffffffffffffffffffffffffffffffffff168152602001600482018054600181600116156101000203166002900480601f0160208091040260200160405190810160405280929190818152602001828054600181600116156101000203166002900480156115285780601f106114fd57610100808354040283529160200191611528565b820191906000526020600020905b81548152906001019060200180831161150b57829003601f168201915b50505050508152602001600582015481526020016006820154815250509050828481548110151561155557fe5b90600052602060002090600702016000808201600090556001820160006101000a81549060ff02191690556001820160016101000a81549073ffffffffffffffffffffffffffffffffffffffff02191690556002820160006101000a81549073ffffffffffffffffffffffffffffffffffffffff02191690556003820160006101000a81549073ffffffffffffffffffffffffffffffffffffffff021916905560048201600061160591906140bc565b600582016000905560068201600090555050826001830381548110151561162857fe5b9060005260206000209060070201838581548110151561164457fe5b9060005260206000209060070201600082015481600001556001820160009054906101000a900460ff168160010160006101000a81548160ff0219169083151502179055506001820160019054906101000a900473ffffffffffffffffffffffffffffffffffffffff168160010160016101000a81548173ffffffffffffffffffffffffffffffffffffffff021916908373ffffffffffffffffffffffffffffffffffffffff1602179055506002820160009054906101000a900473ffffffffffffffffffffffffffffffffffffffff168160020160006101000a81548173ffffffffffffffffffffffffffffffffffffffff021916908373ffffffffffffffffffffffffffffffffffffffff1602179055506003820160009054906101000a900473ffffffffffffffffffffffffffffffffffffffff168160030160006101000a81548173ffffffffffffffffffffffffffffffffffffffff021916908373ffffffffffffffffffffffffffffffffffffffff160217905550600482018160040190805460018160011615610100020316600290046117e5929190614104565b506005820154816005015560068201548160060155905050826001830381548110151561180e57fe5b90600052602060002090600702016000808201600090556001820160006101000a81549060ff02191690556001820160016101000a81549073ffffffffffffffffffffffffffffffffffffffff02191690556002820160006101000a81549073ffffffffffffffffffffffffffffffffffffffff02191690556003820160006101000a81549073ffffffffffffffffffffffffffffffffffffffff02191690556004820160006118be91906140bc565b600582016000905560068201600090555050828054809190600190036118e4919061418b565b50600b81908060018154018082558091505090600182039060005260206000209060070201600090919290919091506000820151816000015560208201518160010160006101000a81548160ff02191690831515021790555060408201518160010160016101000a81548173ffffffffffffffffffffffffffffffffffffffff021916908373ffffffffffffffffffffffffffffffffffffffff16021790555060608201518160020160006101000a81548173ffffffffffffffffffffffffffffffffffffffff021916908373ffffffffffffffffffffffffffffffffffffffff16021790555060808201518160030160006101000a81548173ffffffffffffffffffffffffffffffffffffffff021916908373ffffffffffffffffffffffffffffffffffffffff16021790555060a0820151816004019080519060200190611a2e9291906141bd565b5060c0820151816005015560e0820151816006015550505060086000600160009054906101000a900473ffffffffffffffffffffffffffffffffffffffff1673ffffffffffffffffffffffffffffffffffffffff1673ffffffffffffffffffffffffffffffffffffffff1681526020019081526020016000206009908054611ab792919061423d565b5060086000600360009054906101000a900473ffffffffffffffffffffffffffffffffffffffff1673ffffffffffffffffffffffffffffffffffffffff1673ffffffffffffffffffffffffffffffffffffffff168152602001908152602001600020600a908054611b2992919061423d565b50611b3381613d20565b6006540160068190555050505050565b600860205281600052604060002081815481101515611b5e57fe5b9060005260206000209060070201600091509150508060000154908060010160009054906101000a900460ff16908060010160019054906101000a900473ffffffffffffffffffffffffffffffffffffffff16908060020160009054906101000a900473ffffffffffffffffffffffffffffffffffffffff16908060030160009054906101000a900473ffffffffffffffffffffffffffffffffffffffff1690806004018054600181600116156101000203166002900480601f016020809104026020016040519081016040528092919081815260200182805460018160011615610100020316600290048015611c965780601f10611c6b57610100808354040283529160200191611c96565b820191906000526020600020905b815481529060010190602001808311611c7957829003601f168201915b5050505050908060050154908060060154905088565b600160009054906101000a900473ffffffffffffffffffffffffffffffffffffffff1673ffffffffffffffffffffffffffffffffffffffff163373ffffffffffffffffffffffffffffffffffffffff161480611d555750600360009054906101000a900473ffffffffffffffffffffffffffffffffffffffff1673ffffffffffffffffffffffffffffffffffffffff163373ffffffffffffffffffffffffffffffffffffffff16145b1515611dc9576040517f08c379a00000000000000000000000000000000000000000000000000000000081526004018080602001828103825260198152602001807f4d7573742062652061207265676973746572656420757365720000000000000081525060200191505060405180910390fd5b600073ffffffffffffffffffffffffffffffffffffffff16600160009054906101000a900473ffffffffffffffffffffffffffffffffffffffff1673ffffffffffffffffffffffffffffffffffffffff1614158015611e775750600073ffffffffffffffffffffffffffffffffffffffff16600360009054906101000a900473ffffffffffffffffffffffffffffffffffffffff1673ffffffffffffffffffffffffffffffffffffffff1614155b1515611eeb576040517f08c379a000000000000000000000000000000000000000000000000000000000815260040180806020018281038252601c8152602001807f54776f207573657273206d75737420626520726567697374657265640000000081525060200191505060405180910390fd5b6000600860003373ffffffffffffffffffffffffffffffffffffffff1673ffffffffffffffffffffffffffffffffffffffff1681526020019081526020016000209050606081805480602002602001604051908101604052809291908181526020016000905b8282101561216257838290600052602060002090600702016101006040519081016040529081600082015481526020016001820160009054906101000a900460ff161515151581526020016001820160019054906101000a900473ffffffffffffffffffffffffffffffffffffffff1673ffffffffffffffffffffffffffffffffffffffff1673ffffffffffffffffffffffffffffffffffffffff1681526020016002820160009054906101000a900473ffffffffffffffffffffffffffffffffffffffff1673ffffffffffffffffffffffffffffffffffffffff1673ffffffffffffffffffffffffffffffffffffffff1681526020016003820160009054906101000a900473ffffffffffffffffffffffffffffffffffffffff1673ffffffffffffffffffffffffffffffffffffffff1673ffffffffffffffffffffffffffffffffffffffff168152602001600482018054600181600116156101000203166002900480601f0160208091040260200160405190810160405280929190818152602001828054600181600116156101000203166002900480156121365780601f1061210b57610100808354040283529160200191612136565b820191906000526020600020905b81548152906001019060200180831161211957829003601f168201915b505050505081526020016005820154815260200160068201548152505081526020019060010190611f51565b50505050905060008281612176919061418b565b50600080905060008090505b825181101561233457600b838281518110151561219b57fe5b90602001906020020151908060018154018082558091505090600182039060005260206000209060070201600090919290919091506000820151816000015560208201518160010160006101000a81548160ff02191690831515021790555060408201518160010160016101000a81548173ffffffffffffffffffffffffffffffffffffffff021916908373ffffffffffffffffffffffffffffffffffffffff16021790555060608201518160020160006101000a81548173ffffffffffffffffffffffffffffffffffffffff021916908373ffffffffffffffffffffffffffffffffffffffff16021790555060808201518160030160006101000a81548173ffffffffffffffffffffffffffffffffffffffff021916908373ffffffffffffffffffffffffffffffffffffffff16021790555060a08201518160040190805190602001906122eb9291906141bd565b5060c0820151816005015560e08201518160060155505050612323838281518110151561231457fe5b90602001906020020151613d20565b820191508080600101915050612182565b5060086000600160009054906101000a900473ffffffffffffffffffffffffffffffffffffffff1673ffffffffffffffffffffffffffffffffffffffff1673ffffffffffffffffffffffffffffffffffffffff16815260200190815260200160002060099080546123a692919061423d565b5060086000600360009054906101000a900473ffffffffffffffffffffffffffffffffffffffff1673ffffffffffffffffffffffffffffffffffffffff1673ffffffffffffffffffffffffffffffffffffffff168152602001908152602001600020600a90805461241892919061423d565b508060065401600681905550505050565b60058054600181600116156101000203166002900480601f0160208091040260200160405190810160405280929190818152602001828054600181600116156101000203166002900480156124bf5780601f10612494576101008083540402835291602001916124bf565b820191906000526020600020905b8154815290600101906020018083116124a257829003601f168201915b505050505081565b600260009054906101000a900473ffffffffffffffffffffffffffffffffffffffff1681565b60075481565b600060086000600360009054906101000a900473ffffffffffffffffffffffffffffffffffffffff1673ffffffffffffffffffffffffffffffffffffffff1673ffffffffffffffffffffffffffffffffffffffff16815260200190815260200160002080549050905090565b600260009054906101000a900473ffffffffffffffffffffffffffffffffffffffff1673ffffffffffffffffffffffffffffffffffffffff163373ffffffffffffffffffffffffffffffffffffffff16141515612624576040517f08c379a000000000000000000000000000000000000000000000000000000000815260040180806020018281038252601a8152602001807f4d7573742062652074686520696e766974656420667269656e6400000000000081525060200191505060405180910390fd5b600073ffffffffffffffffffffffffffffffffffffffff16600360009054906101000a900473ffffffffffffffffffffffffffffffffffffffff1673ffffffffffffffffffffffffffffffffffffffff161415156126ea576040517f08c379a00000000000000000000000000000000000000000000000000000000081526004018080602001828103825260198152602001807f55736572203220616c726561647920726567697374657265640000000000000081525060200191505060405180910390fd5b33600360006101000a81548173ffffffffffffffffffffffffffffffffffffffff021916908373ffffffffffffffffffffffffffffffffffffffff1602179055503373ffffffffffffffffffffffffffffffffffffffff16600360009054906101000a900473ffffffffffffffffffffffffffffffffffffffff1673ffffffffffffffffffffffffffffffffffffffff1614151561278757600080fd5b60008060009054906101000a900473ffffffffffffffffffffffffffffffffffffffff1690508073ffffffffffffffffffffffffffffffffffffffff16634760404e600360009054906101000a900473ffffffffffffffffffffffffffffffffffffffff166040518263ffffffff167c0100000000000000000000000000000000000000000000000000000000028152600401808273ffffffffffffffffffffffffffffffffffffffff1673ffffffffffffffffffffffffffffffffffffffff168152602001915050600060405180830381600087803b15801561286a57600080fd5b505af115801561287e573d6000803e3d6000fd5b5050505050565b60048054600181600116156101000203166002900480601f01602080910402602001604051908101604052809291908181526020018280546001816001161561010002031660029004801561291b5780601f106128f05761010080835404028352916020019161291b565b820191906000526020600020905b8154815290600101906020018083116128fe57829003601f168201915b505050505081565b600a8181548110151561293257fe5b90600052602060002090600702016000915090508060000154908060010160009054906101000a900460ff16908060010160019054906101000a900473ffffffffffffffffffffffffffffffffffffffff16908060020160009054906101000a900473ffffffffffffffffffffffffffffffffffffffff16908060030160009054906101000a900473ffffffffffffffffffffffffffffffffffffffff1690806004018054600181600116156101000203166002900480601f016020809104026020016040519081016040528092919081815260200182805460018160011615610100020316600290048015612a695780601f10612a3e57610100808354040283529160200191612a69565b820191906000526020600020905b815481529060010190602001808311612a4c57829003601f168201915b5050505050908060050154908060060154905088565b600b81815481101515612a8e57fe5b90600052602060002090600702016000915090508060000154908060010160009054906101000a900460ff16908060010160019054906101000a900473ffffffffffffffffffffffffffffffffffffffff16908060020160009054906101000a900473ffffffffffffffffffffffffffffffffffffffff16908060030160009054906101000a900473ffffffffffffffffffffffffffffffffffffffff1690806004018054600181600116156101000203166002900480601f016020809104026020016040519081016040528092919081815260200182805460018160011615610100020316600290048015612bc55780601f10612b9a57610100808354040283529160200191612bc5565b820191906000526020600020905b815481529060010190602001808311612ba857829003601f168201915b5050505050908060050154908060060154905088565b6000809054906101000a900473ffffffffffffffffffffffffffffffffffffffff1681565b60065481565b600981815481101515612c1557fe5b90600052602060002090600702016000915090508060000154908060010160009054906101000a900460ff16908060010160019054906101000a900473ffffffffffffffffffffffffffffffffffffffff16908060020160009054906101000a900473ffffffffffffffffffffffffffffffffffffffff16908060030160009054906101000a900473ffffffffffffffffffffffffffffffffffffffff1690806004018054600181600116156101000203166002900480601f016020809104026020016040519081016040528092919081815260200182805460018160011615610100020316600290048015612d4c5780601f10612d2157610100808354040283529160200191612d4c565b820191906000526020600020905b815481529060010190602001808311612d2f57829003601f168201915b5050505050908060050154908060060154905088565b600160009054906101000a900473ffffffffffffffffffffffffffffffffffffffff1673ffffffffffffffffffffffffffffffffffffffff163373ffffffffffffffffffffffffffffffffffffffff16141515612e27576040517f08c379a00000000000000000000000000000000000000000000000000000000081526004018080602001828103825260198152602001807f4d7573742062652072656769737465726564207573657220310000000000000081525060200191505060405180910390fd5b600073ffffffffffffffffffffffffffffffffffffffff16600360009054906101000a900473ffffffffffffffffffffffffffffffffffffffff1673ffffffffffffffffffffffffffffffffffffffff16141515612eed576040517f08c379a00000000000000000000000000000000000000000000000000000000081526004018080602001828103825260198152602001807f55736572203220616c726561647920726567697374657265640000000000000081525060200191505060405180910390fd5b3373ffffffffffffffffffffffffffffffffffffffff168173ffffffffffffffffffffffffffffffffffffffff1614151515612f91576040517f08c379a00000000000000000000000000000000000000000000000000000000081526004018080602001828103825260198152602001807f596f752063616e7420696e7669746520796f757273656c66210000000000000081525060200191505060405180910390fd5b600073ffffffffffffffffffffffffffffffffffffffff16600260009054906101000a900473ffffffffffffffffffffffffffffffffffffffff1673ffffffffffffffffffffffffffffffffffffffff1614151561307d576040517f08c379a00000000000000000000000000000000000000000000000000000000081526004018080602001828103825260218152602001807f596f75206861766520616c726561647920696e766974656420736f6d656f6e6581526020017f210000000000000000000000000000000000000000000000000000000000000081525060400191505060405180910390fd5b80600260006101000a81548173ffffffffffffffffffffffffffffffffffffffff021916908373ffffffffffffffffffffffffffffffffffffffff16021790555060008060009054906101000a900473ffffffffffffffffffffffffffffffffffffffff1690508073ffffffffffffffffffffffffffffffffffffffff1663cfe4ce89836040518263ffffffff167c0100000000000000000000000000000000000000000000000000000000028152600401808273ffffffffffffffffffffffffffffffffffffffff1673ffffffffffffffffffffffffffffffffffffffff168152602001915050600060405180830381600087803b15801561317f57600080fd5b505af1158015613193573d6000803e3d6000fd5b505050505050565b600060086000600160009054906101000a900473ffffffffffffffffffffffffffffffffffffffff1673ffffffffffffffffffffffffffffffffffffffff1673ffffffffffffffffffffffffffffffffffffffff16815260200190815260200160002080549050905090565b600160009054906101000a900473ffffffffffffffffffffffffffffffffffffffff1673ffffffffffffffffffffffffffffffffffffffff163373ffffffffffffffffffffffffffffffffffffffff1614806132b05750600360009054906101000a900473ffffffffffffffffffffffffffffffffffffffff1673ffffffffffffffffffffffffffffffffffffffff163373ffffffffffffffffffffffffffffffffffffffff16145b1515613324576040517f08c379a00000000000000000000000000000000000000000000000000000000081526004018080602001828103825260198152602001807f4d7573742062652061207265676973746572656420757365720000000000000081525060200191505060405180910390fd5b600160009054906101000a900473ffffffffffffffffffffffffffffffffffffffff1673ffffffffffffffffffffffffffffffffffffffff163373ffffffffffffffffffffffffffffffffffffffff1614156134245760006004805460018160011615610100020316600290049050141515613408576040517f08c379a000000000000000000000000000000000000000000000000000000000815260040180806020018281038252601a8152602001807f596f7520616c72656164792073657420796f7572206e616d652100000000000081525060200191505060405180910390fd5b806004908051906020019061341e92919061443d565b50613521565b600360009054906101000a900473ffffffffffffffffffffffffffffffffffffffff1673ffffffffffffffffffffffffffffffffffffffff163373ffffffffffffffffffffffffffffffffffffffff1614156135205760006005805460018160011615610100020316600290049050141515613508576040517f08c379a000000000000000000000000000000000000000000000000000000000815260040180806020018281038252601a8152602001807f596f7520616c72656164792073657420796f7572206e616d652100000000000081525060200191505060405180910390fd5b806005908051906020019061351e92919061443d565b505b5b50565b600160009054906101000a900473ffffffffffffffffffffffffffffffffffffffff1673ffffffffffffffffffffffffffffffffffffffff163373ffffffffffffffffffffffffffffffffffffffff1614806135cd5750600360009054906101000a900473ffffffffffffffffffffffffffffffffffffffff1673ffffffffffffffffffffffffffffffffffffffff163373ffffffffffffffffffffffffffffffffffffffff16145b1515613641576040517f08c379a00000000000000000000000000000000000000000000000000000000081526004018080602001828103825260198152602001807f4d7573742062652061207265676973746572656420757365720000000000000081525060200191505060405180910390fd5b600073ffffffffffffffffffffffffffffffffffffffff16600160009054906101000a900473ffffffffffffffffffffffffffffffffffffffff1673ffffffffffffffffffffffffffffffffffffffff16141580156136ef5750600073ffffffffffffffffffffffffffffffffffffffff16600360009054906101000a900473ffffffffffffffffffffffffffffffffffffffff1673ffffffffffffffffffffffffffffffffffffffff1614155b1515613763576040517f08c379a000000000000000000000000000000000000000000000000000000000815260040180806020018281038252601c8152602001807f54776f207573657273206d75737420626520726567697374657265640000000081525060200191505060405180910390fd5b600160009054906101000a900473ffffffffffffffffffffffffffffffffffffffff1673ffffffffffffffffffffffffffffffffffffffff168273ffffffffffffffffffffffffffffffffffffffff16148061380c5750600360009054906101000a900473ffffffffffffffffffffffffffffffffffffffff1673ffffffffffffffffffffffffffffffffffffffff168273ffffffffffffffffffffffffffffffffffffffff16145b1515613880576040517f08c379a00000000000000000000000000000000000000000000000000000000081526004018080602001828103825260208152602001807f646562746f72206d75737420626520612072656769737465726564207573657281525060200191505060405180910390fd5b602381511015156138f9576040517f08c379a00000000000000000000000000000000000000000000000000000000081526004018080602001828103825260148152602001807f4465736372697074696f6e20746f6f206c6f6e6700000000000000000000000081525060200191505060405180910390fd5b613901614032565b61390a33613e05565b816060019073ffffffffffffffffffffffffffffffffffffffff16908173ffffffffffffffffffffffffffffffffffffffff1681525050600061394b61402a565b90506001151585151514156139755760028681151561396657fe5b0482600001818152505061398e565b60001515851515141561398d57858260000181815250505b5b8482602001901515908115158152505033826040019073ffffffffffffffffffffffffffffffffffffffff16908173ffffffffffffffffffffffffffffffffffffffff168152505083826080019073ffffffffffffffffffffffffffffffffffffffff16908173ffffffffffffffffffffffffffffffffffffffff1681525050828260a001819052506007548260c0018181525050808260e001818152505060086000836060015173ffffffffffffffffffffffffffffffffffffffff1673ffffffffffffffffffffffffffffffffffffffff16815260200190815260200160002082908060018154018082558091505090600182039060005260206000209060070201600090919290919091506000820151816000015560208201518160010160006101000a81548160ff02191690831515021790555060408201518160010160016101000a81548173ffffffffffffffffffffffffffffffffffffffff021916908373ffffffffffffffffffffffffffffffffffffffff16021790555060608201518160020160006101000a81548173ffffffffffffffffffffffffffffffffffffffff021916908373ffffffffffffffffffffffffffffffffffffffff16021790555060808201518160030160006101000a81548173ffffffffffffffffffffffffffffffffffffffff021916908373ffffffffffffffffffffffffffffffffffffffff16021790555060a0820151816004019080519060200190613bb79291906141bd565b5060c0820151816005015560e0820151816006015550505060016007540160078190555060086000600160009054906101000a900473ffffffffffffffffffffffffffffffffffffffff1673ffffffffffffffffffffffffffffffffffffffff1673ffffffffffffffffffffffffffffffffffffffff1681526020019081526020016000206009908054613c4c92919061423d565b5060086000600360009054906101000a900473ffffffffffffffffffffffffffffffffffffffff1673ffffffffffffffffffffffffffffffffffffffff1673ffffffffffffffffffffffffffffffffffffffff168152602001908152602001600020600a908054613cbe92919061423d565b50505050505050565b6000600b80549050905090565b600160009054906101000a900473ffffffffffffffffffffffffffffffffffffffff1681565b600360009054906101000a900473ffffffffffffffffffffffffffffffffffffffff1681565b60008060009050600160009054906101000a900473ffffffffffffffffffffffffffffffffffffffff1673ffffffffffffffffffffffffffffffffffffffff16836080015173ffffffffffffffffffffffffffffffffffffffff161415613d94578260000151600003905080915050613e00565b600360009054906101000a900473ffffffffffffffffffffffffffffffffffffffff1673ffffffffffffffffffffffffffffffffffffffff16836080015173ffffffffffffffffffffffffffffffffffffffff161415613dfe578260000151905080915050613e00565b505b919050565b6000600160009054906101000a900473ffffffffffffffffffffffffffffffffffffffff1673ffffffffffffffffffffffffffffffffffffffff168273ffffffffffffffffffffffffffffffffffffffff161480613eb05750600360009054906101000a900473ffffffffffffffffffffffffffffffffffffffff1673ffffffffffffffffffffffffffffffffffffffff168273ffffffffffffffffffffffffffffffffffffffff16145b1515613f24576040517f08c379a00000000000000000000000000000000000000000000000000000000081526004018080602001828103825260178152602001807f75736572206d757374206265207265676973746572656400000000000000000081525060200191505060405180910390fd5b600160009054906101000a900473ffffffffffffffffffffffffffffffffffffffff1673ffffffffffffffffffffffffffffffffffffffff168273ffffffffffffffffffffffffffffffffffffffff161415613fa457600360009054906101000a900473ffffffffffffffffffffffffffffffffffffffff169050614025565b600360009054906101000a900473ffffffffffffffffffffffffffffffffffffffff1673ffffffffffffffffffffffffffffffffffffffff168273ffffffffffffffffffffffffffffffffffffffff16141561402457600160009054906101000a900473ffffffffffffffffffffffffffffffffffffffff169050614025565b5b919050565b600042905090565b6101006040519081016040528060008152602001600015158152602001600073ffffffffffffffffffffffffffffffffffffffff168152602001600073ffffffffffffffffffffffffffffffffffffffff168152602001600073ffffffffffffffffffffffffffffffffffffffff1681526020016060815260200160008152602001600081525090565b50805460018160011615610100020316600290046000825580601f106140e25750614101565b601f01602090049060005260206000209081019061410091906144bd565b5b50565b828054600181600116156101000203166002900490600052602060002090601f016020900481019282601f1061413d578054855561417a565b8280016001018555821561417a57600052602060002091601f016020900482015b8281111561417957825482559160010191906001019061415e565b5b50905061418791906144bd565b5090565b8154818355818111156141b8576007028160070283600052602060002091820191016141b791906144e2565b5b505050565b828054600181600116156101000203166002900490600052602060002090601f016020900481019282601f106141fe57805160ff191683800117855561422c565b8280016001018555821561422c579182015b8281111561422b578251825591602001919060010190614210565b5b50905061423991906144bd565b5090565b82805482825590600052602060002090600702810192821561442c5760005260206000209160070282015b8281111561442b578282600082015481600001556001820160009054906101000a900460ff168160010160006101000a81548160ff0219169083151502179055506001820160019054906101000a900473ffffffffffffffffffffffffffffffffffffffff168160010160016101000a81548173ffffffffffffffffffffffffffffffffffffffff021916908373ffffffffffffffffffffffffffffffffffffffff1602179055506002820160009054906101000a900473ffffffffffffffffffffffffffffffffffffffff168160020160006101000a81548173ffffffffffffffffffffffffffffffffffffffff021916908373ffffffffffffffffffffffffffffffffffffffff1602179055506003820160009054906101000a900473ffffffffffffffffffffffffffffffffffffffff168160030160006101000a81548173ffffffffffffffffffffffffffffffffffffffff021916908373ffffffffffffffffffffffffffffffffffffffff16021790555060048201816004019080546001816001161561010002031660029004614405929190614104565b506005820154816005015560068201548160060155505091600701919060070190614268565b5b50905061443991906144e2565b5090565b828054600181600116156101000203166002900490600052602060002090601f016020900481019282601f1061447e57805160ff19168380011785556144ac565b828001600101855582156144ac579182015b828111156144ab578251825591602001919060010190614490565b5b5090506144b991906144bd565b5090565b6144df91905b808211156144db5760008160009055506001016144c3565b5090565b90565b6145af91905b808211156145ab576000808201600090556001820160006101000a81549060ff02191690556001820160016101000a81549073ffffffffffffffffffffffffffffffffffffffff02191690556002820160006101000a81549073ffffffffffffffffffffffffffffffffffffffff02191690556003820160006101000a81549073ffffffffffffffffffffffffffffffffffffffff021916905560048201600061459291906140bc565b60058201600090556006820160009055506007016144e8565b5090565b9056fea165627a7a72305820e8ad983d8a6b7bdac7039550104ef6539bca5a2c08406479f5c3d3f8a1e0bef80029",
  "source": "pragma solidity ^0.5.0;\r\n\r\ncontract AgreementFactory {\r\n\r\n  address public creator;\r\n\r\n  mapping(address => bool) public allAgreements;\r\n\r\n  // map users to lists of agreements they're part of\r\n  mapping(address => address[]) public userToAgreements;\r\n\r\n  // map users to agreements they've been invited to\r\n  mapping(address => address[]) public userToInvites;\r\n\r\n  event AgreementCreated (address from, address agreementAddr);\r\n  event AgreementAdded (address agreementAddr, bool inAllAgreementsList);\r\n\r\n  constructor() public {\r\n    creator = msg.sender;\r\n  }\r\n\r\n  function createNewAgreement() public  {\r\n    Agreement newAgreement = new Agreement(msg.sender);\r\n    address agreementAddress = address(newAgreement);\r\n    allAgreements[agreementAddress] = true;\r\n    userToAgreements[msg.sender].push(agreementAddress); // push agreement to user's list of agreements\r\n    emit AgreementCreated(msg.sender, agreementAddress);\r\n    emit AgreementAdded(agreementAddress, allAgreements[agreementAddress]);\r\n  }\r\n\r\n  function getUsersAgreements(address _user) public view returns (address[] memory ) {\r\n    return( userToAgreements[_user] );\r\n  }\r\n\r\n  function getMyAgreements() public view returns (address[] memory ) {\r\n    return( userToAgreements[msg.sender] );\r\n  }\r\n\r\n  function getMyInvites() public view returns (address[] memory ) {\r\n    return( userToInvites[msg.sender] );\r\n  }\r\n\r\n  function newRegisteredUser(address _user) public _onlyChildContract {\r\n    userToAgreements[_user].push(msg.sender); //add sending contract's address to user's list of agreements\r\n  }\r\n\r\n  function newInvite(address _friend) public _onlyChildContract {\r\n    userToInvites[_friend].push(msg.sender); //add sending contract's address to user's list of invites\r\n  }\r\n\r\n  // Length getters and modifiers\r\n\r\n  function getMyAgreementsCount() public view returns(uint myAgreementsCount) {\r\n    return userToAgreements[msg.sender].length;\r\n  }\r\n\r\n  function getMyInvitesCount() public view returns(uint myAgreementsCount) {\r\n    return userToInvites[msg.sender].length;\r\n  }\r\n\r\n  function getUsersAgreementsCount(address _user) public view returns(uint usersAgreementsCount) {\r\n    return userToAgreements[_user].length;\r\n  }\r\n\r\n  modifier _onlyChildContract {\r\n    require( allAgreements[msg.sender] == true, 'Sending contract not listed as a child of AgreementFactory');\r\n    _;\r\n  }\r\n}\r\n\r\ncontract Agreement {\r\n\r\n  address public parentFactory;  // address of the AgreementFactory\r\n  address public user_1;\r\n  address public invited_friend;\r\n  address public user_2;\r\n  string public user_1_name;\r\n  string public user_2_name;\r\n\r\n  int public balance;  // the net balance of who owes who.  Positive if user_2 owes more, negative if user_1 owes more.\r\n\r\n  uint public txCounter; // counts the number of purchases created.\r\n\r\n  mapping( address => Tx[] ) public pendingTransactions; // map user to the list of their pending transactions.\r\n\r\n  // Solidity doesn't allow elems in nested arrays to be directly called via web3. So explicitly set each user's Tx array, for external calls\r\n  Tx[] public pendingTransactions_1 = pendingTransactions[user_1];\r\n  Tx[] public pendingTransactions_2 = pendingTransactions[user_2];\r\n\r\n  Tx[] public confirmedTransactions;\r\n\r\n  // the basic transaction object\r\n  struct Tx {\r\n    uint amount;\r\n    bool split;\r\n    address creator;\r\n    address confirmer;\r\n    address debtor;\r\n    string description;\r\n    uint index;  // useful for tracking transactions, since they can move from a 'pending' array to 'confirmed' array.\r\n    uint timestamp;\r\n  }\r\n\r\n  //  ***** constructor and user registration functions *****\r\n\r\n  constructor(address _creator) public {\r\n    parentFactory = msg.sender;\r\n    user_1 = _creator;\r\n  }\r\n\r\n  function setName(string memory _name) onlyUser public {\r\n    if (msg.sender == user_1) {\r\n      require(bytes(user_1_name).length == 0, \"You already set your name!\");\r\n      user_1_name = _name;\r\n    } else if (msg.sender == user_2) {\r\n      require(bytes(user_2_name).length == 0, \"You already set your name!\");\r\n      user_2_name = _name;\r\n    }\r\n  }\r\n\r\n  function inviteFriend(address _friend) onlyUser1 onlyUser2NotRegistered public {\r\n    //user_1 can re-set invited_friend address, until a second user registers.  After that, this func reverts.\r\n    require(_friend != msg.sender, 'You cant invite yourself!');\r\n    require(invited_friend == address(0), 'You have already invited someone!');\r\n    invited_friend = _friend;\r\n    AgreementFactory factory = AgreementFactory(parentFactory);\r\n    factory.newInvite(_friend);\r\n  }\r\n\r\n  function registerUser2() onlyInvitedFriend onlyUser2NotRegistered public {\r\n    user_2 = msg.sender;\r\n    require(user_2 == msg.sender); // check it's successfully set\r\n    AgreementFactory factory = AgreementFactory(parentFactory); // grab the factory\r\n    factory.newRegisteredUser(user_2); //  Call parent's registerUser2 func\r\n  }\r\n\r\n  // ****** Functions for creating and confirming transactions\r\n  function createPending(uint _amount, bool _split, address _debtor, string  memory _description) onlyUser onlyBothRegistered public {\r\n    require( _debtor == user_1 || _debtor == user_2, 'debtor must be a registered user' );\r\n    require( bytes(_description).length < 35, 'Description too long' );   // string length isn't always *exactly* bytes length - but this nevertheless enforces a short description\r\n    // create new pending tx\r\n    Tx memory newPendingTx;\r\n\r\n    // set the other user as confirmer\r\n    newPendingTx.confirmer = getOtherUser(msg.sender);\r\n\r\n    uint timeNow = timeStamp();\r\n\r\n    //If tx cost was split, set amounted owed to half of tx amount\r\n    if (_split == true) {\r\n      newPendingTx.amount = _amount/2;\r\n    } else if(_split == false) {\r\n      newPendingTx.amount = _amount;\r\n    }\r\n    // set remaining attributes\r\n    newPendingTx.split = _split;\r\n    newPendingTx.creator = msg.sender;\r\n    newPendingTx.debtor = _debtor;\r\n    newPendingTx.description = _description;\r\n    newPendingTx.index = txCounter;\r\n    newPendingTx.timestamp = timeNow;\r\n\r\n    // append new tx to the confirmer's pending tx array, and updated Tx counter and lengths\r\n    pendingTransactions[newPendingTx.confirmer].push(newPendingTx);\r\n    txCounter = txCounter + 1; //update tx counter\r\n\r\n    pendingTransactions_1 = pendingTransactions[user_1];\r\n    pendingTransactions_2 = pendingTransactions[user_2];\r\n  }\r\n\r\n  function confirmAll() onlyUser onlyBothRegistered public {\r\n    Tx[] storage allPendingTx = pendingTransactions[msg.sender];\r\n    Tx[] memory memAllPendingTx = allPendingTx;  // copy pending txs to memory\r\n\r\n    allPendingTx.length = 0; // delete all pending txs in storage\r\n\r\n    int balanceChange  = 0;\r\n    for (uint i = 0; i < memAllPendingTx.length; i++) {\r\n      confirmedTransactions.push(memAllPendingTx[i]);  // add Tx to confirmed array\r\n      balanceChange = balanceChange + changeInBalance(memAllPendingTx[i]); // add the tx amount to the balance change\r\n    }\r\n    // update lengths and balance\r\n\r\n    pendingTransactions_1 = pendingTransactions[user_1];\r\n    pendingTransactions_2 = pendingTransactions[user_2];\r\n    balance = balance + balanceChange;\r\n  }\r\n\r\n  function confirmSingleTx(uint _txIndex) onlyUser onlyBothRegistered public {\r\n    Tx[] storage allPendingTx =  pendingTransactions[msg.sender];\r\n\r\n    uint len = allPendingTx.length;\r\n    Tx memory transaction = allPendingTx[_txIndex];  // copy tx to memory\r\n\r\n    // delete transaction fron pendingTx. This approach preserves array length, but not order\r\n    delete allPendingTx[_txIndex];\r\n    allPendingTx[_txIndex] = allPendingTx[len - 1];   // copy last element to empty slot\r\n    delete allPendingTx[len - 1];   // delete last element\r\n    allPendingTx.length--;  // decrease array size by one to remove empty slot\r\n\r\n    // append Tx to confirmed transactions\r\n    confirmedTransactions.push(transaction);\r\n\r\n    //update stored lengths\r\n    pendingTransactions_1 = pendingTransactions[user_1];\r\n    pendingTransactions_2 = pendingTransactions[user_2];\r\n\r\n    balance = balance + changeInBalance(transaction);\r\n  }\r\n\r\n  function balanceHealthCheck () onlyUser public view returns (int _testBal, int _bal, bool) {\r\n    // calculates balance from total confirmed tx history. Checks == to running balance.\r\n    int testBalance = 0;\r\n    for (uint i = 0; i < confirmedTransactions.length; i++) {\r\n      testBalance = testBalance + changeInBalance(confirmedTransactions[i]);\r\n    }\r\n\r\n    if (testBalance != balance) {\r\n      return(testBalance, balance, false);\r\n    } else if (testBalance == balance) {\r\n      return(testBalance, balance, true);\r\n    }\r\n  }\r\n\r\n  // ***** Helper and getter functions *****\r\n  function changeInBalance(Tx memory _purchase) private view returns (int _change) {\r\n    // returns the change to a balance caused by a purchase\r\n    int change = 0;\r\n    if (_purchase.debtor == user_1) {\r\n      change = -int(_purchase.amount);\r\n      return change;\r\n    } else if (_purchase.debtor == user_2) {\r\n      change = int(_purchase.amount);\r\n      return change;\r\n    }\r\n  }\r\n\r\n  function getOtherUser(address _user) private view returns (address) {\r\n    require(_user == user_1 || _user == user_2, 'user must be registered');\r\n    if (_user == user_1) {\r\n      return user_2;\r\n    } else if (_user == user_2) {\r\n      return user_1;\r\n    }\r\n  }\r\n\r\n  function timeStamp() private view returns (uint) {\r\n    return block.timestamp;\r\n  }\r\n\r\n  // Length getters for lists of confirmed & pending txs\r\n  function getPendingTxsLength1() public view returns(uint) {\r\n    return pendingTransactions[user_1].length;\r\n  }\r\n\r\n  function getPendingTxsLength2() public view returns(uint) {\r\n    return pendingTransactions[user_2].length;\r\n  }\r\n\r\n  function getConfirmedTxsLength() public view returns(uint) {\r\n    return confirmedTransactions.length;\r\n  }\r\n\r\n  // ******** Modifiers *********\r\n  modifier onlyUser {\r\n    require(msg.sender == user_1 || msg.sender == user_2, 'Must be a registered user');\r\n    _;\r\n  }\r\n\r\n  modifier onlyUser1 {\r\n    require(msg.sender == user_1, 'Must be registered user 1');\r\n    _;\r\n  }\r\n\r\n  modifier onlyInvitedFriend {\r\n    require(msg.sender == invited_friend, 'Must be the invited friend');\r\n    _;\r\n  }\r\n\r\n  modifier onlyUser2NotRegistered {\r\n    require (user_2 == address(0), 'User 2 already registered');\r\n    _;\r\n  }\r\n\r\n  modifier onlyBothRegistered {\r\n    require (user_1 != address(0) && user_2 != address(0), 'Two users must be registered');\r\n    _;\r\n  }\r\n}\r\n",
  "sourcePath": "C:/Users/Administrator/Desktop/Solidity/EtherSplit/contracts/AgreementFactory.sol",
  "compiler": {
    "name": "solc",
    "version": "0.5.0+commit.1d4f565a.Emscripten.clang"
  },
  "schemaVersion": "3.0.0",
  "updatedAt": "2019-01-22T21:26:12.998Z",
  "devdoc": {
    "methods": {}
  },
  "userdoc": {
    "methods": {}
  }
}