{
  "contractName": "Agreement",
  "abi": [
    {
      "constant": true,
      "inputs": [
        {
          "name": "",
          "type": "uint256"
        }
      ],
      "name": "confirmedTxsList",
      "outputs": [
        {
          "name": "",
          "type": "uint256"
        }
      ],
      "payable": false,
      "stateMutability": "view",
      "type": "function"
    },
    {
      "constant": true,
      "inputs": [
        {
          "name": "",
          "type": "uint256"
        }
      ],
      "name": "pendingTxs1",
      "outputs": [
        {
          "name": "amount",
          "type": "uint256"
        },
        {
          "name": "split",
          "type": "bool"
        },
        {
          "name": "creator",
          "type": "address"
        },
        {
          "name": "confirmer",
          "type": "address"
        },
        {
          "name": "debtor",
          "type": "address"
        },
        {
          "name": "description",
          "type": "string"
        },
        {
          "name": "id",
          "type": "uint256"
        },
        {
          "name": "timestamp",
          "type": "uint256"
        },
        {
          "name": "index",
          "type": "uint256"
        }
      ],
      "payable": false,
      "stateMutability": "view",
      "type": "function"
    },
    {
      "constant": true,
      "inputs": [
        {
          "name": "",
          "type": "uint256"
        }
      ],
      "name": "pendingTxsList1",
      "outputs": [
        {
          "name": "",
          "type": "uint256"
        }
      ],
      "payable": false,
      "stateMutability": "view",
      "type": "function"
    },
    {
      "constant": true,
      "inputs": [],
      "name": "parentFactoryOwner",
      "outputs": [
        {
          "name": "",
          "type": "address"
        }
      ],
      "payable": false,
      "stateMutability": "view",
      "type": "function"
    },
    {
      "constant": true,
      "inputs": [],
      "name": "user_2_name",
      "outputs": [
        {
          "name": "",
          "type": "string"
        }
      ],
      "payable": false,
      "stateMutability": "view",
      "type": "function"
    },
    {
      "constant": true,
      "inputs": [],
      "name": "invited_friend",
      "outputs": [
        {
          "name": "",
          "type": "address"
        }
      ],
      "payable": false,
      "stateMutability": "view",
      "type": "function"
    },
    {
      "constant": true,
      "inputs": [],
      "name": "txCounter",
      "outputs": [
        {
          "name": "",
          "type": "uint256"
        }
      ],
      "payable": false,
      "stateMutability": "view",
      "type": "function"
    },
    {
      "constant": true,
      "inputs": [
        {
          "name": "",
          "type": "uint256"
        }
      ],
      "name": "confirmedTxs",
      "outputs": [
        {
          "name": "amount",
          "type": "uint256"
        },
        {
          "name": "split",
          "type": "bool"
        },
        {
          "name": "creator",
          "type": "address"
        },
        {
          "name": "confirmer",
          "type": "address"
        },
        {
          "name": "debtor",
          "type": "address"
        },
        {
          "name": "description",
          "type": "string"
        },
        {
          "name": "id",
          "type": "uint256"
        },
        {
          "name": "timestamp",
          "type": "uint256"
        },
        {
          "name": "index",
          "type": "uint256"
        }
      ],
      "payable": false,
      "stateMutability": "view",
      "type": "function"
    },
    {
      "constant": true,
      "inputs": [],
      "name": "user_1_name",
      "outputs": [
        {
          "name": "",
          "type": "string"
        }
      ],
      "payable": false,
      "stateMutability": "view",
      "type": "function"
    },
    {
      "constant": true,
      "inputs": [],
      "name": "parentFactory",
      "outputs": [
        {
          "name": "",
          "type": "address"
        }
      ],
      "payable": false,
      "stateMutability": "view",
      "type": "function"
    },
    {
      "constant": true,
      "inputs": [],
      "name": "balance",
      "outputs": [
        {
          "name": "",
          "type": "int256"
        }
      ],
      "payable": false,
      "stateMutability": "view",
      "type": "function"
    },
    {
      "constant": true,
      "inputs": [
        {
          "name": "",
          "type": "uint256"
        }
      ],
      "name": "pendingTxsList2",
      "outputs": [
        {
          "name": "",
          "type": "uint256"
        }
      ],
      "payable": false,
      "stateMutability": "view",
      "type": "function"
    },
    {
      "constant": true,
      "inputs": [],
      "name": "user_1",
      "outputs": [
        {
          "name": "",
          "type": "address"
        }
      ],
      "payable": false,
      "stateMutability": "view",
      "type": "function"
    },
    {
      "constant": true,
      "inputs": [
        {
          "name": "",
          "type": "uint256"
        }
      ],
      "name": "pendingTxs2",
      "outputs": [
        {
          "name": "amount",
          "type": "uint256"
        },
        {
          "name": "split",
          "type": "bool"
        },
        {
          "name": "creator",
          "type": "address"
        },
        {
          "name": "confirmer",
          "type": "address"
        },
        {
          "name": "debtor",
          "type": "address"
        },
        {
          "name": "description",
          "type": "string"
        },
        {
          "name": "id",
          "type": "uint256"
        },
        {
          "name": "timestamp",
          "type": "uint256"
        },
        {
          "name": "index",
          "type": "uint256"
        }
      ],
      "payable": false,
      "stateMutability": "view",
      "type": "function"
    },
    {
      "constant": true,
      "inputs": [],
      "name": "user_2",
      "outputs": [
        {
          "name": "",
          "type": "address"
        }
      ],
      "payable": false,
      "stateMutability": "view",
      "type": "function"
    },
    {
      "inputs": [
        {
          "name": "_creator",
          "type": "address"
        }
      ],
      "payable": false,
      "stateMutability": "nonpayable",
      "type": "constructor"
    },
    {
      "anonymous": false,
      "inputs": [
        {
          "indexed": false,
          "name": "id",
          "type": "uint256"
        },
        {
          "indexed": false,
          "name": "listIndex",
          "type": "uint256"
        },
        {
          "indexed": false,
          "name": "amount",
          "type": "uint256"
        },
        {
          "indexed": false,
          "name": "creator",
          "type": "address"
        }
      ],
      "name": "logNewPendingTx",
      "type": "event"
    },
    {
      "anonymous": false,
      "inputs": [
        {
          "indexed": false,
          "name": "id",
          "type": "uint256"
        },
        {
          "indexed": false,
          "name": "listIndex",
          "type": "uint256"
        },
        {
          "indexed": false,
          "name": "amount",
          "type": "uint256"
        },
        {
          "indexed": false,
          "name": "creator",
          "type": "address"
        }
      ],
      "name": "logDeletedTx",
      "type": "event"
    },
    {
      "constant": false,
      "inputs": [
        {
          "name": "_name",
          "type": "string"
        }
      ],
      "name": "setName",
      "outputs": [],
      "payable": false,
      "stateMutability": "nonpayable",
      "type": "function"
    },
    {
      "constant": false,
      "inputs": [
        {
          "name": "_friend",
          "type": "address"
        }
      ],
      "name": "inviteFriend",
      "outputs": [],
      "payable": false,
      "stateMutability": "nonpayable",
      "type": "function"
    },
    {
      "constant": false,
      "inputs": [],
      "name": "registerUser2",
      "outputs": [],
      "payable": false,
      "stateMutability": "nonpayable",
      "type": "function"
    },
    {
      "constant": false,
      "inputs": [
        {
          "name": "_amount",
          "type": "uint256"
        },
        {
          "name": "_split",
          "type": "bool"
        },
        {
          "name": "_debtor",
          "type": "address"
        },
        {
          "name": "_description",
          "type": "string"
        }
      ],
      "name": "createPending",
      "outputs": [],
      "payable": false,
      "stateMutability": "nonpayable",
      "type": "function"
    },
    {
      "constant": false,
      "inputs": [
        {
          "name": "_id",
          "type": "uint256"
        }
      ],
      "name": "userDeletePendingTx",
      "outputs": [
        {
          "name": "",
          "type": "uint256"
        }
      ],
      "payable": false,
      "stateMutability": "nonpayable",
      "type": "function"
    },
    {
      "constant": false,
      "inputs": [],
      "name": "confirmAll",
      "outputs": [],
      "payable": false,
      "stateMutability": "nonpayable",
      "type": "function"
    },
    {
      "constant": false,
      "inputs": [
        {
          "name": "_id",
          "type": "uint256"
        }
      ],
      "name": "confirmSingleTx",
      "outputs": [],
      "payable": false,
      "stateMutability": "nonpayable",
      "type": "function"
    },
    {
      "constant": true,
      "inputs": [],
      "name": "balanceHealthCheck",
      "outputs": [
        {
          "name": "_testBal",
          "type": "int256"
        },
        {
          "name": "_bal",
          "type": "int256"
        },
        {
          "name": "",
          "type": "bool"
        }
      ],
      "payable": false,
      "stateMutability": "view",
      "type": "function"
    },
    {
      "constant": true,
      "inputs": [
        {
          "name": "_id",
          "type": "uint256"
        }
      ],
      "name": "isPendingTx1",
      "outputs": [
        {
          "name": "isIndeed",
          "type": "bool"
        }
      ],
      "payable": false,
      "stateMutability": "view",
      "type": "function"
    },
    {
      "constant": true,
      "inputs": [
        {
          "name": "_id",
          "type": "uint256"
        }
      ],
      "name": "isPendingTx2",
      "outputs": [
        {
          "name": "isIndeed",
          "type": "bool"
        }
      ],
      "payable": false,
      "stateMutability": "view",
      "type": "function"
    },
    {
      "constant": true,
      "inputs": [
        {
          "name": "_id",
          "type": "uint256"
        }
      ],
      "name": "isConfirmedTx",
      "outputs": [
        {
          "name": "isIndeed",
          "type": "bool"
        }
      ],
      "payable": false,
      "stateMutability": "view",
      "type": "function"
    },
    {
      "constant": true,
      "inputs": [],
      "name": "getPendingTxsLength1",
      "outputs": [
        {
          "name": "",
          "type": "uint256"
        }
      ],
      "payable": false,
      "stateMutability": "view",
      "type": "function"
    },
    {
      "constant": true,
      "inputs": [],
      "name": "getPendingTxsLength2",
      "outputs": [
        {
          "name": "",
          "type": "uint256"
        }
      ],
      "payable": false,
      "stateMutability": "view",
      "type": "function"
    },
    {
      "constant": true,
      "inputs": [],
      "name": "getConfirmedTxsLength",
      "outputs": [
        {
          "name": "",
          "type": "uint256"
        }
      ],
      "payable": false,
      "stateMutability": "view",
      "type": "function"
    }
  ],
  "bytecode": "0x608060405260006008553480156200001657600080fd5b5060405160208062004cc9833981018060405260208110156200003857600080fd5b8101908080519060200190929190505050336000806101000a81548173ffffffffffffffffffffffffffffffffffffffff021916908373ffffffffffffffffffffffffffffffffffffffff16021790555060008060009054906101000a900473ffffffffffffffffffffffffffffffffffffffff1690508073ffffffffffffffffffffffffffffffffffffffff16634273601c6040518163ffffffff167c010000000000000000000000000000000000000000000000000000000002815260040160206040518083038186803b1580156200011257600080fd5b505afa15801562000127573d6000803e3d6000fd5b505050506040513d60208110156200013e57600080fd5b8101908080519060200190929190505050600160006101000a81548173ffffffffffffffffffffffffffffffffffffffff021916908373ffffffffffffffffffffffffffffffffffffffff16021790555081600260006101000a81548173ffffffffffffffffffffffffffffffffffffffff021916908373ffffffffffffffffffffffffffffffffffffffff1602179055505050614ae780620001e26000396000f3fe608060405260043610610175576000357c0100000000000000000000000000000000000000000000000000000000900463ffffffff168063043f2a011461017a578063046d9fa0146101c95780630a4f1a70146102065780630e13ff761461037a5780633b02e829146103b55780634db49e60146104045780636140d8e01461045757806361655562146104ae57806361c49973146104c557806370b637591461055557806374f079b8146105ac5780637660c494146105d75780638060b19614610602578063889f178e1461077657806389aded41146107c957806392ecd6af146107e05780639d35c16114610870578063b44229c4146108c7578063b69ef8a81461091a578063bd7c535114610945578063c1e29a5614610996578063c47f0027146109c1578063c9f85b7514610a89578063e5a2d21b14610b87578063ecc5ece014610bd6578063ef2be8f914610c25578063f1e96c2714610c50578063f233607d14610ca7578063fd7a567c14610e1b575b600080fd5b34801561018657600080fd5b506101b36004803603602081101561019d57600080fd5b8101908080359060200190929190505050610e72565b6040518082815260200191505060405180910390f35b3480156101d557600080fd5b506101de610e95565b6040518084815260200183815260200182151515158152602001935050505060405180910390f35b34801561021257600080fd5b5061023f6004803603602081101561022957600080fd5b81019080803590602001909291905050506112a7565b604051808a8152602001891515151581526020018873ffffffffffffffffffffffffffffffffffffffff1673ffffffffffffffffffffffffffffffffffffffff1681526020018773ffffffffffffffffffffffffffffffffffffffff1673ffffffffffffffffffffffffffffffffffffffff1681526020018673ffffffffffffffffffffffffffffffffffffffff1673ffffffffffffffffffffffffffffffffffffffff16815260200180602001858152602001848152602001838152602001828103825286818151815260200191508051906020019080838360005b8381101561033757808201518184015260208101905061031c565b50505050905090810190601f1680156103645780820380516001836020036101000a031916815260200191505b509a505050505050505050505060405180910390f35b34801561038657600080fd5b506103b36004803603602081101561039d57600080fd5b81019080803590602001909291905050506113fa565b005b3480156103c157600080fd5b506103ee600480360360208110156103d857600080fd5b8101908080359060200190929190505050611ccd565b6040518082815260200191505060405180910390f35b34801561041057600080fd5b5061043d6004803603602081101561042757600080fd5b8101908080359060200190929190505050611cf0565b604051808215151515815260200191505060405180910390f35b34801561046357600080fd5b5061046c611d42565b604051808273ffffffffffffffffffffffffffffffffffffffff1673ffffffffffffffffffffffffffffffffffffffff16815260200191505060405180910390f35b3480156104ba57600080fd5b506104c3611d68565b005b3480156104d157600080fd5b506104da612506565b6040518080602001828103825283818151815260200191508051906020019080838360005b8381101561051a5780820151818401526020810190506104ff565b50505050905090810190601f1680156105475780820380516001836020036101000a031916815260200191505b509250505060405180910390f35b34801561056157600080fd5b5061056a6125a4565b604051808273ffffffffffffffffffffffffffffffffffffffff1673ffffffffffffffffffffffffffffffffffffffff16815260200191505060405180910390f35b3480156105b857600080fd5b506105c16125ca565b6040518082815260200191505060405180910390f35b3480156105e357600080fd5b506105ec6125d0565b6040518082815260200191505060405180910390f35b34801561060e57600080fd5b5061063b6004803603602081101561062557600080fd5b81019080803590602001909291905050506125dd565b604051808a8152602001891515151581526020018873ffffffffffffffffffffffffffffffffffffffff1673ffffffffffffffffffffffffffffffffffffffff1681526020018773ffffffffffffffffffffffffffffffffffffffff1673ffffffffffffffffffffffffffffffffffffffff1681526020018673ffffffffffffffffffffffffffffffffffffffff1673ffffffffffffffffffffffffffffffffffffffff16815260200180602001858152602001848152602001838152602001828103825286818151815260200191508051906020019080838360005b83811015610733578082015181840152602081019050610718565b50505050905090810190601f1680156107605780820380516001836020036101000a031916815260200191505b509a505050505050505050505060405180910390f35b34801561078257600080fd5b506107af6004803603602081101561079957600080fd5b8101908080359060200190929190505050612730565b604051808215151515815260200191505060405180910390f35b3480156107d557600080fd5b506107de612782565b005b3480156107ec57600080fd5b506107f5612aa8565b6040518080602001828103825283818151815260200191508051906020019080838360005b8381101561083557808201518184015260208101905061081a565b50505050905090810190601f1680156108625780820380516001836020036101000a031916815260200191505b509250505060405180910390f35b34801561087c57600080fd5b50610885612b46565b604051808273ffffffffffffffffffffffffffffffffffffffff1673ffffffffffffffffffffffffffffffffffffffff16815260200191505060405180910390f35b3480156108d357600080fd5b50610900600480360360208110156108ea57600080fd5b8101908080359060200190929190505050612b6b565b604051808215151515815260200191505060405180910390f35b34801561092657600080fd5b5061092f612bbd565b6040518082815260200191505060405180910390f35b34801561095157600080fd5b506109946004803603602081101561096857600080fd5b81019080803573ffffffffffffffffffffffffffffffffffffffff169060200190929190505050612bc3565b005b3480156109a257600080fd5b506109ab612ffc565b6040518082815260200191505060405180910390f35b3480156109cd57600080fd5b50610a87600480360360208110156109e457600080fd5b8101908080359060200190640100000000811115610a0157600080fd5b820183602082011115610a1357600080fd5b80359060200191846001830284011164010000000083111715610a3557600080fd5b91908080601f016020809104026020016040519081016040528093929190818152602001838380828437600081840152601f19601f820116905080830192505050505050509192919290505050613009565b005b348015610a9557600080fd5b50610b8560048036036080811015610aac57600080fd5b8101908080359060200190929190803515159060200190929190803573ffffffffffffffffffffffffffffffffffffffff16906020019092919080359060200190640100000000811115610aff57600080fd5b820183602082011115610b1157600080fd5b80359060200191846001830284011164010000000083111715610b3357600080fd5b91908080601f016020809104026020016040519081016040528093929190818152602001838380828437600081840152601f19601f820116905080830192505050505050509192919290505050613326565b005b348015610b9357600080fd5b50610bc060048036036020811015610baa57600080fd5b8101908080359060200190929190505050613ada565b6040518082815260200191505060405180910390f35b348015610be257600080fd5b50610c0f60048036036020811015610bf957600080fd5b8101908080359060200190929190505050613afd565b6040518082815260200191505060405180910390f35b348015610c3157600080fd5b50610c3a613ebd565b6040518082815260200191505060405180910390f35b348015610c5c57600080fd5b50610c65613eca565b604051808273ffffffffffffffffffffffffffffffffffffffff1673ffffffffffffffffffffffffffffffffffffffff16815260200191505060405180910390f35b348015610cb357600080fd5b50610ce060048036036020811015610cca57600080fd5b8101908080359060200190929190505050613ef0565b604051808a8152602001891515151581526020018873ffffffffffffffffffffffffffffffffffffffff1673ffffffffffffffffffffffffffffffffffffffff1681526020018773ffffffffffffffffffffffffffffffffffffffff1673ffffffffffffffffffffffffffffffffffffffff1681526020018673ffffffffffffffffffffffffffffffffffffffff1673ffffffffffffffffffffffffffffffffffffffff16815260200180602001858152602001848152602001838152602001828103825286818151815260200191508051906020019080838360005b83811015610dd8578082015181840152602081019050610dbd565b50505050905090810190601f168015610e055780820380516001836020036101000a031916815260200191505b509a505050505050505050505060405180910390f35b348015610e2757600080fd5b50610e30614043565b604051808273ffffffffffffffffffffffffffffffffffffffff1673ffffffffffffffffffffffffffffffffffffffff16815260200191505060405180910390f35b600e81815481101515610e8157fe5b906000526020600020016000915090505481565b6000806000600160009054906101000a900473ffffffffffffffffffffffffffffffffffffffff1673ffffffffffffffffffffffffffffffffffffffff163373ffffffffffffffffffffffffffffffffffffffff161480610f9b5750600260009054906101000a900473ffffffffffffffffffffffffffffffffffffffff1673ffffffffffffffffffffffffffffffffffffffff163373ffffffffffffffffffffffffffffffffffffffff161480610f9a5750600460009054906101000a900473ffffffffffffffffffffffffffffffffffffffff1673ffffffffffffffffffffffffffffffffffffffff163373ffffffffffffffffffffffffffffffffffffffff16145b5b151561100f576040517f08c379a00000000000000000000000000000000000000000000000000000000081526004018080602001828103825260198152602001807f4d7573742062652061207265676973746572656420757365720000000000000081525060200191505060405180910390fd5b600080905060008090505b600e80549050811015611266576000600e8281548110151561103857fe5b90600052602060002001549050611254600d60008381526020019081526020016000206101206040519081016040529081600082015481526020016001820160009054906101000a900460ff161515151581526020016001820160019054906101000a900473ffffffffffffffffffffffffffffffffffffffff1673ffffffffffffffffffffffffffffffffffffffff1673ffffffffffffffffffffffffffffffffffffffff1681526020016002820160009054906101000a900473ffffffffffffffffffffffffffffffffffffffff1673ffffffffffffffffffffffffffffffffffffffff1673ffffffffffffffffffffffffffffffffffffffff1681526020016003820160009054906101000a900473ffffffffffffffffffffffffffffffffffffffff1673ffffffffffffffffffffffffffffffffffffffff1673ffffffffffffffffffffffffffffffffffffffff168152602001600482018054600181600116156101000203166002900480601f0160208091040260200160405190810160405280929190818152602001828054600181600116156101000203166002900480156112285780601f106111fd57610100808354040283529160200191611228565b820191906000526020600020905b81548152906001019060200180831161120b57829003601f168201915b505050505081526020016005820154815260200160068201548152602001600782015481525050614069565b8301925050808060010191505061101a565b506007548114151561128457806007546000935093509350506112a2565b6007548114156112a057806007546001935093509350506112a2565b505b909192565b60096020528060005260406000206000915090508060000154908060010160009054906101000a900460ff16908060010160019054906101000a900473ffffffffffffffffffffffffffffffffffffffff16908060020160009054906101000a900473ffffffffffffffffffffffffffffffffffffffff16908060030160009054906101000a900473ffffffffffffffffffffffffffffffffffffffff1690806004018054600181600116156101000203166002900480601f0160208091040260200160405190810160405280929190818152602001828054600181600116156101000203166002900480156113de5780601f106113b3576101008083540402835291602001916113de565b820191906000526020600020905b8154815290600101906020018083116113c157829003601f168201915b5050505050908060050154908060060154908060070154905089565b600260009054906101000a900473ffffffffffffffffffffffffffffffffffffffff1673ffffffffffffffffffffffffffffffffffffffff163373ffffffffffffffffffffffffffffffffffffffff1614806114a35750600460009054906101000a900473ffffffffffffffffffffffffffffffffffffffff1673ffffffffffffffffffffffffffffffffffffffff163373ffffffffffffffffffffffffffffffffffffffff16145b1515611517576040517f08c379a00000000000000000000000000000000000000000000000000000000081526004018080602001828103825260198152602001807f4d7573742062652061207265676973746572656420757365720000000000000081525060200191505060405180910390fd5b600073ffffffffffffffffffffffffffffffffffffffff16600260009054906101000a900473ffffffffffffffffffffffffffffffffffffffff1673ffffffffffffffffffffffffffffffffffffffff16141580156115c55750600073ffffffffffffffffffffffffffffffffffffffff16600460009054906101000a900473ffffffffffffffffffffffffffffffffffffffff1673ffffffffffffffffffffffffffffffffffffffff1614155b1515611639576040517f08c379a000000000000000000000000000000000000000000000000000000000815260040180806020018281038252601c8152602001807f54776f207573657273206d75737420626520726567697374657265640000000081525060200191505060405180910390fd5b600060099050600460009054906101000a900473ffffffffffffffffffffffffffffffffffffffff1673ffffffffffffffffffffffffffffffffffffffff163373ffffffffffffffffffffffffffffffffffffffff16141561169a57600b90505b80600083815260200190815260200160002060020160009054906101000a900473ffffffffffffffffffffffffffffffffffffffff1673ffffffffffffffffffffffffffffffffffffffff163373ffffffffffffffffffffffffffffffffffffffff16141515611798576040517f08c379a000000000000000000000000000000000000000000000000000000000815260040180806020018281038252602b8152602001807f557365722063616e206f6e6c7920636f6e6669726d207468656972206f776e2081526020017f70656e64696e672054787300000000000000000000000000000000000000000081525060400191505060405180910390fd5b80600083815260200190815260200160002060010160019054906101000a900473ffffffffffffffffffffffffffffffffffffffff1673ffffffffffffffffffffffffffffffffffffffff166117ed3361414e565b73ffffffffffffffffffffffffffffffffffffffff1614151561189e576040517f08c379a00000000000000000000000000000000000000000000000000000000081526004018080602001828103825260388152602001807f557365722063616e206f6e6c7920636f6e6669726d2070656e64696e6720547881526020017f732063726561746564206279206f74686572207573657220000000000000000081525060400191505060405180910390fd5b6118a6614852565b8160008481526020019081526020016000206101206040519081016040529081600082015481526020016001820160009054906101000a900460ff161515151581526020016001820160019054906101000a900473ffffffffffffffffffffffffffffffffffffffff1673ffffffffffffffffffffffffffffffffffffffff1673ffffffffffffffffffffffffffffffffffffffff1681526020016002820160009054906101000a900473ffffffffffffffffffffffffffffffffffffffff1673ffffffffffffffffffffffffffffffffffffffff1673ffffffffffffffffffffffffffffffffffffffff1681526020016003820160009054906101000a900473ffffffffffffffffffffffffffffffffffffffff1673ffffffffffffffffffffffffffffffffffffffff1673ffffffffffffffffffffffffffffffffffffffff168152602001600482018054600181600116156101000203166002900480601f016020809104026020016040519081016040528092919081815260200182805460018160011615610100020316600290048015611a855780601f10611a5a57610100808354040283529160200191611a85565b820191906000526020600020905b815481529060010190602001808311611a6857829003601f168201915b5050505050815260200160058201548152602001600682015481526020016007820154815250509050611ab88333614373565b50611ac283612b6b565b151515611b37576040517f08c379a00000000000000000000000000000000000000000000000000000000081526004018080602001828103825260178152602001807f547820697320616c726561647920636f6e6669726d656400000000000000000081525060200191505060405180910390fd5b80600d60008581526020019081526020016000206000820151816000015560208201518160010160006101000a81548160ff02191690831515021790555060408201518160010160016101000a81548173ffffffffffffffffffffffffffffffffffffffff021916908373ffffffffffffffffffffffffffffffffffffffff16021790555060608201518160020160006101000a81548173ffffffffffffffffffffffffffffffffffffffff021916908373ffffffffffffffffffffffffffffffffffffffff16021790555060808201518160030160006101000a81548173ffffffffffffffffffffffffffffffffffffffff021916908373ffffffffffffffffffffffffffffffffffffffff16021790555060a0820151816004019080519060200190611c669291906148e3565b5060c0820151816005015560e082015181600601556101008201518160070155905050600e839080600181540180825580915050906001820390600052602060002001600090919290919091505550611cbe81614069565b60075401600781905550505050565b600a81815481101515611cdc57fe5b906000526020600020016000915090505481565b600080600a805490501415611d085760009050611d3d565b81600a6009600085815260200190815260200160002060070154815481101515611d2e57fe5b90600052602060002001541490505b919050565b600160009054906101000a900473ffffffffffffffffffffffffffffffffffffffff1681565b600260009054906101000a900473ffffffffffffffffffffffffffffffffffffffff1673ffffffffffffffffffffffffffffffffffffffff163373ffffffffffffffffffffffffffffffffffffffff161480611e115750600460009054906101000a900473ffffffffffffffffffffffffffffffffffffffff1673ffffffffffffffffffffffffffffffffffffffff163373ffffffffffffffffffffffffffffffffffffffff16145b1515611e85576040517f08c379a00000000000000000000000000000000000000000000000000000000081526004018080602001828103825260198152602001807f4d7573742062652061207265676973746572656420757365720000000000000081525060200191505060405180910390fd5b600073ffffffffffffffffffffffffffffffffffffffff16600260009054906101000a900473ffffffffffffffffffffffffffffffffffffffff1673ffffffffffffffffffffffffffffffffffffffff1614158015611f335750600073ffffffffffffffffffffffffffffffffffffffff16600460009054906101000a900473ffffffffffffffffffffffffffffffffffffffff1673ffffffffffffffffffffffffffffffffffffffff1614155b1515611fa7576040517f08c379a000000000000000000000000000000000000000000000000000000000815260040180806020018281038252601c8152602001807f54776f207573657273206d75737420626520726567697374657265640000000081525060200191505060405180910390fd5b600080600a9050600060099050600460009054906101000a900473ffffffffffffffffffffffffffffffffffffffff1673ffffffffffffffffffffffffffffffffffffffff163373ffffffffffffffffffffffffffffffffffffffff16141561201357600c9150600b90505b60008090505b82805490508110156124e6576000838281548110151561203557fe5b9060005260206000200154905061204b81612b6b565b1515156120c0576040517f08c379a00000000000000000000000000000000000000000000000000000000081526004018080602001828103825260178152602001807f547820697320616c726561647920636f6e6669726d656400000000000000000081525060200191505060405180910390fd5b826000828152602001908152602001600020600d6000838152602001908152602001600020600082015481600001556001820160009054906101000a900460ff168160010160006101000a81548160ff0219169083151502179055506001820160019054906101000a900473ffffffffffffffffffffffffffffffffffffffff168160010160016101000a81548173ffffffffffffffffffffffffffffffffffffffff021916908373ffffffffffffffffffffffffffffffffffffffff1602179055506002820160009054906101000a900473ffffffffffffffffffffffffffffffffffffffff168160020160006101000a81548173ffffffffffffffffffffffffffffffffffffffff021916908373ffffffffffffffffffffffffffffffffffffffff1602179055506003820160009054906101000a900473ffffffffffffffffffffffffffffffffffffffff168160030160006101000a81548173ffffffffffffffffffffffffffffffffffffffff021916908373ffffffffffffffffffffffffffffffffffffffff16021790555060048201816004019080546001816001161561010002031660029004612278929190614963565b50600582015481600501556006820154816006015560078201548160070155905050600e8190806001815401808255809150509060018203906000526020600020016000909192909190915055506124d48360008381526020019081526020016000206101206040519081016040529081600082015481526020016001820160009054906101000a900460ff161515151581526020016001820160019054906101000a900473ffffffffffffffffffffffffffffffffffffffff1673ffffffffffffffffffffffffffffffffffffffff1673ffffffffffffffffffffffffffffffffffffffff1681526020016002820160009054906101000a900473ffffffffffffffffffffffffffffffffffffffff1673ffffffffffffffffffffffffffffffffffffffff1673ffffffffffffffffffffffffffffffffffffffff1681526020016003820160009054906101000a900473ffffffffffffffffffffffffffffffffffffffff1673ffffffffffffffffffffffffffffffffffffffff1673ffffffffffffffffffffffffffffffffffffffff168152602001600482018054600181600116156101000203166002900480601f0160208091040260200160405190810160405280929190818152602001828054600181600116156101000203166002900480156124a85780601f1061247d576101008083540402835291602001916124a8565b820191906000526020600020905b81548152906001019060200180831161248b57829003601f168201915b505050505081526020016005820154815260200160068201548152602001600782015481525050614069565b85019450508080600101915050612019565b50600082816124f591906149ea565b508260075401600781905550505050565b60068054600181600116156101000203166002900480601f01602080910402602001604051908101604052809291908181526020018280546001816001161561010002031660029004801561259c5780601f106125715761010080835404028352916020019161259c565b820191906000526020600020905b81548152906001019060200180831161257f57829003601f168201915b505050505081565b600360009054906101000a900473ffffffffffffffffffffffffffffffffffffffff1681565b60085481565b6000600c80549050905090565b600d6020528060005260406000206000915090508060000154908060010160009054906101000a900460ff16908060010160019054906101000a900473ffffffffffffffffffffffffffffffffffffffff16908060020160009054906101000a900473ffffffffffffffffffffffffffffffffffffffff16908060030160009054906101000a900473ffffffffffffffffffffffffffffffffffffffff1690806004018054600181600116156101000203166002900480601f0160208091040260200160405190810160405280929190818152602001828054600181600116156101000203166002900480156127145780601f106126e957610100808354040283529160200191612714565b820191906000526020600020905b8154815290600101906020018083116126f757829003601f168201915b5050505050908060050154908060060154908060070154905089565b600080600c805490501415612748576000905061277d565b81600c600b60008581526020019081526020016000206007015481548110151561276e57fe5b90600052602060002001541490505b919050565b600360009054906101000a900473ffffffffffffffffffffffffffffffffffffffff1673ffffffffffffffffffffffffffffffffffffffff163373ffffffffffffffffffffffffffffffffffffffff16141515612847576040517f08c379a000000000000000000000000000000000000000000000000000000000815260040180806020018281038252601a8152602001807f4d7573742062652074686520696e766974656420667269656e6400000000000081525060200191505060405180910390fd5b600073ffffffffffffffffffffffffffffffffffffffff16600460009054906101000a900473ffffffffffffffffffffffffffffffffffffffff1673ffffffffffffffffffffffffffffffffffffffff1614151561290d576040517f08c379a00000000000000000000000000000000000000000000000000000000081526004018080602001828103825260198152602001807f55736572203220616c726561647920726567697374657265640000000000000081525060200191505060405180910390fd5b33600460006101000a81548173ffffffffffffffffffffffffffffffffffffffff021916908373ffffffffffffffffffffffffffffffffffffffff1602179055503373ffffffffffffffffffffffffffffffffffffffff16600460009054906101000a900473ffffffffffffffffffffffffffffffffffffffff1673ffffffffffffffffffffffffffffffffffffffff161415156129aa57600080fd5b60008060009054906101000a900473ffffffffffffffffffffffffffffffffffffffff1690508073ffffffffffffffffffffffffffffffffffffffff16634760404e600460009054906101000a900473ffffffffffffffffffffffffffffffffffffffff166040518263ffffffff167c0100000000000000000000000000000000000000000000000000000000028152600401808273ffffffffffffffffffffffffffffffffffffffff1673ffffffffffffffffffffffffffffffffffffffff168152602001915050600060405180830381600087803b158015612a8d57600080fd5b505af1158015612aa1573d6000803e3d6000fd5b5050505050565b60058054600181600116156101000203166002900480601f016020809104026020016040519081016040528092919081815260200182805460018160011615610100020316600290048015612b3e5780601f10612b1357610100808354040283529160200191612b3e565b820191906000526020600020905b815481529060010190602001808311612b2157829003601f168201915b505050505081565b6000809054906101000a900473ffffffffffffffffffffffffffffffffffffffff1681565b600080600e805490501415612b835760009050612bb8565b81600e600d600085815260200190815260200160002060070154815481101515612ba957fe5b90600052602060002001541490505b919050565b60075481565b600260009054906101000a900473ffffffffffffffffffffffffffffffffffffffff1673ffffffffffffffffffffffffffffffffffffffff163373ffffffffffffffffffffffffffffffffffffffff16141515612c88576040517f08c379a00000000000000000000000000000000000000000000000000000000081526004018080602001828103825260198152602001807f4d7573742062652072656769737465726564207573657220310000000000000081525060200191505060405180910390fd5b600073ffffffffffffffffffffffffffffffffffffffff16600460009054906101000a900473ffffffffffffffffffffffffffffffffffffffff1673ffffffffffffffffffffffffffffffffffffffff16141515612d4e576040517f08c379a00000000000000000000000000000000000000000000000000000000081526004018080602001828103825260198152602001807f55736572203220616c726561647920726567697374657265640000000000000081525060200191505060405180910390fd5b3373ffffffffffffffffffffffffffffffffffffffff168173ffffffffffffffffffffffffffffffffffffffff1614151515612df2576040517f08c379a00000000000000000000000000000000000000000000000000000000081526004018080602001828103825260198152602001807f596f752063616e7420696e7669746520796f757273656c66210000000000000081525060200191505060405180910390fd5b600073ffffffffffffffffffffffffffffffffffffffff16600360009054906101000a900473ffffffffffffffffffffffffffffffffffffffff1673ffffffffffffffffffffffffffffffffffffffff16141515612ede576040517f08c379a00000000000000000000000000000000000000000000000000000000081526004018080602001828103825260218152602001807f596f75206861766520616c726561647920696e766974656420736f6d656f6e6581526020017f210000000000000000000000000000000000000000000000000000000000000081525060400191505060405180910390fd5b80600360006101000a81548173ffffffffffffffffffffffffffffffffffffffff021916908373ffffffffffffffffffffffffffffffffffffffff16021790555060008060009054906101000a900473ffffffffffffffffffffffffffffffffffffffff1690508073ffffffffffffffffffffffffffffffffffffffff1663cfe4ce89836040518263ffffffff167c0100000000000000000000000000000000000000000000000000000000028152600401808273ffffffffffffffffffffffffffffffffffffffff1673ffffffffffffffffffffffffffffffffffffffff168152602001915050600060405180830381600087803b158015612fe057600080fd5b505af1158015612ff4573d6000803e3d6000fd5b505050505050565b6000600a80549050905090565b600260009054906101000a900473ffffffffffffffffffffffffffffffffffffffff1673ffffffffffffffffffffffffffffffffffffffff163373ffffffffffffffffffffffffffffffffffffffff1614806130b25750600460009054906101000a900473ffffffffffffffffffffffffffffffffffffffff1673ffffffffffffffffffffffffffffffffffffffff163373ffffffffffffffffffffffffffffffffffffffff16145b1515613126576040517f08c379a00000000000000000000000000000000000000000000000000000000081526004018080602001828103825260198152602001807f4d7573742062652061207265676973746572656420757365720000000000000081525060200191505060405180910390fd5b600260009054906101000a900473ffffffffffffffffffffffffffffffffffffffff1673ffffffffffffffffffffffffffffffffffffffff163373ffffffffffffffffffffffffffffffffffffffff161415613226576000600580546001816001161561010002031660029004905014151561320a576040517f08c379a000000000000000000000000000000000000000000000000000000000815260040180806020018281038252601a8152602001807f596f7520616c72656164792073657420796f7572206e616d652100000000000081525060200191505060405180910390fd5b8060059080519060200190613220929190614a16565b50613323565b600460009054906101000a900473ffffffffffffffffffffffffffffffffffffffff1673ffffffffffffffffffffffffffffffffffffffff163373ffffffffffffffffffffffffffffffffffffffff161415613322576000600680546001816001161561010002031660029004905014151561330a576040517f08c379a000000000000000000000000000000000000000000000000000000000815260040180806020018281038252601a8152602001807f596f7520616c72656164792073657420796f7572206e616d652100000000000081525060200191505060405180910390fd5b8060069080519060200190613320929190614a16565b505b5b50565b600260009054906101000a900473ffffffffffffffffffffffffffffffffffffffff1673ffffffffffffffffffffffffffffffffffffffff163373ffffffffffffffffffffffffffffffffffffffff1614806133cf5750600460009054906101000a900473ffffffffffffffffffffffffffffffffffffffff1673ffffffffffffffffffffffffffffffffffffffff163373ffffffffffffffffffffffffffffffffffffffff16145b1515613443576040517f08c379a00000000000000000000000000000000000000000000000000000000081526004018080602001828103825260198152602001807f4d7573742062652061207265676973746572656420757365720000000000000081525060200191505060405180910390fd5b600073ffffffffffffffffffffffffffffffffffffffff16600260009054906101000a900473ffffffffffffffffffffffffffffffffffffffff1673ffffffffffffffffffffffffffffffffffffffff16141580156134f15750600073ffffffffffffffffffffffffffffffffffffffff16600460009054906101000a900473ffffffffffffffffffffffffffffffffffffffff1673ffffffffffffffffffffffffffffffffffffffff1614155b1515613565576040517f08c379a000000000000000000000000000000000000000000000000000000000815260040180806020018281038252601c8152602001807f54776f207573657273206d75737420626520726567697374657265640000000081525060200191505060405180910390fd5b600260009054906101000a900473ffffffffffffffffffffffffffffffffffffffff1673ffffffffffffffffffffffffffffffffffffffff168273ffffffffffffffffffffffffffffffffffffffff16148061360e5750600460009054906101000a900473ffffffffffffffffffffffffffffffffffffffff1673ffffffffffffffffffffffffffffffffffffffff168273ffffffffffffffffffffffffffffffffffffffff16145b1515613682576040517f08c379a00000000000000000000000000000000000000000000000000000000081526004018080602001828103825260208152602001807f646562746f72206d75737420626520612072656769737465726564207573657281525060200191505060405180910390fd5b602381511015156136fb576040517f08c379a00000000000000000000000000000000000000000000000000000000081526004018080602001828103825260148152602001807f4465736372697074696f6e20746f6f206c6f6e6700000000000000000000000081525060200191505060405180910390fd5b613711600160085461482990919063ffffffff16565b6008819055506000600c90506000600b9050600460009054906101000a900473ffffffffffffffffffffffffffffffffffffffff1673ffffffffffffffffffffffffffffffffffffffff163373ffffffffffffffffffffffffffffffffffffffff16141561378257600a9150600990505b600061378c61484a565b9050613796614852565b61379f3361414e565b816060019073ffffffffffffffffffffffffffffffffffffffff16908173ffffffffffffffffffffffffffffffffffffffff16815250506001151587151514156137fe576002888115156137ef57fe5b04816000018181525050613817565b60001515871515141561381657878160000181815250505b5b8681602001901515908115158152505033816040019073ffffffffffffffffffffffffffffffffffffffff16908173ffffffffffffffffffffffffffffffffffffffff168152505085816080019073ffffffffffffffffffffffffffffffffffffffff16908173ffffffffffffffffffffffffffffffffffffffff1681525050848160a001819052506008548160c0018181525050818160e00181815250506001848260c001519080600181540180825580915050906001820390600052602060002001600090919290919091505503816101000181815250508083600060085481526020019081526020016000206000820151816000015560208201518160010160006101000a81548160ff02191690831515021790555060408201518160010160016101000a81548173ffffffffffffffffffffffffffffffffffffffff021916908373ffffffffffffffffffffffffffffffffffffffff16021790555060608201518160020160006101000a81548173ffffffffffffffffffffffffffffffffffffffff021916908373ffffffffffffffffffffffffffffffffffffffff16021790555060808201518160030160006101000a81548173ffffffffffffffffffffffffffffffffffffffff021916908373ffffffffffffffffffffffffffffffffffffffff16021790555060a0820151816004019080519060200190613a219291906148e3565b5060c0820151816005015560e0820151816006015561010082015181600701559050507fc974e31c04b7e32e16faf9419d6768184175343b66158c456a3f0eb36899c7258160c0015182610100015183600001518460400151604051808581526020018481526020018381526020018273ffffffffffffffffffffffffffffffffffffffff1673ffffffffffffffffffffffffffffffffffffffff16815260200194505050505060405180910390a15050505050505050565b600c81815481101515613ae957fe5b906000526020600020016000915090505481565b6000600260009054906101000a900473ffffffffffffffffffffffffffffffffffffffff1673ffffffffffffffffffffffffffffffffffffffff163373ffffffffffffffffffffffffffffffffffffffff161480613ba85750600460009054906101000a900473ffffffffffffffffffffffffffffffffffffffff1673ffffffffffffffffffffffffffffffffffffffff163373ffffffffffffffffffffffffffffffffffffffff16145b1515613c1c576040517f08c379a00000000000000000000000000000000000000000000000000000000081526004018080602001828103825260198152602001807f4d7573742062652061207265676973746572656420757365720000000000000081525060200191505060405180910390fd5b600073ffffffffffffffffffffffffffffffffffffffff16600260009054906101000a900473ffffffffffffffffffffffffffffffffffffffff1673ffffffffffffffffffffffffffffffffffffffff1614158015613cca5750600073ffffffffffffffffffffffffffffffffffffffff16600460009054906101000a900473ffffffffffffffffffffffffffffffffffffffff1673ffffffffffffffffffffffffffffffffffffffff1614155b1515613d3e576040517f08c379a000000000000000000000000000000000000000000000000000000000815260040180806020018281038252601c8152602001807f54776f207573657273206d75737420626520726567697374657265640000000081525060200191505060405180910390fd5b6000600b9050600460009054906101000a900473ffffffffffffffffffffffffffffffffffffffff1673ffffffffffffffffffffffffffffffffffffffff163373ffffffffffffffffffffffffffffffffffffffff161415613d9f57600990505b80600084815260200190815260200160002060010160019054906101000a900473ffffffffffffffffffffffffffffffffffffffff1673ffffffffffffffffffffffffffffffffffffffff163373ffffffffffffffffffffffffffffffffffffffff16141515613e9d576040517f08c379a00000000000000000000000000000000000000000000000000000000081526004018080602001828103825260308152602001807f6120757365722063616e206f6e6c792064656c65746520612070656e64696e6781526020017f207478207468657920637265617465640000000000000000000000000000000081525060400191505060405180910390fd5b6000613ea83361414e565b9050613eb48482614373565b92505050919050565b6000600e80549050905090565b600260009054906101000a900473ffffffffffffffffffffffffffffffffffffffff1681565b600b6020528060005260406000206000915090508060000154908060010160009054906101000a900460ff16908060010160019054906101000a900473ffffffffffffffffffffffffffffffffffffffff16908060020160009054906101000a900473ffffffffffffffffffffffffffffffffffffffff16908060030160009054906101000a900473ffffffffffffffffffffffffffffffffffffffff1690806004018054600181600116156101000203166002900480601f0160208091040260200160405190810160405280929190818152602001828054600181600116156101000203166002900480156140275780601f10613ffc57610100808354040283529160200191614027565b820191906000526020600020905b81548152906001019060200180831161400a57829003601f168201915b5050505050908060050154908060060154908060070154905089565b600460009054906101000a900473ffffffffffffffffffffffffffffffffffffffff1681565b60008060009050600260009054906101000a900473ffffffffffffffffffffffffffffffffffffffff1673ffffffffffffffffffffffffffffffffffffffff16836080015173ffffffffffffffffffffffffffffffffffffffff1614156140dd578260000151600003905080915050614149565b600460009054906101000a900473ffffffffffffffffffffffffffffffffffffffff1673ffffffffffffffffffffffffffffffffffffffff16836080015173ffffffffffffffffffffffffffffffffffffffff161415614147578260000151905080915050614149565b505b919050565b6000600260009054906101000a900473ffffffffffffffffffffffffffffffffffffffff1673ffffffffffffffffffffffffffffffffffffffff168273ffffffffffffffffffffffffffffffffffffffff1614806141f95750600460009054906101000a900473ffffffffffffffffffffffffffffffffffffffff1673ffffffffffffffffffffffffffffffffffffffff168273ffffffffffffffffffffffffffffffffffffffff16145b151561426d576040517f08c379a00000000000000000000000000000000000000000000000000000000081526004018080602001828103825260178152602001807f75736572206d757374206265207265676973746572656400000000000000000081525060200191505060405180910390fd5b600260009054906101000a900473ffffffffffffffffffffffffffffffffffffffff1673ffffffffffffffffffffffffffffffffffffffff168273ffffffffffffffffffffffffffffffffffffffff1614156142ed57600460009054906101000a900473ffffffffffffffffffffffffffffffffffffffff16905061436e565b600460009054906101000a900473ffffffffffffffffffffffffffffffffffffffff1673ffffffffffffffffffffffffffffffffffffffff168273ffffffffffffffffffffffffffffffffffffffff16141561436d57600260009054906101000a900473ffffffffffffffffffffffffffffffffffffffff16905061436e565b5b919050565b6000600260009054906101000a900473ffffffffffffffffffffffffffffffffffffffff1673ffffffffffffffffffffffffffffffffffffffff168273ffffffffffffffffffffffffffffffffffffffff16148061441e5750600460009054906101000a900473ffffffffffffffffffffffffffffffffffffffff1673ffffffffffffffffffffffffffffffffffffffff168273ffffffffffffffffffffffffffffffffffffffff16145b15156144b8576040517f08c379a00000000000000000000000000000000000000000000000000000000081526004018080602001828103825260348152602001807f64656c65746550656e64696e675478206d75737420726563656976652065697481526020017f68657220757365725f31206f7220757365725f3200000000000000000000000081525060400191505060405180910390fd5b6000600c90506000600b9050600260009054906101000a900473ffffffffffffffffffffffffffffffffffffffff1673ffffffffffffffffffffffffffffffffffffffff168473ffffffffffffffffffffffffffffffffffffffff1614156145ca57600a91506009905061452b85611cf0565b15156145c5576040517f08c379a00000000000000000000000000000000000000000000000000000000081526004018080602001828103825260288152602001807f5478204944206973206e6f7420696e20757365725f3127732070656e64696e6781526020017f205478206c69737400000000000000000000000000000000000000000000000081525060400191505060405180910390fd5b6146cd565b600460009054906101000a900473ffffffffffffffffffffffffffffffffffffffff1673ffffffffffffffffffffffffffffffffffffffff168473ffffffffffffffffffffffffffffffffffffffff1614156146cc57600c9150600b905061463185612730565b15156146cb576040517f08c379a00000000000000000000000000000000000000000000000000000000081526004018080602001828103825260288152602001807f5478204944206973206e6f7420696e20757365725f3227732070656e64696e6781526020017f205478206c69737400000000000000000000000000000000000000000000000081525060400191505060405180910390fd5b5b5b600081600087815260200190815260200160002060070154905060008360018580549050038154811015156146fe57fe5b9060005260206000200154905080848381548110151561471a57fe5b906000526020600020018190555081836000838152602001908152602001600020600701819055508380548091906001900361475691906149ea565b507f7a44d87b393d45b20594f97ca68267b642dd8140405b5084d1a532a96a3863a687838560008b8152602001908152602001600020600001548660008c815260200190815260200160002060010160019054906101000a900473ffffffffffffffffffffffffffffffffffffffff16604051808581526020018481526020018381526020018273ffffffffffffffffffffffffffffffffffffffff1673ffffffffffffffffffffffffffffffffffffffff16815260200194505050505060405180910390a18194505050505092915050565b600080828401905083811015151561484057600080fd5b8091505092915050565b600042905090565b6101206040519081016040528060008152602001600015158152602001600073ffffffffffffffffffffffffffffffffffffffff168152602001600073ffffffffffffffffffffffffffffffffffffffff168152602001600073ffffffffffffffffffffffffffffffffffffffff168152602001606081526020016000815260200160008152602001600081525090565b828054600181600116156101000203166002900490600052602060002090601f016020900481019282601f1061492457805160ff1916838001178555614952565b82800160010185558215614952579182015b82811115614951578251825591602001919060010190614936565b5b50905061495f9190614a96565b5090565b828054600181600116156101000203166002900490600052602060002090601f016020900481019282601f1061499c57805485556149d9565b828001600101855582156149d957600052602060002091601f016020900482015b828111156149d85782548255916001019190600101906149bd565b5b5090506149e69190614a96565b5090565b815481835581811115614a1157818360005260206000209182019101614a109190614a96565b5b505050565b828054600181600116156101000203166002900490600052602060002090601f016020900481019282601f10614a5757805160ff1916838001178555614a85565b82800160010185558215614a85579182015b82811115614a84578251825591602001919060010190614a69565b5b509050614a929190614a96565b5090565b614ab891905b80821115614ab4576000816000905550600101614a9c565b5090565b9056fea165627a7a723058201bf4c0a9d3a4967080190935143bee215dca7fbc2abfbf6a2de71225461aba5b0029",
  "source": "pragma solidity ^0.5.0;\r\n\r\nimport 'openzeppelin-solidity/contracts/math/SafeMath.sol';\r\n\r\n/// @Author RickGriff\r\n/// EtherSplit dApp\r\ncontract AgreementFactory {\r\n\r\n  address public factoryOwner;\r\n\r\n  mapping(address => bool) public allAgreements;\r\n\r\n  /// Map user to list of agreements they've created or joined\r\n  mapping(address => address[]) public userToAgreements;\r\n\r\n  /// Map user to list of agreements they've been invited to\r\n  mapping(address => address[]) public userToInvites;\r\n\r\n  event AgreementCreated (address from, address agreementAddr);\r\n  event AgreementAdded (address agreementAddr, bool inAllAgreementsList);\r\n\r\n  constructor() public {\r\n    factoryOwner = msg.sender;\r\n  }\r\n\r\n  function createNewAgreement() public  {\r\n    Agreement newAgreement = new Agreement(msg.sender);\r\n    /// Add agreement addr to allAgreements and user's list\r\n    address agreementAddress = address(newAgreement);\r\n    allAgreements[agreementAddress] = true;\r\n    userToAgreements[msg.sender].push(agreementAddress);\r\n    emit AgreementCreated(msg.sender, agreementAddress);\r\n    emit AgreementAdded(agreementAddress, allAgreements[agreementAddress]);\r\n  }\r\n\r\n  function getUsersAgreements(address _user) public view returns (address[] memory ) {\r\n    return( userToAgreements[_user] );\r\n  }\r\n\r\n  function getMyAgreements() public view returns (address[] memory ) {\r\n    return( userToAgreements[msg.sender] );\r\n  }\r\n\r\n  function getMyInvites() public view returns (address[] memory ) {\r\n    return( userToInvites[msg.sender] );\r\n  }\r\n\r\n  /// Called by a child Agreement when a new user registers on the child.\r\n  function newRegisteredUser(address _user) public _onlyChildContract {\r\n    userToAgreements[_user].push(msg.sender);\r\n  }\r\n\r\n  /// Called by a child Agreement when a new account is invited to the child.\r\n  function newInvite(address _friend) public _onlyChildContract {\r\n    userToInvites[_friend].push(msg.sender);\r\n  }\r\n\r\n  /// Length getters and modifiers\r\n  function getMyAgreementsCount() public view returns(uint myAgreementsCount) {\r\n    return userToAgreements[msg.sender].length;\r\n  }\r\n\r\n  function getMyInvitesCount() public view returns(uint myAgreementsCount) {\r\n    return userToInvites[msg.sender].length;\r\n  }\r\n\r\n  function getUsersAgreementsCount(address _user) public view returns(uint usersAgreementsCount) {\r\n    return userToAgreements[_user].length;\r\n  }\r\n\r\n  modifier _onlyChildContract {\r\n    require( allAgreements[msg.sender] == true, 'Sending contract not listed as a child of AgreementFactory');\r\n    _;\r\n  }\r\n}\r\n\r\ncontract Agreement {\r\n\r\n  using SafeMath for uint;\r\n\r\n  address public parentFactory;\r\n  address public parentFactoryOwner;\r\n  address public user_1;\r\n  address public invited_friend;\r\n  address public user_2;\r\n  string public user_1_name;\r\n  string public user_2_name;\r\n\r\n  /* The net balance of who owes who, in pennies. \r\n  Positive if user_2 owes more, negative if user_1 owes more. */\r\n  int public balance;  \r\n\r\n  uint public txCounter = 0; \r\n\r\n  mapping (uint => Tx) public pendingTxs1; /// Transactions pending confirmation from user_1\r\n  uint[] public pendingTxsList1; /// unordered list of user_1's pending Tx IDs\r\n\r\n  mapping (uint => Tx) public pendingTxs2; \r\n  uint[] public pendingTxsList2; \r\n\r\n  mapping (uint => Tx) public confirmedTxs;\r\n  uint[] public confirmedTxsList;\r\n\r\n  /// Basic transaction object\r\n  struct Tx {\r\n    uint amount;\r\n    bool split;\r\n    address creator;\r\n    address confirmer;\r\n    address debtor;\r\n    string description;\r\n    uint id;\r\n    uint timestamp;\r\n    uint index;  \r\n  }\r\n\r\n  ///  ****** constructor and user registration functions ******\r\n  constructor(address _creator) public {\r\n    parentFactory = msg.sender;\r\n    AgreementFactory factory = AgreementFactory(parentFactory);\r\n    parentFactoryOwner = factory.factoryOwner();\r\n    user_1 = _creator;\r\n  }\r\n\r\n   event logNewPendingTx (uint id, uint listIndex, uint amount, address creator);\r\n   event logDeletedTx (uint id, uint listIndex, uint amount, address creator);\r\n\r\n  /// Store the user's name\r\n  function setName(string memory _name) onlyUser public {\r\n    if (msg.sender == user_1) {\r\n      require(bytes(user_1_name).length == 0, \"You already set your name!\");\r\n      user_1_name = _name;\r\n    } else if (msg.sender == user_2) {\r\n      require(bytes(user_2_name).length == 0, \"You already set your name!\");\r\n      user_2_name = _name;\r\n    }\r\n  }\r\n\r\n  /// Set the invited friend's address\r\n  function inviteFriend(address _friend) onlyUser1 onlyUser2NotRegistered public {\r\n    require(_friend != msg.sender, 'You cant invite yourself!');\r\n    require(invited_friend == address(0), 'You have already invited someone!');\r\n    invited_friend = _friend;\r\n    AgreementFactory factory = AgreementFactory(parentFactory);\r\n    factory.newInvite(_friend);\r\n  }\r\n\r\n  function registerUser2() onlyInvitedFriend onlyUser2NotRegistered public {\r\n    user_2 = msg.sender;\r\n    require(user_2 == msg.sender); /// check user_2 was set\r\n    /// send the registration data to parent factory\r\n    AgreementFactory factory = AgreementFactory(parentFactory);\r\n    factory.newRegisteredUser(user_2);\r\n  }\r\n\r\n\r\n  /// ****** Functions for creating and confirming transactions ******\r\n\r\n  /// Create a pending Tx, to be confirmed by the other user\r\n  function createPending(uint _amount, bool _split, address _debtor, string  memory _description) onlyUser onlyBothRegistered public {\r\n    require( _debtor == user_1 || _debtor == user_2, 'debtor must be a registered user' );\r\n    require( bytes(_description).length < 35, 'Description too long' );\r\n    txCounter = txCounter.add(1);\r\n\r\n    /* since Solidity dislikes initialization inside conditionals, \r\n    initialize list  & mapping for msg.sender == user_1, and reassign if msg.sender == user_2. */\r\n    uint[] storage pendingTxsList = pendingTxsList2;\r\n    mapping (uint => Tx) storage pendingTxs = pendingTxs2;\r\n    \r\n    if (msg.sender == user_2) {\r\n      pendingTxsList = pendingTxsList1;\r\n      pendingTxs = pendingTxs1;\r\n    }\r\n\r\n    uint timeNow = timeStamp();\r\n    Tx memory newPendingTx;\r\n\r\n    newPendingTx.confirmer = getOtherUser(msg.sender);\r\n\r\n    /// If Tx cost was split, set the amounted owed to half of Tx amount\r\n    if (_split == true) {\r\n      newPendingTx.amount = _amount / 2;\r\n    } else if(_split == false) {\r\n      newPendingTx.amount = _amount;\r\n    }\r\n\r\n    /// set remaining Tx struct attributes\r\n    newPendingTx.split = _split;\r\n    newPendingTx.creator = msg.sender;\r\n    newPendingTx.debtor = _debtor;\r\n    newPendingTx.description = _description;\r\n    newPendingTx.id = txCounter;\r\n    newPendingTx.timestamp = timeNow;\r\n    // push the Tx ID to the list - and assign the corresponding list index to the Tx.index property\r\n    newPendingTx.index = pendingTxsList.push(newPendingTx.id) - 1;  \r\n\r\n    /// insert new Tx to the confirmer's pending Tx mapping\r\n    pendingTxs[txCounter] = newPendingTx;\r\n    emit logNewPendingTx(newPendingTx.id, newPendingTx.index, newPendingTx.amount, newPendingTx.creator);\r\n  }\r\n\r\n  function userDeletePendingTx(uint _id) onlyUser onlyBothRegistered public returns(uint) {\r\n    /// grab *other* user's pending Txs, and check that msg.sender created it\r\n    mapping (uint => Tx) storage pendingTxs = pendingTxs2;\r\n    if (msg.sender == user_2) {\r\n      pendingTxs = pendingTxs1;\r\n    } \r\n    require(msg.sender == pendingTxs[_id].creator, \"a user can only delete a pending tx they created\" );\r\n\r\n    address otherUser = getOtherUser(msg.sender);\r\n    return deletePendingTx(_id, otherUser); // returns id of deleted Tx\r\n  }\r\n\r\n  function confirmAll() onlyUser onlyBothRegistered public {\r\n    int balanceChange;\r\n\r\n    uint[] storage pendingTxsList = pendingTxsList1;\r\n    mapping (uint => Tx) storage pendingTxs = pendingTxs1;\r\n\r\n    if (msg.sender == user_2) {\r\n      pendingTxsList = pendingTxsList2;\r\n      pendingTxs = pendingTxs2;\r\n    }\r\n    \r\n    for (uint i = 0; i < pendingTxsList.length; i++) {\r\n      uint id = pendingTxsList[i];\r\n      require(!isConfirmedTx(id), \"Tx is already confirmed\");\r\n      confirmedTxs[id] = pendingTxs[id]; /// insert tx to mapping\r\n      confirmedTxsList.push(id); /// append tx id to list\r\n\r\n      balanceChange = balanceChange + changeInBalance(pendingTxs[id]);\r\n    }\r\n\r\n    pendingTxsList.length = 0;\r\n    balance = balance + balanceChange;\r\n  }\r\n\r\n  function confirmSingleTx(uint _id) onlyUser onlyBothRegistered public {\r\n    mapping (uint => Tx) storage pendingTxs = pendingTxs1;\r\n    if (msg.sender == user_2) {\r\n      pendingTxs = pendingTxs2;\r\n    } \r\n    require(msg.sender == pendingTxs[_id].confirmer, \"User can only confirm their own pending Txs\" );\r\n    require(getOtherUser(msg.sender) == pendingTxs[_id].creator, \"User can only confirm pending Txs created by other user \" );\r\n    \r\n    Tx memory transaction = pendingTxs[_id];\r\n\r\n    deletePendingTx(_id, msg.sender); /// Remove tx ID from user's pendingTx list\r\n   \r\n    /// Update confirmedTx mapping and ID list\r\n    require(!isConfirmedTx(_id), \"Tx is already confirmed\");\r\n    confirmedTxs[_id] = transaction;\r\n    confirmedTxsList.push(_id);\r\n   \r\n    balance = balance + changeInBalance(transaction);\r\n  }\r\n\r\n  /** Calculates balance from scratch from total confirmed Tx history,\r\n  * and checks it is equal to running balance.\r\n  */\r\n  function balanceHealthCheck() onlyUserOrFactoryOwner public view returns (int _testBal, int _bal, bool) {\r\n    int testBalance = 0;\r\n\r\n    for (uint i = 0; i < confirmedTxsList.length; i++) {\r\n      uint tx_id = confirmedTxsList[i];\r\n      testBalance = testBalance + changeInBalance(confirmedTxs[tx_id]);\r\n    }\r\n\r\n    if (testBalance != balance) {\r\n      return(testBalance, balance, false);\r\n    } else if (testBalance == balance) {\r\n      return(testBalance, balance, true);\r\n    }\r\n  }\r\n\r\n  /// ****** Helper and getter functions ******\r\n\r\n  function deletePendingTx (uint _id, address _user) private returns (uint) {\r\n    require (_user == user_1 || _user == user_2, \"deletePendingTx must receive either user_1 or user_2\");\r\n    \r\n    uint[] storage pendingTxsList = pendingTxsList2;\r\n    mapping (uint => Tx) storage pendingTxs = pendingTxs2;\r\n    \r\n    if (_user == user_1) {\r\n      pendingTxsList = pendingTxsList1;\r\n      pendingTxs = pendingTxs1;\r\n      require(isPendingTx1(_id), \"Tx ID is not in user_1's pending Tx list\");\r\n    } else if (_user == user_2) {\r\n      pendingTxsList = pendingTxsList2;\r\n      pendingTxs = pendingTxs2;\r\n      require(isPendingTx2(_id), \"Tx ID is not in user_2's pending Tx list\");\r\n    }\r\n      /* delete the pendingTx from the list.  \r\n    We dont need to remove the mapping - the list of tx IDs is what determines existence.\r\n    This approach preserves array length, but not order. */\r\n    uint indexToDelete = pendingTxs[_id].index;\r\n    uint txIDToMove = pendingTxsList[pendingTxsList.length - 1]; // grab the last tx in list\r\n    pendingTxsList[indexToDelete] = txIDToMove; /// move last tx to emtpy slot, replacing the deleted one\r\n    pendingTxs[txIDToMove].index = indexToDelete; /// in the mapping, update the index pointer of the tx that moved\r\n\r\n    pendingTxsList.length--;\r\n    emit logDeletedTx(_id, indexToDelete, pendingTxs[_id].amount, pendingTxs[_id].creator );\r\n    return indexToDelete;\r\n  }\r\n\r\n\r\n\r\n  function isPendingTx1(uint _id) public view returns(bool isIndeed) {\r\n    if(pendingTxsList1.length == 0) return false;\r\n    return (pendingTxsList1[pendingTxs1[_id].index] == _id);\r\n  }\r\n\r\n  function isPendingTx2(uint _id) public view returns(bool isIndeed) {\r\n    if(pendingTxsList2.length == 0) return false;\r\n    return (pendingTxsList2[pendingTxs2[_id].index] == _id);\r\n  }\r\n\r\n  function isConfirmedTx(uint _id) public view returns(bool isIndeed) {\r\n    if(confirmedTxsList.length == 0) return false;\r\n    return (confirmedTxsList[confirmedTxs[_id].index] == _id);\r\n  }\r\n\r\n  /// Return the change to a balance caused by a purchase\r\n  function changeInBalance(Tx memory _purchase) private view returns (int _change) {\r\n    int change = 0;\r\n    if (_purchase.debtor == user_1) {\r\n      change = -int(_purchase.amount);\r\n      return change;\r\n    } else if (_purchase.debtor == user_2) {\r\n      change = int(_purchase.amount);\r\n      return change;\r\n    }\r\n  }\r\n\r\n  function getOtherUser(address _user) private view returns (address) {\r\n    require(_user == user_1 || _user == user_2, 'user must be registered');\r\n    if (_user == user_1) {\r\n      return user_2;\r\n    } else if (_user == user_2) {\r\n      return user_1;\r\n    }\r\n  }\r\n\r\n  function timeStamp() private view returns (uint) {\r\n    return block.timestamp;\r\n  }\r\n\r\n  /// Length getters for lists of Txs\r\n  function getPendingTxsLength1() public view returns(uint) {\r\n    return pendingTxsList1.length;\r\n  }\r\n\r\n  function getPendingTxsLength2() public view returns(uint) {\r\n    return pendingTxsList2.length;\r\n  }\r\n\r\n  function getConfirmedTxsLength() public view returns(uint) {\r\n    return confirmedTxsList.length;\r\n  }\r\n\r\n  /// ****** Modifiers *****\r\n  modifier onlyUser {\r\n    require(msg.sender == user_1 || msg.sender == user_2, 'Must be a registered user');\r\n    _;\r\n  }\r\n\r\n  modifier onlyUserOrFactoryOwner {\r\n    require(msg.sender == parentFactoryOwner || (msg.sender == user_1 || msg.sender == user_2), 'Must be a registered user');\r\n    _;\r\n  }\r\n\r\n  modifier onlyUser1 {\r\n    require(msg.sender == user_1, 'Must be registered user 1');\r\n    _;\r\n  }\r\n\r\n  modifier onlyInvitedFriend {\r\n    require(msg.sender == invited_friend, 'Must be the invited friend');\r\n    _;\r\n  }\r\n\r\n  modifier onlyUser2NotRegistered {\r\n    require (user_2 == address(0), 'User 2 already registered');\r\n    _;\r\n  }\r\n\r\n  modifier onlyBothRegistered {\r\n    require (user_1 != address(0) && user_2 != address(0), 'Two users must be registered');\r\n    _;\r\n  }\r\n}",
  "sourcePath": "C:/Users/Administrator/Desktop/Solidity/EtherSplit/contracts/AgreementFactory.sol",
  "compiler": {
    "name": "solc",
    "version": "0.5.0+commit.1d4f565a.Emscripten.clang"
  },
  "schemaVersion": "3.0.6",
  "updatedAt": "2019-06-23T14:18:27.196Z",
  "devdoc": {
    "methods": {}
  },
  "userdoc": {
    "methods": {
      "balanceHealthCheck()": {
        "notice": "Calculates balance from scratch from total confirmed Tx history,\r and checks it is equal to running balance.\r"
      },
      "constructor": "****** constructor and user registration functions ******",
      "createPending(uint256,bool,address,string)": {
        "notice": "Create a pending Tx, to be confirmed by the other user"
      },
      "getPendingTxsLength1()": {
        "notice": "Length getters for lists of Txs"
      },
      "inviteFriend(address)": {
        "notice": "Set the invited friend's address"
      },
      "setName(string)": {
        "notice": "Store the user's name"
      }
    }
  }
}