{
  "contractName": "AgreementFactory",
  "abi": [
    {
      "constant": true,
      "inputs": [],
      "name": "creator",
      "outputs": [
        {
          "name": "",
          "type": "address"
        }
      ],
      "payable": false,
      "stateMutability": "view",
      "type": "function",
      "signature": "0x02d05d3f"
    },
    {
      "constant": true,
      "inputs": [
        {
          "name": "",
          "type": "address"
        }
      ],
      "name": "allAgreements",
      "outputs": [
        {
          "name": "",
          "type": "bool"
        }
      ],
      "payable": false,
      "stateMutability": "view",
      "type": "function",
      "signature": "0x450fc5f5"
    },
    {
      "constant": true,
      "inputs": [
        {
          "name": "",
          "type": "address"
        },
        {
          "name": "",
          "type": "uint256"
        }
      ],
      "name": "agreementsToUser",
      "outputs": [
        {
          "name": "",
          "type": "address"
        }
      ],
      "payable": false,
      "stateMutability": "view",
      "type": "function",
      "signature": "0x8333b2be"
    },
    {
      "inputs": [],
      "payable": false,
      "stateMutability": "nonpayable",
      "type": "constructor",
      "signature": "constructor"
    },
    {
      "anonymous": false,
      "inputs": [
        {
          "indexed": false,
          "name": "from",
          "type": "address"
        },
        {
          "indexed": false,
          "name": "agreementAddr",
          "type": "address"
        }
      ],
      "name": "AgreementCreated",
      "type": "event",
      "signature": "0x3178ea54b202e279700e6dcdc03e5e9f454ceef79b2d55705b43e47913baa297"
    },
    {
      "anonymous": false,
      "inputs": [
        {
          "indexed": false,
          "name": "agreementAddr",
          "type": "address"
        },
        {
          "indexed": false,
          "name": "inAllAgreementsList",
          "type": "bool"
        }
      ],
      "name": "AgreementAdded",
      "type": "event",
      "signature": "0x474c83e68d4e02ce5107d915a4a1918f8a7630a4f69a93afcd4203e2896519eb"
    },
    {
      "constant": false,
      "inputs": [],
      "name": "createNewAgreement",
      "outputs": [],
      "payable": false,
      "stateMutability": "nonpayable",
      "type": "function",
      "signature": "0x6d896612"
    },
    {
      "constant": true,
      "inputs": [
        {
          "name": "_user",
          "type": "address"
        }
      ],
      "name": "getUsersAgreements",
      "outputs": [
        {
          "name": "",
          "type": "address[]"
        }
      ],
      "payable": false,
      "stateMutability": "view",
      "type": "function",
      "signature": "0xf7860eed"
    },
    {
      "constant": true,
      "inputs": [],
      "name": "getMyAgreements",
      "outputs": [
        {
          "name": "",
          "type": "address[]"
        }
      ],
      "payable": false,
      "stateMutability": "view",
      "type": "function",
      "signature": "0xbae7ea95"
    },
    {
      "constant": false,
      "inputs": [
        {
          "name": "_user",
          "type": "address"
        }
      ],
      "name": "newRegisteredUser",
      "outputs": [],
      "payable": false,
      "stateMutability": "nonpayable",
      "type": "function",
      "signature": "0x4760404e"
    },
    {
      "constant": true,
      "inputs": [],
      "name": "getMyAgreementsCount",
      "outputs": [
        {
          "name": "myAgreementsCount",
          "type": "uint256"
        }
      ],
      "payable": false,
      "stateMutability": "view",
      "type": "function",
      "signature": "0xf2f1b7bc"
    },
    {
      "constant": true,
      "inputs": [
        {
          "name": "_user",
          "type": "address"
        }
      ],
      "name": "getUsersAgreementsCount",
      "outputs": [
        {
          "name": "usersAgreementsCount",
          "type": "uint256"
        }
      ],
      "payable": false,
      "stateMutability": "view",
      "type": "function",
      "signature": "0x37971d76"
    }
  ],
  "bytecode": "0x608060405234801561001057600080fd5b50336000806101000a81548173ffffffffffffffffffffffffffffffffffffffff021916908373ffffffffffffffffffffffffffffffffffffffff16021790555061559f806100606000396000f3fe608060405260043610620000a3576000357c0100000000000000000000000000000000000000000000000000000000900463ffffffff16806302d05d3f14620000a857806337971d761462000102578063450fc5f5146200016b5780634760404e14620001d85780636d896612146200022d5780638333b2be1462000247578063bae7ea9514620002e6578063f2f1b7bc1462000357578063f7860eed1462000385575b600080fd5b348015620000b557600080fd5b50620000c062000431565b604051808273ffffffffffffffffffffffffffffffffffffffff1673ffffffffffffffffffffffffffffffffffffffff16815260200191505060405180910390f35b3480156200010f57600080fd5b5062000155600480360360208110156200012857600080fd5b81019080803573ffffffffffffffffffffffffffffffffffffffff16906020019092919050505062000456565b6040518082815260200191505060405180910390f35b3480156200017857600080fd5b50620001be600480360360208110156200019157600080fd5b81019080803573ffffffffffffffffffffffffffffffffffffffff169060200190929190505050620004a2565b604051808215151515815260200191505060405180910390f35b348015620001e557600080fd5b506200022b60048036036020811015620001fe57600080fd5b81019080803573ffffffffffffffffffffffffffffffffffffffff169060200190929190505050620004c2565b005b3480156200023a57600080fd5b506200024562000657565b005b3480156200025457600080fd5b50620002a4600480360360408110156200026d57600080fd5b81019080803573ffffffffffffffffffffffffffffffffffffffff169060200190929190803590602001909291905050506200090f565b604051808273ffffffffffffffffffffffffffffffffffffffff1673ffffffffffffffffffffffffffffffffffffffff16815260200191505060405180910390f35b348015620002f357600080fd5b50620002fe6200095d565b6040518080602001828103825283818151815260200191508051906020019060200280838360005b838110156200034357808201518184015260208101905062000326565b505050509050019250505060405180910390f35b3480156200036457600080fd5b506200036f62000a2a565b6040518082815260200191505060405180910390f35b3480156200039257600080fd5b50620003d860048036036020811015620003ab57600080fd5b81019080803573ffffffffffffffffffffffffffffffffffffffff16906020019092919050505062000a74565b6040518080602001828103825283818151815260200191508051906020019060200280838360005b838110156200041d57808201518184015260208101905062000400565b505050509050019250505060405180910390f35b6000809054906101000a900473ffffffffffffffffffffffffffffffffffffffff1681565b6000600260008373ffffffffffffffffffffffffffffffffffffffff1673ffffffffffffffffffffffffffffffffffffffff168152602001908152602001600020805490509050919050565b60016020528060005260406000206000915054906101000a900460ff1681565b60011515600160003373ffffffffffffffffffffffffffffffffffffffff1673ffffffffffffffffffffffffffffffffffffffff16815260200190815260200160002060009054906101000a900460ff161515141515620005b1576040517f08c379a000000000000000000000000000000000000000000000000000000000815260040180806020018281038252603a8152602001807f53656e64696e6720636f6e7472616374206e6f74206c6973746564206173206181526020017f206368696c64206f662041677265656d656e74466163746f727900000000000081525060400191505060405180910390fd5b600260008273ffffffffffffffffffffffffffffffffffffffff1673ffffffffffffffffffffffffffffffffffffffff1681526020019081526020016000203390806001815401808255809150509060018203906000526020600020016000909192909190916101000a81548173ffffffffffffffffffffffffffffffffffffffff021916908373ffffffffffffffffffffffffffffffffffffffff1602179055505050565b6000336200066462000b43565b808273ffffffffffffffffffffffffffffffffffffffff1673ffffffffffffffffffffffffffffffffffffffff168152602001915050604051809103906000f080158015620006b7573d6000803e3d6000fd5b509050600081905060018060008373ffffffffffffffffffffffffffffffffffffffff1673ffffffffffffffffffffffffffffffffffffffff16815260200190815260200160002060006101000a81548160ff021916908315150217905550600260003373ffffffffffffffffffffffffffffffffffffffff1673ffffffffffffffffffffffffffffffffffffffff1681526020019081526020016000208190806001815401808255809150509060018203906000526020600020016000909192909190916101000a81548173ffffffffffffffffffffffffffffffffffffffff021916908373ffffffffffffffffffffffffffffffffffffffff160217905550507f3178ea54b202e279700e6dcdc03e5e9f454ceef79b2d55705b43e47913baa2973382604051808373ffffffffffffffffffffffffffffffffffffffff1673ffffffffffffffffffffffffffffffffffffffff1681526020018273ffffffffffffffffffffffffffffffffffffffff1673ffffffffffffffffffffffffffffffffffffffff1681526020019250505060405180910390a17f474c83e68d4e02ce5107d915a4a1918f8a7630a4f69a93afcd4203e2896519eb81600160008473ffffffffffffffffffffffffffffffffffffffff1673ffffffffffffffffffffffffffffffffffffffff16815260200190815260200160002060009054906101000a900460ff16604051808373ffffffffffffffffffffffffffffffffffffffff1673ffffffffffffffffffffffffffffffffffffffff168152602001821515151581526020019250505060405180910390a15050565b6002602052816000526040600020818154811015156200092b57fe5b906000526020600020016000915091509054906101000a900473ffffffffffffffffffffffffffffffffffffffff1681565b6060600260003373ffffffffffffffffffffffffffffffffffffffff1673ffffffffffffffffffffffffffffffffffffffff16815260200190815260200160002080548060200260200160405190810160405280929190818152602001828054801562000a2057602002820191906000526020600020905b8160009054906101000a900473ffffffffffffffffffffffffffffffffffffffff1673ffffffffffffffffffffffffffffffffffffffff1681526020019060010190808311620009d5575b5050505050905090565b6000600260003373ffffffffffffffffffffffffffffffffffffffff1673ffffffffffffffffffffffffffffffffffffffff16815260200190815260200160002080549050905090565b6060600260008373ffffffffffffffffffffffffffffffffffffffff1673ffffffffffffffffffffffffffffffffffffffff16815260200190815260200160002080548060200260200160405190810160405280929190818152602001828054801562000b3757602002820191906000526020600020905b8160009054906101000a900473ffffffffffffffffffffffffffffffffffffffff1673ffffffffffffffffffffffffffffffffffffffff168152602001906001019080831162000aec575b50505050509050919050565b604051614a1f8062000b558339019056fe6080604052600b6000600160009054906101000a900473ffffffffffffffffffffffffffffffffffffffff1673ffffffffffffffffffffffffffffffffffffffff1673ffffffffffffffffffffffffffffffffffffffff168152602001908152602001600020600c90805462000077929190620001b4565b50600b6000600360009054906101000a900473ffffffffffffffffffffffffffffffffffffffff1673ffffffffffffffffffffffffffffffffffffffff1673ffffffffffffffffffffffffffffffffffffffff168152602001908152602001600020600d908054620000eb929190620001b4565b50348015620000f957600080fd5b5060405160208062004a1f833981018060405260208110156200011b57600080fd5b8101908080519060200190929190505050336000806101000a81548173ffffffffffffffffffffffffffffffffffffffff021916908373ffffffffffffffffffffffffffffffffffffffff16021790555080600160006101000a81548173ffffffffffffffffffffffffffffffffffffffff021916908373ffffffffffffffffffffffffffffffffffffffff1602179055505062000592565b828054828255906000526020600020906007028101928215620003a85760005260206000209160070282015b82811115620003a7578282600082015481600001556001820160009054906101000a900460ff168160010160006101000a81548160ff0219169083151502179055506001820160019054906101000a900473ffffffffffffffffffffffffffffffffffffffff168160010160016101000a81548173ffffffffffffffffffffffffffffffffffffffff021916908373ffffffffffffffffffffffffffffffffffffffff1602179055506002820160009054906101000a900473ffffffffffffffffffffffffffffffffffffffff168160020160006101000a81548173ffffffffffffffffffffffffffffffffffffffff021916908373ffffffffffffffffffffffffffffffffffffffff1602179055506003820160009054906101000a900473ffffffffffffffffffffffffffffffffffffffff168160030160006101000a81548173ffffffffffffffffffffffffffffffffffffffff021916908373ffffffffffffffffffffffffffffffffffffffff1602179055506004820181600401908054600181600116156101000203166002900462000380929190620003bb565b506005820154816005015560068201548160060155505091600701919060070190620001e0565b5b509050620003b7919062000449565b5090565b828054600181600116156101000203166002900490600052602060002090601f016020900481019282601f10620003f6578054855562000436565b828001600101855582156200043657600052602060002091601f016020900482015b828111156200043557825482559160010191906001019062000418565b5b5090506200044591906200051e565b5090565b6200051b91905b8082111562000517576000808201600090556001820160006101000a81549060ff02191690556001820160016101000a81549073ffffffffffffffffffffffffffffffffffffffff02191690556002820160006101000a81549073ffffffffffffffffffffffffffffffffffffffff02191690556003820160006101000a81549073ffffffffffffffffffffffffffffffffffffffff0219169055600482016000620004fd919062000546565b600582016000905560068201600090555060070162000450565b5090565b90565b6200054391905b808211156200053f57600081600090555060010162000525565b5090565b90565b50805460018160011615610100020316600290046000825580601f106200056e57506200058f565b601f0160209004906000526020600020908101906200058e91906200051e565b5b50565b61447d80620005a26000396000f3fe608060405260043610610128576000357c0100000000000000000000000000000000000000000000000000000000900463ffffffff168063046d9fa01461012d5780630e13ff761461016a578063218b0e98146101a5578063389880bc146101d05780634044db5c1461035d578063616555621461038857806361c499731461039f57806370b637591461042f57806374f079b81461048657806389aded41146104b157806392ecd6af146104c857806397abe18614610558578063993d7c2d146106c55780639d35c16114610832578063b69ef8a814610889578063b86ff9b3146108b4578063bd7c535114610a21578063be7493b314610a72578063c47f002714610a9d578063c9f85b7514610b65578063f1e96c2714610c63578063fd7a567c14610cba575b600080fd5b34801561013957600080fd5b50610142610d11565b6040518084815260200183815260200182151515158152602001935050505060405180910390f35b34801561017657600080fd5b506101a36004803603602081101561018d57600080fd5b81019080803590602001909291905050506110ac565b005b3480156101b157600080fd5b506101ba611b6d565b6040518082815260200191505060405180910390f35b3480156101dc57600080fd5b50610229600480360360408110156101f357600080fd5b81019080803573ffffffffffffffffffffffffffffffffffffffff16906020019092919080359060200190929190505050611b73565b60405180898152602001881515151581526020018773ffffffffffffffffffffffffffffffffffffffff1673ffffffffffffffffffffffffffffffffffffffff1681526020018673ffffffffffffffffffffffffffffffffffffffff1673ffffffffffffffffffffffffffffffffffffffff1681526020018573ffffffffffffffffffffffffffffffffffffffff1673ffffffffffffffffffffffffffffffffffffffff16815260200180602001848152602001838152602001828103825285818151815260200191508051906020019080838360005b8381101561031b578082015181840152602081019050610300565b50505050905090810190601f1680156103485780820380516001836020036101000a031916815260200191505b50995050505050505050505060405180910390f35b34801561036957600080fd5b50610372611cdc565b6040518082815260200191505060405180910390f35b34801561039457600080fd5b5061039d611ce2565b005b3480156103ab57600080fd5b506103b4612489565b6040518080602001828103825283818151815260200191508051906020019080838360005b838110156103f45780820151818401526020810190506103d9565b50505050905090810190601f1680156104215780820380516001836020036101000a031916815260200191505b509250505060405180910390f35b34801561043b57600080fd5b50610444612527565b604051808273ffffffffffffffffffffffffffffffffffffffff1673ffffffffffffffffffffffffffffffffffffffff16815260200191505060405180910390f35b34801561049257600080fd5b5061049b61254d565b6040518082815260200191505060405180910390f35b3480156104bd57600080fd5b506104c6612553565b005b3480156104d457600080fd5b506104dd612879565b6040518080602001828103825283818151815260200191508051906020019080838360005b8381101561051d578082015181840152602081019050610502565b50505050905090810190601f16801561054a5780820380516001836020036101000a031916815260200191505b509250505060405180910390f35b34801561056457600080fd5b506105916004803603602081101561057b57600080fd5b8101908080359060200190929190505050612917565b60405180898152602001881515151581526020018773ffffffffffffffffffffffffffffffffffffffff1673ffffffffffffffffffffffffffffffffffffffff1681526020018673ffffffffffffffffffffffffffffffffffffffff1673ffffffffffffffffffffffffffffffffffffffff1681526020018573ffffffffffffffffffffffffffffffffffffffff1673ffffffffffffffffffffffffffffffffffffffff16815260200180602001848152602001838152602001828103825285818151815260200191508051906020019080838360005b83811015610683578082015181840152602081019050610668565b50505050905090810190601f1680156106b05780820380516001836020036101000a031916815260200191505b50995050505050505050505060405180910390f35b3480156106d157600080fd5b506106fe600480360360208110156106e857600080fd5b8101908080359060200190929190505050612a73565b60405180898152602001881515151581526020018773ffffffffffffffffffffffffffffffffffffffff1673ffffffffffffffffffffffffffffffffffffffff1681526020018673ffffffffffffffffffffffffffffffffffffffff1673ffffffffffffffffffffffffffffffffffffffff1681526020018573ffffffffffffffffffffffffffffffffffffffff1673ffffffffffffffffffffffffffffffffffffffff16815260200180602001848152602001838152602001828103825285818151815260200191508051906020019080838360005b838110156107f05780820151818401526020810190506107d5565b50505050905090810190601f16801561081d5780820380516001836020036101000a031916815260200191505b50995050505050505050505060405180910390f35b34801561083e57600080fd5b50610847612bcf565b604051808273ffffffffffffffffffffffffffffffffffffffff1673ffffffffffffffffffffffffffffffffffffffff16815260200191505060405180910390f35b34801561089557600080fd5b5061089e612bf4565b6040518082815260200191505060405180910390f35b3480156108c057600080fd5b506108ed600480360360208110156108d757600080fd5b8101908080359060200190929190505050612bfa565b60405180898152602001881515151581526020018773ffffffffffffffffffffffffffffffffffffffff1673ffffffffffffffffffffffffffffffffffffffff1681526020018673ffffffffffffffffffffffffffffffffffffffff1673ffffffffffffffffffffffffffffffffffffffff1681526020018573ffffffffffffffffffffffffffffffffffffffff1673ffffffffffffffffffffffffffffffffffffffff16815260200180602001848152602001838152602001828103825285818151815260200191508051906020019080838360005b838110156109df5780820151818401526020810190506109c4565b50505050905090810190601f168015610a0c5780820380516001836020036101000a031916815260200191505b50995050505050505050505060405180910390f35b348015610a2d57600080fd5b50610a7060048036036020811015610a4457600080fd5b81019080803573ffffffffffffffffffffffffffffffffffffffff169060200190929190505050612d56565b005b348015610a7e57600080fd5b50610a87612fc9565b6040518082815260200191505060405180910390f35b348015610aa957600080fd5b50610b6360048036036020811015610ac057600080fd5b8101908080359060200190640100000000811115610add57600080fd5b820183602082011115610aef57600080fd5b80359060200191846001830284011164010000000083111715610b1157600080fd5b91908080601f016020809104026020016040519081016040528093929190818152602001838380828437600081840152601f19601f820116905080830192505050505050509192919290505050612fcf565b005b348015610b7157600080fd5b50610c6160048036036080811015610b8857600080fd5b8101908080359060200190929190803515159060200190929190803573ffffffffffffffffffffffffffffffffffffffff16906020019092919080359060200190640100000000811115610bdb57600080fd5b820183602082011115610bed57600080fd5b80359060200191846001830284011164010000000083111715610c0f57600080fd5b91908080601f016020809104026020016040519081016040528093929190818152602001838380828437600081840152601f19601f8201169050808301925050505050505091929192905050506132ec565b005b348015610c6f57600080fd5b50610c78613a74565b604051808273ffffffffffffffffffffffffffffffffffffffff1673ffffffffffffffffffffffffffffffffffffffff16815260200191505060405180910390f35b348015610cc657600080fd5b50610ccf613a9a565b604051808273ffffffffffffffffffffffffffffffffffffffff1673ffffffffffffffffffffffffffffffffffffffff16815260200191505060405180910390f35b6000806000600160009054906101000a900473ffffffffffffffffffffffffffffffffffffffff1673ffffffffffffffffffffffffffffffffffffffff163373ffffffffffffffffffffffffffffffffffffffff161480610dbf5750600360009054906101000a900473ffffffffffffffffffffffffffffffffffffffff1673ffffffffffffffffffffffffffffffffffffffff163373ffffffffffffffffffffffffffffffffffffffff16145b1515610e33576040517f08c379a00000000000000000000000000000000000000000000000000000000081526004018080602001828103825260198152602001807f4d7573742062652061207265676973746572656420757365720000000000000081525060200191505060405180910390fd5b600080905060008090505b600e8054905081101561106b5761105a600e82815481101515610e5d57fe5b90600052602060002090600702016101006040519081016040529081600082015481526020016001820160009054906101000a900460ff161515151581526020016001820160019054906101000a900473ffffffffffffffffffffffffffffffffffffffff1673ffffffffffffffffffffffffffffffffffffffff1673ffffffffffffffffffffffffffffffffffffffff1681526020016002820160009054906101000a900473ffffffffffffffffffffffffffffffffffffffff1673ffffffffffffffffffffffffffffffffffffffff1673ffffffffffffffffffffffffffffffffffffffff1681526020016003820160009054906101000a900473ffffffffffffffffffffffffffffffffffffffff1673ffffffffffffffffffffffffffffffffffffffff1673ffffffffffffffffffffffffffffffffffffffff168152602001600482018054600181600116156101000203166002900480601f0160208091040260200160405190810160405280929190818152602001828054600181600116156101000203166002900480156110385780601f1061100d57610100808354040283529160200191611038565b820191906000526020600020905b81548152906001019060200180831161101b57829003601f168201915b5050505050815260200160058201548152602001600682015481525050613ac0565b820191508080600101915050610e3e565b506006548114151561108957806006546000935093509350506110a7565b6006548114156110a557806006546001935093509350506110a7565b505b909192565b600160009054906101000a900473ffffffffffffffffffffffffffffffffffffffff1673ffffffffffffffffffffffffffffffffffffffff163373ffffffffffffffffffffffffffffffffffffffff1614806111555750600360009054906101000a900473ffffffffffffffffffffffffffffffffffffffff1673ffffffffffffffffffffffffffffffffffffffff163373ffffffffffffffffffffffffffffffffffffffff16145b15156111c9576040517f08c379a00000000000000000000000000000000000000000000000000000000081526004018080602001828103825260198152602001807f4d7573742062652061207265676973746572656420757365720000000000000081525060200191505060405180910390fd5b600073ffffffffffffffffffffffffffffffffffffffff16600160009054906101000a900473ffffffffffffffffffffffffffffffffffffffff1673ffffffffffffffffffffffffffffffffffffffff16141580156112775750600073ffffffffffffffffffffffffffffffffffffffff16600360009054906101000a900473ffffffffffffffffffffffffffffffffffffffff1673ffffffffffffffffffffffffffffffffffffffff1614155b15156112eb576040517f08c379a000000000000000000000000000000000000000000000000000000000815260040180806020018281038252601c8152602001807f54776f207573657273206d75737420626520726567697374657265640000000081525060200191505060405180910390fd5b6000600b60003373ffffffffffffffffffffffffffffffffffffffff1673ffffffffffffffffffffffffffffffffffffffff168152602001908152602001600020905060008180549050905061133f613ed1565b828481548110151561134d57fe5b90600052602060002090600702016101006040519081016040529081600082015481526020016001820160009054906101000a900460ff161515151581526020016001820160019054906101000a900473ffffffffffffffffffffffffffffffffffffffff1673ffffffffffffffffffffffffffffffffffffffff1673ffffffffffffffffffffffffffffffffffffffff1681526020016002820160009054906101000a900473ffffffffffffffffffffffffffffffffffffffff1673ffffffffffffffffffffffffffffffffffffffff1673ffffffffffffffffffffffffffffffffffffffff1681526020016003820160009054906101000a900473ffffffffffffffffffffffffffffffffffffffff1673ffffffffffffffffffffffffffffffffffffffff1673ffffffffffffffffffffffffffffffffffffffff168152602001600482018054600181600116156101000203166002900480601f0160208091040260200160405190810160405280929190818152602001828054600181600116156101000203166002900480156115285780601f106114fd57610100808354040283529160200191611528565b820191906000526020600020905b81548152906001019060200180831161150b57829003601f168201915b50505050508152602001600582015481526020016006820154815250509050828481548110151561155557fe5b90600052602060002090600702016000808201600090556001820160006101000a81549060ff02191690556001820160016101000a81549073ffffffffffffffffffffffffffffffffffffffff02191690556002820160006101000a81549073ffffffffffffffffffffffffffffffffffffffff02191690556003820160006101000a81549073ffffffffffffffffffffffffffffffffffffffff02191690556004820160006116059190613f5b565b600582016000905560068201600090555050826001830381548110151561162857fe5b9060005260206000209060070201838581548110151561164457fe5b9060005260206000209060070201600082015481600001556001820160009054906101000a900460ff168160010160006101000a81548160ff0219169083151502179055506001820160019054906101000a900473ffffffffffffffffffffffffffffffffffffffff168160010160016101000a81548173ffffffffffffffffffffffffffffffffffffffff021916908373ffffffffffffffffffffffffffffffffffffffff1602179055506002820160009054906101000a900473ffffffffffffffffffffffffffffffffffffffff168160020160006101000a81548173ffffffffffffffffffffffffffffffffffffffff021916908373ffffffffffffffffffffffffffffffffffffffff1602179055506003820160009054906101000a900473ffffffffffffffffffffffffffffffffffffffff168160030160006101000a81548173ffffffffffffffffffffffffffffffffffffffff021916908373ffffffffffffffffffffffffffffffffffffffff160217905550600482018160040190805460018160011615610100020316600290046117e5929190613fa3565b506005820154816005015560068201548160060155905050826001830381548110151561180e57fe5b90600052602060002090600702016000808201600090556001820160006101000a81549060ff02191690556001820160016101000a81549073ffffffffffffffffffffffffffffffffffffffff02191690556002820160006101000a81549073ffffffffffffffffffffffffffffffffffffffff02191690556003820160006101000a81549073ffffffffffffffffffffffffffffffffffffffff02191690556004820160006118be9190613f5b565b600582016000905560068201600090555050828054809190600190036118e4919061402a565b50600e81908060018154018082558091505090600182039060005260206000209060070201600090919290919091506000820151816000015560208201518160010160006101000a81548160ff02191690831515021790555060408201518160010160016101000a81548173ffffffffffffffffffffffffffffffffffffffff021916908373ffffffffffffffffffffffffffffffffffffffff16021790555060608201518160020160006101000a81548173ffffffffffffffffffffffffffffffffffffffff021916908373ffffffffffffffffffffffffffffffffffffffff16021790555060808201518160030160006101000a81548173ffffffffffffffffffffffffffffffffffffffff021916908373ffffffffffffffffffffffffffffffffffffffff16021790555060a0820151816004019080519060200190611a2e92919061405c565b5060c0820151816005015560e08201518160060155505050600b6000600160009054906101000a900473ffffffffffffffffffffffffffffffffffffffff1673ffffffffffffffffffffffffffffffffffffffff1673ffffffffffffffffffffffffffffffffffffffff168152602001908152602001600020600c908054611ab79291906140dc565b50600b6000600360009054906101000a900473ffffffffffffffffffffffffffffffffffffffff1673ffffffffffffffffffffffffffffffffffffffff1673ffffffffffffffffffffffffffffffffffffffff168152602001908152602001600020600d908054611b299291906140dc565b50611b32613bbf565b600881905550611b40613c2b565b600981905550611b4e613c97565b600a81905550611b5d81613ac0565b6006540160068190555050505050565b600a5481565b600b60205281600052604060002081815481101515611b8e57fe5b9060005260206000209060070201600091509150508060000154908060010160009054906101000a900460ff16908060010160019054906101000a900473ffffffffffffffffffffffffffffffffffffffff16908060020160009054906101000a900473ffffffffffffffffffffffffffffffffffffffff16908060030160009054906101000a900473ffffffffffffffffffffffffffffffffffffffff1690806004018054600181600116156101000203166002900480601f016020809104026020016040519081016040528092919081815260200182805460018160011615610100020316600290048015611cc65780601f10611c9b57610100808354040283529160200191611cc6565b820191906000526020600020905b815481529060010190602001808311611ca957829003601f168201915b5050505050908060050154908060060154905088565b60085481565b600160009054906101000a900473ffffffffffffffffffffffffffffffffffffffff1673ffffffffffffffffffffffffffffffffffffffff163373ffffffffffffffffffffffffffffffffffffffff161480611d8b5750600360009054906101000a900473ffffffffffffffffffffffffffffffffffffffff1673ffffffffffffffffffffffffffffffffffffffff163373ffffffffffffffffffffffffffffffffffffffff16145b1515611dff576040517f08c379a00000000000000000000000000000000000000000000000000000000081526004018080602001828103825260198152602001807f4d7573742062652061207265676973746572656420757365720000000000000081525060200191505060405180910390fd5b600073ffffffffffffffffffffffffffffffffffffffff16600160009054906101000a900473ffffffffffffffffffffffffffffffffffffffff1673ffffffffffffffffffffffffffffffffffffffff1614158015611ead5750600073ffffffffffffffffffffffffffffffffffffffff16600360009054906101000a900473ffffffffffffffffffffffffffffffffffffffff1673ffffffffffffffffffffffffffffffffffffffff1614155b1515611f21576040517f08c379a000000000000000000000000000000000000000000000000000000000815260040180806020018281038252601c8152602001807f54776f207573657273206d75737420626520726567697374657265640000000081525060200191505060405180910390fd5b6000600b60003373ffffffffffffffffffffffffffffffffffffffff1673ffffffffffffffffffffffffffffffffffffffff1681526020019081526020016000209050606081805480602002602001604051908101604052809291908181526020016000905b8282101561219857838290600052602060002090600702016101006040519081016040529081600082015481526020016001820160009054906101000a900460ff161515151581526020016001820160019054906101000a900473ffffffffffffffffffffffffffffffffffffffff1673ffffffffffffffffffffffffffffffffffffffff1673ffffffffffffffffffffffffffffffffffffffff1681526020016002820160009054906101000a900473ffffffffffffffffffffffffffffffffffffffff1673ffffffffffffffffffffffffffffffffffffffff1673ffffffffffffffffffffffffffffffffffffffff1681526020016003820160009054906101000a900473ffffffffffffffffffffffffffffffffffffffff1673ffffffffffffffffffffffffffffffffffffffff1673ffffffffffffffffffffffffffffffffffffffff168152602001600482018054600181600116156101000203166002900480601f01602080910402602001604051908101604052809291908181526020018280546001816001161561010002031660029004801561216c5780601f106121415761010080835404028352916020019161216c565b820191906000526020600020905b81548152906001019060200180831161214f57829003601f168201915b505050505081526020016005820154815260200160068201548152505081526020019060010190611f87565b505050509050600082816121ac919061402a565b50600080905060008090505b825181101561236a57600e83828151811015156121d157fe5b90602001906020020151908060018154018082558091505090600182039060005260206000209060070201600090919290919091506000820151816000015560208201518160010160006101000a81548160ff02191690831515021790555060408201518160010160016101000a81548173ffffffffffffffffffffffffffffffffffffffff021916908373ffffffffffffffffffffffffffffffffffffffff16021790555060608201518160020160006101000a81548173ffffffffffffffffffffffffffffffffffffffff021916908373ffffffffffffffffffffffffffffffffffffffff16021790555060808201518160030160006101000a81548173ffffffffffffffffffffffffffffffffffffffff021916908373ffffffffffffffffffffffffffffffffffffffff16021790555060a082015181600401908051906020019061232192919061405c565b5060c0820151816005015560e08201518160060155505050612359838281518110151561234a57fe5b90602001906020020151613ac0565b8201915080806001019150506121b8565b50600b6000600160009054906101000a900473ffffffffffffffffffffffffffffffffffffffff1673ffffffffffffffffffffffffffffffffffffffff1673ffffffffffffffffffffffffffffffffffffffff168152602001908152602001600020600c9080546123dc9291906140dc565b50600b6000600360009054906101000a900473ffffffffffffffffffffffffffffffffffffffff1673ffffffffffffffffffffffffffffffffffffffff1673ffffffffffffffffffffffffffffffffffffffff168152602001908152602001600020600d90805461244e9291906140dc565b50612457613bbf565b600881905550612465613c2b565b600981905550612473613c97565b600a819055508060065401600681905550505050565b60058054600181600116156101000203166002900480601f01602080910402602001604051908101604052809291908181526020018280546001816001161561010002031660029004801561251f5780601f106124f45761010080835404028352916020019161251f565b820191906000526020600020905b81548152906001019060200180831161250257829003601f168201915b505050505081565b600260009054906101000a900473ffffffffffffffffffffffffffffffffffffffff1681565b60075481565b600260009054906101000a900473ffffffffffffffffffffffffffffffffffffffff1673ffffffffffffffffffffffffffffffffffffffff163373ffffffffffffffffffffffffffffffffffffffff16141515612618576040517f08c379a000000000000000000000000000000000000000000000000000000000815260040180806020018281038252601a8152602001807f4d7573742062652074686520696e766974656420667269656e6400000000000081525060200191505060405180910390fd5b600073ffffffffffffffffffffffffffffffffffffffff16600360009054906101000a900473ffffffffffffffffffffffffffffffffffffffff1673ffffffffffffffffffffffffffffffffffffffff161415156126de576040517f08c379a00000000000000000000000000000000000000000000000000000000081526004018080602001828103825260198152602001807f55736572203220616c726561647920726567697374657265640000000000000081525060200191505060405180910390fd5b33600360006101000a81548173ffffffffffffffffffffffffffffffffffffffff021916908373ffffffffffffffffffffffffffffffffffffffff1602179055503373ffffffffffffffffffffffffffffffffffffffff16600360009054906101000a900473ffffffffffffffffffffffffffffffffffffffff1673ffffffffffffffffffffffffffffffffffffffff1614151561277b57600080fd5b60008060009054906101000a900473ffffffffffffffffffffffffffffffffffffffff1690508073ffffffffffffffffffffffffffffffffffffffff16634760404e600360009054906101000a900473ffffffffffffffffffffffffffffffffffffffff166040518263ffffffff167c0100000000000000000000000000000000000000000000000000000000028152600401808273ffffffffffffffffffffffffffffffffffffffff1673ffffffffffffffffffffffffffffffffffffffff168152602001915050600060405180830381600087803b15801561285e57600080fd5b505af1158015612872573d6000803e3d6000fd5b5050505050565b60048054600181600116156101000203166002900480601f01602080910402602001604051908101604052809291908181526020018280546001816001161561010002031660029004801561290f5780601f106128e45761010080835404028352916020019161290f565b820191906000526020600020905b8154815290600101906020018083116128f257829003601f168201915b505050505081565b600d8181548110151561292657fe5b90600052602060002090600702016000915090508060000154908060010160009054906101000a900460ff16908060010160019054906101000a900473ffffffffffffffffffffffffffffffffffffffff16908060020160009054906101000a900473ffffffffffffffffffffffffffffffffffffffff16908060030160009054906101000a900473ffffffffffffffffffffffffffffffffffffffff1690806004018054600181600116156101000203166002900480601f016020809104026020016040519081016040528092919081815260200182805460018160011615610100020316600290048015612a5d5780601f10612a3257610100808354040283529160200191612a5d565b820191906000526020600020905b815481529060010190602001808311612a4057829003601f168201915b5050505050908060050154908060060154905088565b600e81815481101515612a8257fe5b90600052602060002090600702016000915090508060000154908060010160009054906101000a900460ff16908060010160019054906101000a900473ffffffffffffffffffffffffffffffffffffffff16908060020160009054906101000a900473ffffffffffffffffffffffffffffffffffffffff16908060030160009054906101000a900473ffffffffffffffffffffffffffffffffffffffff1690806004018054600181600116156101000203166002900480601f016020809104026020016040519081016040528092919081815260200182805460018160011615610100020316600290048015612bb95780601f10612b8e57610100808354040283529160200191612bb9565b820191906000526020600020905b815481529060010190602001808311612b9c57829003601f168201915b5050505050908060050154908060060154905088565b6000809054906101000a900473ffffffffffffffffffffffffffffffffffffffff1681565b60065481565b600c81815481101515612c0957fe5b90600052602060002090600702016000915090508060000154908060010160009054906101000a900460ff16908060010160019054906101000a900473ffffffffffffffffffffffffffffffffffffffff16908060020160009054906101000a900473ffffffffffffffffffffffffffffffffffffffff16908060030160009054906101000a900473ffffffffffffffffffffffffffffffffffffffff1690806004018054600181600116156101000203166002900480601f016020809104026020016040519081016040528092919081815260200182805460018160011615610100020316600290048015612d405780601f10612d1557610100808354040283529160200191612d40565b820191906000526020600020905b815481529060010190602001808311612d2357829003601f168201915b5050505050908060050154908060060154905088565b600160009054906101000a900473ffffffffffffffffffffffffffffffffffffffff1673ffffffffffffffffffffffffffffffffffffffff163373ffffffffffffffffffffffffffffffffffffffff16141515612e1b576040517f08c379a00000000000000000000000000000000000000000000000000000000081526004018080602001828103825260198152602001807f4d7573742062652072656769737465726564207573657220310000000000000081525060200191505060405180910390fd5b600073ffffffffffffffffffffffffffffffffffffffff16600360009054906101000a900473ffffffffffffffffffffffffffffffffffffffff1673ffffffffffffffffffffffffffffffffffffffff16141515612ee1576040517f08c379a00000000000000000000000000000000000000000000000000000000081526004018080602001828103825260198152602001807f55736572203220616c726561647920726567697374657265640000000000000081525060200191505060405180910390fd5b3373ffffffffffffffffffffffffffffffffffffffff168173ffffffffffffffffffffffffffffffffffffffff1614151515612f85576040517f08c379a00000000000000000000000000000000000000000000000000000000081526004018080602001828103825260198152602001807f596f752063616e7420696e7669746520796f757273656c66210000000000000081525060200191505060405180910390fd5b80600260006101000a81548173ffffffffffffffffffffffffffffffffffffffff021916908373ffffffffffffffffffffffffffffffffffffffff16021790555050565b60095481565b600160009054906101000a900473ffffffffffffffffffffffffffffffffffffffff1673ffffffffffffffffffffffffffffffffffffffff163373ffffffffffffffffffffffffffffffffffffffff1614806130785750600360009054906101000a900473ffffffffffffffffffffffffffffffffffffffff1673ffffffffffffffffffffffffffffffffffffffff163373ffffffffffffffffffffffffffffffffffffffff16145b15156130ec576040517f08c379a00000000000000000000000000000000000000000000000000000000081526004018080602001828103825260198152602001807f4d7573742062652061207265676973746572656420757365720000000000000081525060200191505060405180910390fd5b600160009054906101000a900473ffffffffffffffffffffffffffffffffffffffff1673ffffffffffffffffffffffffffffffffffffffff163373ffffffffffffffffffffffffffffffffffffffff1614156131ec57600060048054600181600116156101000203166002900490501415156131d0576040517f08c379a000000000000000000000000000000000000000000000000000000000815260040180806020018281038252601a8152602001807f596f7520616c72656164792073657420796f7572206e616d652100000000000081525060200191505060405180910390fd5b80600490805190602001906131e69291906142dc565b506132e9565b600360009054906101000a900473ffffffffffffffffffffffffffffffffffffffff1673ffffffffffffffffffffffffffffffffffffffff163373ffffffffffffffffffffffffffffffffffffffff1614156132e857600060058054600181600116156101000203166002900490501415156132d0576040517f08c379a000000000000000000000000000000000000000000000000000000000815260040180806020018281038252601a8152602001807f596f7520616c72656164792073657420796f7572206e616d652100000000000081525060200191505060405180910390fd5b80600590805190602001906132e69291906142dc565b505b5b50565b600160009054906101000a900473ffffffffffffffffffffffffffffffffffffffff1673ffffffffffffffffffffffffffffffffffffffff163373ffffffffffffffffffffffffffffffffffffffff1614806133955750600360009054906101000a900473ffffffffffffffffffffffffffffffffffffffff1673ffffffffffffffffffffffffffffffffffffffff163373ffffffffffffffffffffffffffffffffffffffff16145b1515613409576040517f08c379a00000000000000000000000000000000000000000000000000000000081526004018080602001828103825260198152602001807f4d7573742062652061207265676973746572656420757365720000000000000081525060200191505060405180910390fd5b600073ffffffffffffffffffffffffffffffffffffffff16600160009054906101000a900473ffffffffffffffffffffffffffffffffffffffff1673ffffffffffffffffffffffffffffffffffffffff16141580156134b75750600073ffffffffffffffffffffffffffffffffffffffff16600360009054906101000a900473ffffffffffffffffffffffffffffffffffffffff1673ffffffffffffffffffffffffffffffffffffffff1614155b151561352b576040517f08c379a000000000000000000000000000000000000000000000000000000000815260040180806020018281038252601c8152602001807f54776f207573657273206d75737420626520726567697374657265640000000081525060200191505060405180910390fd5b600160009054906101000a900473ffffffffffffffffffffffffffffffffffffffff1673ffffffffffffffffffffffffffffffffffffffff168273ffffffffffffffffffffffffffffffffffffffff1614806135d45750600360009054906101000a900473ffffffffffffffffffffffffffffffffffffffff1673ffffffffffffffffffffffffffffffffffffffff168273ffffffffffffffffffffffffffffffffffffffff16145b1515613648576040517f08c379a00000000000000000000000000000000000000000000000000000000081526004018080602001828103825260208152602001807f646562746f72206d75737420626520612072656769737465726564207573657281525060200191505060405180910390fd5b602381511015156136c1576040517f08c379a00000000000000000000000000000000000000000000000000000000081526004018080602001828103825260148152602001807f4465736372697074696f6e20746f6f206c6f6e6700000000000000000000000081525060200191505060405180910390fd5b6136c9613ed1565b6136d233613ca4565b816060019073ffffffffffffffffffffffffffffffffffffffff16908173ffffffffffffffffffffffffffffffffffffffff16815250506000613713613ec9565b9050858260000181815250508482602001901515908115158152505033826040019073ffffffffffffffffffffffffffffffffffffffff16908173ffffffffffffffffffffffffffffffffffffffff168152505083826080019073ffffffffffffffffffffffffffffffffffffffff16908173ffffffffffffffffffffffffffffffffffffffff1681525050828260a001819052506007548260c0018181525050808260e0018181525050600b6000836060015173ffffffffffffffffffffffffffffffffffffffff1673ffffffffffffffffffffffffffffffffffffffff16815260200190815260200160002082908060018154018082558091505090600182039060005260206000209060070201600090919290919091506000820151816000015560208201518160010160006101000a81548160ff02191690831515021790555060408201518160010160016101000a81548173ffffffffffffffffffffffffffffffffffffffff021916908373ffffffffffffffffffffffffffffffffffffffff16021790555060608201518160020160006101000a81548173ffffffffffffffffffffffffffffffffffffffff021916908373ffffffffffffffffffffffffffffffffffffffff16021790555060808201518160030160006101000a81548173ffffffffffffffffffffffffffffffffffffffff021916908373ffffffffffffffffffffffffffffffffffffffff16021790555060a082015181600401908051906020019061394892919061405c565b5060c0820151816005015560e08201518160060155505050600160075401600781905550600b6000600160009054906101000a900473ffffffffffffffffffffffffffffffffffffffff1673ffffffffffffffffffffffffffffffffffffffff1673ffffffffffffffffffffffffffffffffffffffff168152602001908152602001600020600c9080546139dd9291906140dc565b50600b6000600360009054906101000a900473ffffffffffffffffffffffffffffffffffffffff1673ffffffffffffffffffffffffffffffffffffffff1673ffffffffffffffffffffffffffffffffffffffff168152602001908152602001600020600d908054613a4f9291906140dc565b50613a58613bbf565b600881905550613a66613c2b565b600981905550505050505050565b600160009054906101000a900473ffffffffffffffffffffffffffffffffffffffff1681565b600360009054906101000a900473ffffffffffffffffffffffffffffffffffffffff1681565b6000806000905060011515836020015115151415613ae15780915050613bba565b600160009054906101000a900473ffffffffffffffffffffffffffffffffffffffff1673ffffffffffffffffffffffffffffffffffffffff16836080015173ffffffffffffffffffffffffffffffffffffffff161415613b4e578260000151600003905080915050613bba565b600360009054906101000a900473ffffffffffffffffffffffffffffffffffffffff1673ffffffffffffffffffffffffffffffffffffffff16836080015173ffffffffffffffffffffffffffffffffffffffff161415613bb8578260000151905080915050613bba565b505b919050565b6000600b6000600160009054906101000a900473ffffffffffffffffffffffffffffffffffffffff1673ffffffffffffffffffffffffffffffffffffffff1673ffffffffffffffffffffffffffffffffffffffff16815260200190815260200160002080549050905090565b6000600b6000600360009054906101000a900473ffffffffffffffffffffffffffffffffffffffff1673ffffffffffffffffffffffffffffffffffffffff1673ffffffffffffffffffffffffffffffffffffffff16815260200190815260200160002080549050905090565b6000600e80549050905090565b6000600160009054906101000a900473ffffffffffffffffffffffffffffffffffffffff1673ffffffffffffffffffffffffffffffffffffffff168273ffffffffffffffffffffffffffffffffffffffff161480613d4f5750600360009054906101000a900473ffffffffffffffffffffffffffffffffffffffff1673ffffffffffffffffffffffffffffffffffffffff168273ffffffffffffffffffffffffffffffffffffffff16145b1515613dc3576040517f08c379a00000000000000000000000000000000000000000000000000000000081526004018080602001828103825260178152602001807f75736572206d757374206265207265676973746572656400000000000000000081525060200191505060405180910390fd5b600160009054906101000a900473ffffffffffffffffffffffffffffffffffffffff1673ffffffffffffffffffffffffffffffffffffffff168273ffffffffffffffffffffffffffffffffffffffff161415613e4357600360009054906101000a900473ffffffffffffffffffffffffffffffffffffffff169050613ec4565b600360009054906101000a900473ffffffffffffffffffffffffffffffffffffffff1673ffffffffffffffffffffffffffffffffffffffff168273ffffffffffffffffffffffffffffffffffffffff161415613ec357600160009054906101000a900473ffffffffffffffffffffffffffffffffffffffff169050613ec4565b5b919050565b600042905090565b6101006040519081016040528060008152602001600015158152602001600073ffffffffffffffffffffffffffffffffffffffff168152602001600073ffffffffffffffffffffffffffffffffffffffff168152602001600073ffffffffffffffffffffffffffffffffffffffff1681526020016060815260200160008152602001600081525090565b50805460018160011615610100020316600290046000825580601f10613f815750613fa0565b601f016020900490600052602060002090810190613f9f919061435c565b5b50565b828054600181600116156101000203166002900490600052602060002090601f016020900481019282601f10613fdc5780548555614019565b8280016001018555821561401957600052602060002091601f016020900482015b82811115614018578254825591600101919060010190613ffd565b5b509050614026919061435c565b5090565b815481835581811115614057576007028160070283600052602060002091820191016140569190614381565b5b505050565b828054600181600116156101000203166002900490600052602060002090601f016020900481019282601f1061409d57805160ff19168380011785556140cb565b828001600101855582156140cb579182015b828111156140ca5782518255916020019190600101906140af565b5b5090506140d8919061435c565b5090565b8280548282559060005260206000209060070281019282156142cb5760005260206000209160070282015b828111156142ca578282600082015481600001556001820160009054906101000a900460ff168160010160006101000a81548160ff0219169083151502179055506001820160019054906101000a900473ffffffffffffffffffffffffffffffffffffffff168160010160016101000a81548173ffffffffffffffffffffffffffffffffffffffff021916908373ffffffffffffffffffffffffffffffffffffffff1602179055506002820160009054906101000a900473ffffffffffffffffffffffffffffffffffffffff168160020160006101000a81548173ffffffffffffffffffffffffffffffffffffffff021916908373ffffffffffffffffffffffffffffffffffffffff1602179055506003820160009054906101000a900473ffffffffffffffffffffffffffffffffffffffff168160030160006101000a81548173ffffffffffffffffffffffffffffffffffffffff021916908373ffffffffffffffffffffffffffffffffffffffff160217905550600482018160040190805460018160011615610100020316600290046142a4929190613fa3565b506005820154816005015560068201548160060155505091600701919060070190614107565b5b5090506142d89190614381565b5090565b828054600181600116156101000203166002900490600052602060002090601f016020900481019282601f1061431d57805160ff191683800117855561434b565b8280016001018555821561434b579182015b8281111561434a57825182559160200191906001019061432f565b5b509050614358919061435c565b5090565b61437e91905b8082111561437a576000816000905550600101614362565b5090565b90565b61444e91905b8082111561444a576000808201600090556001820160006101000a81549060ff02191690556001820160016101000a81549073ffffffffffffffffffffffffffffffffffffffff02191690556002820160006101000a81549073ffffffffffffffffffffffffffffffffffffffff02191690556003820160006101000a81549073ffffffffffffffffffffffffffffffffffffffff02191690556004820160006144319190613f5b565b6005820160009055600682016000905550600701614387565b5090565b9056fea165627a7a7230582038591f5113b7396d89ecf41002a1ec40c5a7b56b4b157c8b299947bbde6c2b6e0029a165627a7a72305820f7d93064f91dc399238f091c54e63c7f6754c2f55f353cc40696cb6b76cd8de70029",
  "source": "pragma solidity ^0.5.0;\r\n\r\ncontract AgreementFactory {\r\n\r\n  address public creator;\r\n\r\n  mapping(address => bool) public allAgreements;\r\n\r\n  //map users to lists of agreements they're part of\r\n  mapping(address => address[]) public agreementsToUser;\r\n\r\n  event AgreementCreated (address from, address agreementAddr);\r\n  event AgreementAdded (address agreementAddr, bool inAllAgreementsList);\r\n\r\n  constructor() public {\r\n    creator = msg.sender;\r\n  }\r\n\r\n  function createNewAgreement() public  {\r\n    Agreement newAgreement = new Agreement(msg.sender);\r\n    address agreementAddress = address(newAgreement);\r\n    allAgreements[agreementAddress] = true;\r\n    agreementsToUser[msg.sender].push(agreementAddress); // push agreement to user's list of agreements\r\n    emit AgreementCreated(msg.sender, agreementAddress);\r\n    emit AgreementAdded(agreementAddress, allAgreements[agreementAddress]);\r\n  }\r\n\r\n  function getUsersAgreements(address _user) public view returns (address[] memory ) {\r\n    return( agreementsToUser[_user] );\r\n  }\r\n\r\n  function getMyAgreements() public view returns (address[] memory ) {\r\n    return( agreementsToUser[msg.sender] );\r\n  }\r\n\r\n  function newRegisteredUser(address _user) public _onlyChildContract {\r\n    agreementsToUser[_user].push(msg.sender); //add snding contract's address to user's list of contracts\r\n  }\r\n\r\n  // Length getters and modifiers\r\n\r\n  function getMyAgreementsCount() public view returns(uint myAgreementsCount) {\r\n    return agreementsToUser[msg.sender].length;\r\n  }\r\n\r\n  function getUsersAgreementsCount(address _user) public view returns(uint usersAgreementsCount) {\r\n    return agreementsToUser[_user].length;\r\n  }\r\n\r\n  modifier _onlyChildContract {\r\n    require( allAgreements[msg.sender] == true, 'Sending contract not listed as a child of AgreementFactory');\r\n    _;\r\n  }\r\n}\r\n\r\ncontract Agreement {\r\n\r\n  address public parentFactory;  // address of the AgreementFactory\r\n  address public user_1;\r\n  address public invited_friend;\r\n  address public user_2;\r\n  string public user_1_name;\r\n  string public user_2_name;\r\n\r\n  int public balance;  // the net balance of who owes who.  Positive if user_2 owes more, negative if user_1 owes more.\r\n\r\n  uint public txCounter; // counts the number of purchases created.\r\n\r\n  // initialize uint lengths of transaction arrays. Useful because public variables have automatic getters, so we\r\n  // can easily grab array lengths for testing and healthchecks.\r\n  uint public pendingTxs1Length;\r\n  uint public pendingTxs2Length;\r\n  uint public confirmedTxsLength;\r\n\r\n  mapping( address => Tx[] ) public pendingTransactions; // map user to the list of their pending transactions.\r\n\r\n  // Solidity doesn't allow elems in nested arrays to be directly called via web3. So explicitly set each user's Tx array, for external calls\r\n  Tx[] public pendingTransactions_1 = pendingTransactions[user_1];\r\n  Tx[] public pendingTransactions_2 = pendingTransactions[user_2];\r\n\r\n  Tx[] public confirmedTransactions;\r\n\r\n  // the basic transaction object\r\n  struct Tx {\r\n    uint amount;\r\n    bool split;\r\n    address creator;\r\n    address confirmer;\r\n    address debtor;\r\n    string description;\r\n    uint index;  // useful for tracking transactions, since they can move from a 'pending' array to 'confirmed' array.\r\n    uint timestamp;\r\n  }\r\n\r\n  //  ***** constructor and user registration functions *****\r\n\r\n  constructor(address _creator) public {\r\n    parentFactory = msg.sender;\r\n    user_1 = _creator;\r\n  }\r\n\r\n  function setName(string memory _name) onlyUser public {\r\n    if (msg.sender == user_1) {\r\n      require(bytes(user_1_name).length == 0, \"You already set your name!\");\r\n      user_1_name = _name;\r\n      } else if (msg.sender == user_2) {\r\n        require(bytes(user_2_name).length == 0, \"You already set your name!\");\r\n        user_2_name = _name;\r\n      }\r\n    }\r\n\r\n    function inviteFriend(address _friend) onlyUser1 onlyUser2NotRegistered public {\r\n      //user_1 can re-set invited_friend address, until a second user registers.  After that, this func reverts.\r\n      require(_friend != msg.sender, 'You cant invite yourself!');\r\n      invited_friend = _friend;\r\n    }\r\n\r\n    function registerUser2() onlyInvitedFriend onlyUser2NotRegistered public {\r\n      user_2 = msg.sender;\r\n      require(user_2 == msg.sender); // check it's successfully set\r\n      AgreementFactory factory = AgreementFactory(parentFactory); // grab the factory\r\n      factory.newRegisteredUser(user_2); //  Call parent's registerUser2 func\r\n    }\r\n\r\n    // ****** Functions for creating and confirming transactions\r\n    function createPending(uint _amount, bool _split, address _debtor, string  memory _description) onlyUser onlyBothRegistered public {\r\n      require( _debtor == user_1 || _debtor == user_2, 'debtor must be a registered user' );\r\n      require( bytes(_description).length < 35, 'Description too long' );   // string length isn't always *exactly* bytes length - but this nevertheless enforces a short description\r\n      // create new pending tx\r\n      Tx memory newPendingTx;\r\n\r\n      // set the other user as confirmer\r\n      newPendingTx.confirmer = getOtherUser(msg.sender);\r\n\r\n      uint timeNow = timeStamp();\r\n\r\n      // set remaining attributes\r\n      newPendingTx.amount = _amount;\r\n      newPendingTx.split = _split;\r\n      newPendingTx.creator = msg.sender;\r\n      newPendingTx.debtor = _debtor;\r\n      newPendingTx.description = _description;\r\n      newPendingTx.index = txCounter;\r\n      newPendingTx.timestamp = timeNow;\r\n\r\n      // append new tx to the confirmer's pending tx array, and updated Tx counter and lengths\r\n      pendingTransactions[newPendingTx.confirmer].push(newPendingTx);\r\n      txCounter = txCounter + 1; //update tx counter\r\n\r\n      pendingTransactions_1 = pendingTransactions[user_1];\r\n      pendingTransactions_2 = pendingTransactions[user_2];\r\n      pendingTxs1Length = getPendingTxsLength1();\r\n      pendingTxs2Length = getPendingTxsLength2();\r\n    }\r\n\r\n    function confirmAll() onlyUser onlyBothRegistered public {\r\n      Tx[] storage allPendingTx = pendingTransactions[msg.sender];\r\n      Tx[] memory memAllPendingTx = allPendingTx;  // copy pending txs to memory\r\n\r\n      allPendingTx.length = 0; // delete all pending txs in storage\r\n\r\n      int balanceChange  = 0;\r\n      for (uint i = 0; i < memAllPendingTx.length; i++) {\r\n        confirmedTransactions.push(memAllPendingTx[i]);  // add Tx to confirmed array\r\n        balanceChange = balanceChange + changeInBalance(memAllPendingTx[i]); // add the tx amount to the balance change\r\n      }\r\n      // update lengths and balance\r\n\r\n      pendingTransactions_1 = pendingTransactions[user_1];\r\n      pendingTransactions_2 = pendingTransactions[user_2];\r\n      pendingTxs1Length = getPendingTxsLength1();\r\n      pendingTxs2Length = getPendingTxsLength2();\r\n      confirmedTxsLength = getConfirmedTxsLength();\r\n      balance = balance + balanceChange;\r\n    }\r\n\r\n    function confirmSingleTx(uint _txIndex) onlyUser onlyBothRegistered public {\r\n      Tx[] storage allPendingTx =  pendingTransactions[msg.sender];\r\n\r\n      uint len = allPendingTx.length;\r\n      Tx memory transaction = allPendingTx[_txIndex];  // copy tx to memory\r\n\r\n      // delete transaction fron pendingTx. This approach preserves array length, but not order\r\n      delete allPendingTx[_txIndex];\r\n      allPendingTx[_txIndex] = allPendingTx[len - 1];   // copy last element to empty slot\r\n      delete allPendingTx[len - 1];   // delete last element\r\n      allPendingTx.length--;  // decrease array size by one to remove empty slot\r\n\r\n      // append Tx to confirmed transactions\r\n      confirmedTransactions.push(transaction);\r\n\r\n      //update stored lengths\r\n      pendingTransactions_1 = pendingTransactions[user_1];\r\n      pendingTransactions_2 = pendingTransactions[user_2];\r\n      pendingTxs1Length = getPendingTxsLength1();\r\n      pendingTxs2Length = getPendingTxsLength2();\r\n      confirmedTxsLength = getConfirmedTxsLength();\r\n\r\n      balance = balance + changeInBalance(transaction);\r\n    }\r\n\r\n    function balanceHealthCheck () onlyUser public view returns (int _testBal, int _bal, bool) {\r\n      // calculates balance from total confirmed tx history. Checks == to running balance.\r\n      int testBalance = 0;\r\n      for (uint i = 0; i < confirmedTransactions.length; i++) {\r\n        testBalance = testBalance + changeInBalance(confirmedTransactions[i]);\r\n      }\r\n\r\n      if (testBalance != balance) {\r\n        return(testBalance, balance, false);\r\n        } else if (testBalance == balance) {\r\n          return(testBalance, balance, true);\r\n        }\r\n      }\r\n\r\n      // ***** Helper and getter functions *****\r\n      function changeInBalance(Tx memory _purchase) private view returns (int _change) {\r\n        // returns the change to a balance caused by a purchase\r\n        int change = 0;\r\n        if (_purchase.split == true) {\r\n          return change;  // no overall change to balance when an expense is split\r\n          } else if (_purchase.debtor == user_1) {\r\n            change = -int(_purchase.amount);\r\n            return change;\r\n            } else if (_purchase.debtor == user_2) {\r\n              change = int(_purchase.amount);\r\n              return change;\r\n            }\r\n          }\r\n\r\n          function getOtherUser(address _user) private view returns (address) {\r\n            require(_user == user_1 || _user == user_2, 'user must be registered');\r\n            if (_user == user_1) {\r\n              return user_2;\r\n              } else if (_user == user_2) {\r\n                return user_1;\r\n              }\r\n            }\r\n\r\n            function timeStamp() private view returns (uint) {\r\n              return block.timestamp;\r\n            }\r\n\r\n            // Length getters for lists of confirmed & pending txs\r\n            function getPendingTxsLength1() internal view returns(uint) {\r\n              return pendingTransactions[user_1].length;\r\n            }\r\n\r\n            function getPendingTxsLength2() internal view returns(uint) {\r\n              return pendingTransactions[user_2].length;\r\n            }\r\n\r\n            function getConfirmedTxsLength() internal view returns(uint) {\r\n              return confirmedTransactions.length;\r\n            }\r\n\r\n\r\n            // ******** Modifiers *********\r\n            modifier onlyUser {\r\n              require(msg.sender == user_1 || msg.sender == user_2, 'Must be a registered user');\r\n              _;\r\n            }\r\n\r\n            modifier onlyUser1 {\r\n              require(msg.sender == user_1, 'Must be registered user 1');\r\n              _;\r\n            }\r\n\r\n            modifier onlyInvitedFriend {\r\n              require(msg.sender == invited_friend, 'Must be the invited friend');\r\n              _;\r\n            }\r\n\r\n            modifier onlyUser2NotRegistered {\r\n              require (user_2 == address(0), 'User 2 already registered');\r\n              _;\r\n            }\r\n\r\n            modifier onlyBothRegistered {\r\n              require (user_1 != address(0) && user_2 != address(0), 'Two users must be registered');\r\n              _;\r\n            }\r\n          }\r\n\r\n\r\n\r\n\r\n\r\n          // PRE-IMPLEMENTATION OF PENDING TX MAPPING\r\n          /*\r\n\r\n          /* pragma solidity ^0.5.2;\r\n\r\n          contract AgreementFactory {\r\n\r\n          address[] public allAgreements;\r\n          //map users to lists of agreements they're part of\r\n          mapping(address => address[]) public agreementsToUser;\r\n\r\n          constructor() public {\r\n          address creator = msg.sender;\r\n        }\r\n\r\n        function createNewAgreement() public {\r\n        Agreement newAgreement = new Agreement(msg.sender);\r\n        address agreementAddress = address(newAgreement);\r\n        allAgreements.push(agreementAddress); //\r\n        agreementsToUser[msg.sender].push(agreementAddress); // push agreement to user's list of agreements\r\n      }\r\n      function getMyAgreements() public view returns (address[] memory ) {\r\n      return( agreementsToUser[msg.sender] );\r\n    }\r\n\r\n    function getAllAgreements() public view returns (address[] memory) {\r\n    return allAgreements;\r\n  }\r\n\r\n  function newRegisteredUser(address _user, address _contract) public {\r\n  agreementsToUser[_user].push(_contract);\r\n}\r\n}\r\n\r\ncontract Agreement {\r\naddress public user_1;\r\naddress public invited_friend;\r\naddress public user_2;\r\nstring public user_1_name;\r\nstring public user_2_name;\r\n\r\nint public balance;  // the net balance of who owes who.  Positive if user_2 owes more, negative if user_1 owes more.\r\n\r\nuint public txCounter; // counts the number of purchases created.\r\n\r\n// initialize uint lengths of transaction arrays. Useful because public variables have automatic getters, so we\r\n// can easily grab array lengths for testing and healthchecks.\r\nuint public pendingTxs1Length;\r\nuint public pendingTxs2Length;\r\nuint public confirmedTxsLength;\r\n\r\nTx[] public pendingTransactions_1;  // pending transactions to be confirmed by user 1\r\nTx[] public pendingTransactions_2;  // pending transactions to be confirmed by user 2\r\nTx[] public confirmedTransactions;  // All Transactions approved by users\r\n\r\n// the basic transaction object\r\nstruct Tx {\r\nuint amount;\r\nbool split;\r\naddress creator;\r\naddress confirmer;\r\naddress debtor;\r\nstring description;\r\nuint index;  // useful for tracking transactions, since they can move from a 'pending' array to 'confirmed' array.\r\nuint timestamp;\r\n}\r\n\r\n//  ***** constructor and user registration functions *****\r\n\r\nconstructor(address _creator) public {\r\nuser_1 = _creator;\r\n}\r\n\r\nfunction setName(string memory _name) onlyUser public {\r\n\r\nif (msg.sender == user_1) {\r\nrequire(bytes(user_1_name).length == 0, \"You already set your name!\");\r\nuser_1_name = _name;\r\n} else if (msg.sender == user_2) {\r\nrequire(bytes(user_2_name).length == 0, \"You already set your name!\");\r\nuser_2_name = _name;\r\n}\r\n}\r\n\r\nfunction inviteFriend(address _friend) onlyUser1 onlyUser2NotRegistered public {\r\n//user_1 can re-set invited_friend address, until a second user registers.  After that, this func reverts.\r\ninvited_friend = _friend;\r\n}\r\n\r\nfunction registerUser2() onlyInvitedFriend onlyUser2NotRegistered public {\r\nuser_2 = msg.sender;\r\n//TODO - call AgreementsFactory, and add this agreement to user's list\r\n}\r\n\r\n// ****** Functions for creating and confirming transactions\r\n\r\nfunction createPending(uint _amount, bool _split, address _debtor, string  memory _description) onlyUser onlyBothRegistered public {\r\nrequire( _debtor == user_1 || _debtor == user_2, 'debtor must be a registered user' );\r\nrequire( bytes(_description).length < 35, 'Description too long' );   // string length isn't always *exactly* bytes length - but this nevertheless enforces a short description.\r\n\r\n// create new pending tx\r\nTx memory newPendingTx;\r\n\r\n// set the other user as confirmer\r\nnewPendingTx.confirmer = getOtherUser(msg.sender);\r\n\r\nuint timeNow = timeStamp();\r\n\r\n// set remaining attributes\r\nnewPendingTx.amount = _amount;\r\nnewPendingTx.split = _split;\r\nnewPendingTx.creator = msg.sender;\r\nnewPendingTx.debtor = _debtor;\r\nnewPendingTx.description = _description;\r\nnewPendingTx.index = txCounter;\r\nnewPendingTx.timestamp = timeNow;\r\n\r\n// append new tx to the confirmer's pending tx array, and updated it's length\r\nif (newPendingTx.confirmer == user_1) {\r\npendingTransactions_1.push(newPendingTx);\r\npendingTxs1Length = getPendingTxsLength1();\r\n\r\n} else if (newPendingTx.confirmer == user_2) {\r\npendingTransactions_2.push(newPendingTx);\r\npendingTxs2Length = getPendingTxsLength2();\r\n}\r\n\r\ntxCounter = txCounter + 1;  // update tx counter\r\n}\r\n\r\nfunction confirmAll() onlyUser onlyBothRegistered public {\r\nTx[] storage allPendingTx = getPendingTx(msg.sender);\r\n\r\nTx[] memory memAllPendingTx = allPendingTx;  // copy pending txs to memory\r\n\r\nallPendingTx.length = 0; // delete all elements in pending tx array\r\npendingTxs1Length = getPendingTxsLength1();  //update stored lengths of pending tx arrays\r\npendingTxs2Length = getPendingTxsLength2();\r\nint balanceChange  = 0;\r\n\r\nfor (uint i = 0; i < memAllPendingTx.length; i++) {\r\nconfirmedTransactions.push(memAllPendingTx[i]);  // add Tx to confirmed array\r\nbalanceChange = balanceChange + changeInBalance(memAllPendingTx[i]); // add the transaction amount to the balance change\r\n}\r\nconfirmedTxsLength = getConfirmedTxsLength();\r\nbalance = balance + balanceChange;  // update the balance in storage\r\n}\r\n\r\nfunction confirmSingleTx(uint _txIndex) onlyUser onlyBothRegistered public {\r\nTx[] storage allPendingTx = getPendingTx(msg.sender);\r\n\r\nuint len = allPendingTx.length;\r\nTx memory transaction = allPendingTx[_txIndex];  // copy tx to memory\r\n\r\n// delete transaction fron pendingTx. This approach preserves array length, but not order\r\ndelete allPendingTx[_txIndex];\r\nallPendingTx[_txIndex] = allPendingTx[len - 1];   // copy last element to empty slot\r\ndelete allPendingTx[len - 1];   // delete last element\r\nallPendingTx.length--;  // decrement size of array by 1\r\n\r\n// append Tx to confirmed transactions\r\nconfirmedTransactions.push(transaction);\r\n\r\n//update stored lengths\r\npendingTxs1Length = getPendingTxsLength1();\r\npendingTxs2Length = getPendingTxsLength2();\r\nconfirmedTxsLength = getConfirmedTxsLength();\r\n\r\nbalance = balance + changeInBalance(transaction);\r\n}\r\n/*\r\nfunction balanceHealthCheck () onlyUser public view returns (int _testBal, int _bal, bool) {\r\n// calculates balance from total confirmed tx history.  Checks == to running balance.\r\nint testBalance = 0;\r\nfor (uint i = 0; i < confirmedTransactions.length; i++) {\r\ntestBalance = testBalance + changeInBalance(confirmedTransactions[i]);\r\n}\r\n\r\nif (testBalance != balance) {\r\nreturn(testBalance, balance, false);\r\n} else if (testBalance == balance) {\r\nreturn(testBalance, balance, true);\r\n}\r\n} */\r\n\r\n// ***** Helper and getter functions *****\r\n/* function changeInBalance(Tx memory _purchase) private view returns (int _change) {\r\n// returns the change to a balance caused by a purchase\r\nint change = 0;\r\nif (_purchase.split == true) {\r\nreturn change;  // no overall change to balance when an expense is split\r\n} else if (_purchase.debtor == user_1) {\r\nchange = -int(_purchase.amount);\r\nreturn change;\r\n} else if (_purchase.debtor == user_2) {\r\nchange = int(_purchase.amount);\r\nreturn change;\r\n}\r\n}\r\n\r\nfunction getPendingTx( address _user) private view returns (Tx[] storage){\r\n// return the user's pending transactions list\r\nTx[] storage allPendingTx;\r\nif (_user == user_1) {\r\nallPendingTx = pendingTransactions_1;\r\n} else if (_user == user_2) {\r\nallPendingTx = pendingTransactions_2;\r\n}\r\nreturn allPendingTx;\r\n}\r\n\r\nfunction getOtherUser(address _user) private view returns (address) {\r\nrequire(_user == user_1 || _user == user_2, 'user must be registered');\r\nif (_user == user_1) {\r\nreturn user_2;\r\n} else if (_user == user_2) {\r\nreturn user_1;\r\n}\r\n}\r\n\r\nfunction timeStamp() private view returns (uint) {\r\nreturn block.timestamp;\r\n}\r\n\r\n// Length getters for lists of confirmed & pending txs\r\nfunction getPendingTxsLength1() internal view returns(uint) {\r\nreturn pendingTransactions_1.length;\r\n}\r\n\r\nfunction getPendingTxsLength2() internal view returns(uint) {\r\nreturn pendingTransactions_2.length;\r\n}\r\n\r\nfunction getConfirmedTxsLength() internal view returns(uint) {\r\nreturn confirmedTransactions.length;\r\n} */\r\n\r\n/* function pendingTransactions2Length() onlyUser external view returns (uint) {\r\nreturn pendingTransactions_2.length;\r\n} */\r\n\r\n/* function pendingTransactions1Length() onlyUser external view returns (uint) {\r\nreturn pendingTransactions_1.length;\r\n}\r\n\r\nfunction confirmedTransactionsLength() onlyUser external view returns (uint) {\r\nreturn confirmedTransactions.length;\r\n} */\r\n\r\n// ******** Modifiers *********\r\n/* modifier onlyUser {\r\nrequire(msg.sender == user_1 || msg.sender == user_2, 'Must be a registered user');\r\n_;\r\n}\r\n\r\nmodifier onlyUser1 {\r\nrequire(msg.sender == user_1, 'Must be registered user 1');\r\n_;\r\n}\r\n\r\nmodifier onlyInvitedFriend {\r\nrequire(msg.sender == invited_friend, 'Must be the invited friend');\r\n_;\r\n}\r\n\r\nmodifier onlyUser2NotRegistered {\r\nrequire (user_2 == address(0), 'User 2 already registered');\r\n_;\r\n}\r\n\r\nmodifier onlyBothRegistered {\r\nrequire (user_1 != address(0) && user_2 != address(0), 'Two users must be registered');\r\n_;\r\n}\r\n} */\r\n",
  "sourcePath": "C:/Users/Administrator/Desktop/Solidity/EtherSplit/contracts/AgreementFactory.sol",
  "compiler": {
    "name": "solc",
    "version": "0.5.0+commit.1d4f565a.Emscripten.clang"
  },
  "schemaVersion": "3.0.0",
  "updatedAt": "2019-01-10T21:50:53.790Z",
  "devdoc": {
    "methods": {}
  },
  "userdoc": {
    "methods": {}
  }
}